:020000001fffe0
:020001001fffdf
:020002001fffde
:020003001fffdd
:020004001fffdc
:020005001fffdb
:020006001fffda
:020007001fffd9
:020008001fffd8
:020009001fffd7
:02000a001fffd6
:02000b001fffd5
:02000c001fffd4
:02000d001fffd3
:02000e001fffd2
:02000f001fffd1
:020010001fffd0
:020011001fffcf
:020012001fffce
:020013001fffcd
:020014001fffcc
:020015001fffcb
:020016001fffca
:020017001fffc9
:020018001fffc8
:020019001fffc7
:02001a001fffc6
:02001b001fffc5
:02001c001fffc4
:02001d001fffc3
:02001e001fffc2
:02001f001fffc1
:020020001fffc0
:020021001fffbf
:020022001fffbe
:020023001fffbd
:020024001fffbc
:020025001fffbb
:020026001fffba
:020027001fffb9
:020028001fffb8
:020029001fffb7
:02002a001fffb6
:02002b001fffb5
:02002c001fffb4
:02002d001fffb3
:02002e001fffb2
:02002f001fffb1
:020030001fffb0
:020031001fffaf
:020032001fffae
:020033001fffad
:020034001fffac
:020035001fffab
:020036001fffaa
:020037001fffa9
:020038001fffa8
:020039001fffa7
:02003a001ffea7
:02003b001ffea6
:02003c001ffea5
:02003d001ffea4
:02003e001ffea3
:02003f001ffea2
:020040001ffea1
:020041001ffea0
:020042001ffe9f
:020043001ffe9e
:020044001ffe9d
:020045001ffe9c
:020046001ffe9b
:020047001ffe9a
:020048001ffe99
:020049001ffe98
:02004a001ffe97
:02004b001ffe96
:02004c001ffe95
:02004d001ffe94
:02004e001ffe93
:02004f001ffe92
:020050001ffe91
:020051001ffe90
:020052001ffe8f
:020053001ffe8e
:020054001ffe8d
:020055001ffe8c
:020056001ffe8b
:020057001ffe8a
:020058001ffe89
:020059001ffe88
:02005a001ffe87
:02005b001ffe86
:02005c001ffe85
:02005d001ffe84
:02005e001ffe83
:02005f001ffe82
:020060001ffe81
:020061001ffe80
:020062001ffe7f
:020063001ffe7e
:020064001ffd7e
:020065001ffd7d
:020066001ffd7c
:020067001ffd7b
:020068001ffd7a
:020069001ffd79
:02006a001ffd78
:02006b001ffd77
:02006c001ffd76
:02006d001ffd75
:02006e001ffd74
:02006f001ffd73
:020070001ffd72
:020071001ffd71
:020072001ffd70
:020073001ffd6f
:020074001ffd6e
:020075001ffd6d
:020076001ffd6c
:020077001ffd6b
:020078001ffd6a
:020079001ffd69
:02007a001ffd68
:02007b001ffd67
:02007c001ffd66
:02007d001ffd65
:02007e001ffd64
:02007f001ffd63
:020080001ffd62
:020081001ffc62
:020082001ffc61
:020083001ffc60
:020084001ffc5f
:020085001ffc5e
:020086001ffc5d
:020087001ffc5c
:020088001ffc5b
:020089001ffc5a
:02008a001ffc59
:02008b001ffc58
:02008c001ffc57
:02008d001ffc56
:02008e001ffc55
:02008f001ffc54
:020090001ffc53
:020091001ffc52
:020092001ffc51
:020093001ffc50
:020094001ffc4f
:020095001ffc4e
:020096001ffc4d
:020097001ffc4c
:020098001ffc4b
:020099001ffb4b
:02009a001ffb4a
:02009b001ffb49
:02009c001ffb48
:02009d001ffb47
:02009e001ffb46
:02009f001ffb45
:0200a0001ffb44
:0200a1001ffb43
:0200a2001ffb42
:0200a3001ffb41
:0200a4001ffb40
:0200a5001ffb3f
:0200a6001ffb3e
:0200a7001ffb3d
:0200a8001ffb3c
:0200a9001ffb3b
:0200aa001ffb3a
:0200ab001ffb39
:0200ac001ffb38
:0200ad001ffa38
:0200ae001ffa37
:0200af001ffa36
:0200b0001ffa35
:0200b1001ffa34
:0200b2001ffa33
:0200b3001ffa32
:0200b4001ffa31
:0200b5001ffa30
:0200b6001ffa2f
:0200b7001ffa2e
:0200b8001ffa2d
:0200b9001ffa2c
:0200ba001ffa2b
:0200bb001ffa2a
:0200bc001ffa29
:0200bd001ffa28
:0200be001ffa27
:0200bf001ffa26
:0200c0001ff926
:0200c1001ff925
:0200c2001ff924
:0200c3001ff923
:0200c4001ff922
:0200c5001ff921
:0200c6001ff920
:0200c7001ff91f
:0200c8001ff91e
:0200c9001ff91d
:0200ca001ff91c
:0200cb001ff91b
:0200cc001ff91a
:0200cd001ff919
:0200ce001ff918
:0200cf001ff917
:0200d0001ff817
:0200d1001ff816
:0200d2001ff815
:0200d3001ff814
:0200d4001ff813
:0200d5001ff812
:0200d6001ff811
:0200d7001ff810
:0200d8001ff80f
:0200d9001ff80e
:0200da001ff80d
:0200db001ff80c
:0200dc001ff80b
:0200dd001ff80a
:0200de001ff809
:0200df001ff808
:0200e0001ff708
:0200e1001ff707
:0200e2001ff706
:0200e3001ff705
:0200e4001ff704
:0200e5001ff703
:0200e6001ff702
:0200e7001ff701
:0200e8001ff700
:0200e9001ff7ff
:0200ea001ff7fe
:0200eb001ff7fd
:0200ec001ff7fc
:0200ed001ff7fb
:0200ee001ff6fb
:0200ef001ff6fa
:0200f0001ff6f9
:0200f1001ff6f8
:0200f2001ff6f7
:0200f3001ff6f6
:0200f4001ff6f5
:0200f5001ff6f4
:0200f6001ff6f3
:0200f7001ff6f2
:0200f8001ff6f1
:0200f9001ff6f0
:0200fa001ff6ef
:0200fb001ff6ee
:0200fc001ff5ee
:0200fd001ff5ed
:0200fe001ff5ec
:0200ff001ff5eb
:020100001ff5e9
:020101001ff5e8
:020102001ff5e7
:020103001ff5e6
:020104001ff5e5
:020105001ff5e4
:020106001ff5e3
:020107001ff5e2
:020108001ff5e1
:020109001ff4e1
:02010a001ff4e0
:02010b001ff4df
:02010c001ff4de
:02010d001ff4dd
:02010e001ff4dc
:02010f001ff4db
:020110001ff4da
:020111001ff4d9
:020112001ff4d8
:020113001ff4d7
:020114001ff4d6
:020115001ff3d6
:020116001ff3d5
:020117001ff3d4
:020118001ff3d3
:020119001ff3d2
:02011a001ff3d1
:02011b001ff3d0
:02011c001ff3cf
:02011d001ff3ce
:02011e001ff3cd
:02011f001ff3cc
:020120001ff3cb
:020121001ff2cb
:020122001ff2ca
:020123001ff2c9
:020124001ff2c8
:020125001ff2c7
:020126001ff2c6
:020127001ff2c5
:020128001ff2c4
:020129001ff2c3
:02012a001ff2c2
:02012b001ff2c1
:02012c001ff1c1
:02012d001ff1c0
:02012e001ff1bf
:02012f001ff1be
:020130001ff1bd
:020131001ff1bc
:020132001ff1bb
:020133001ff1ba
:020134001ff1b9
:020135001ff1b8
:020136001ff1b7
:020137001ff0b7
:020138001ff0b6
:020139001ff0b5
:02013a001ff0b4
:02013b001ff0b3
:02013c001ff0b2
:02013d001ff0b1
:02013e001ff0b0
:02013f001ff0af
:020140001ff0ae
:020141001fefae
:020142001fefad
:020143001fefac
:020144001fefab
:020145001fefaa
:020146001fefa9
:020147001fefa8
:020148001fefa7
:020149001fefa6
:02014a001fefa5
:02014b001fefa4
:02014c001feea4
:02014d001feea3
:02014e001feea2
:02014f001feea1
:020150001feea0
:020151001fee9f
:020152001fee9e
:020153001fee9d
:020154001fee9c
:020155001fed9c
:020156001fed9b
:020157001fed9a
:020158001fed99
:020159001fed98
:02015a001fed97
:02015b001fed96
:02015c001fed95
:02015d001fed94
:02015e001fed93
:02015f001fec93
:020160001fec92
:020161001fec91
:020162001fec90
:020163001fec8f
:020164001fec8e
:020165001fec8d
:020166001fec8c
:020167001fec8b
:020168001feb8b
:020169001feb8a
:02016a001feb89
:02016b001feb88
:02016c001feb87
:02016d001feb86
:02016e001feb85
:02016f001feb84
:020170001feb83
:020171001feb82
:020172001fea82
:020173001fea81
:020174001fea80
:020175001fea7f
:020176001fea7e
:020177001fea7d
:020178001fea7c
:020179001fea7b
:02017a001fe97b
:02017b001fe97a
:02017c001fe979
:02017d001fe978
:02017e001fe977
:02017f001fe976
:020180001fe975
:020181001fe974
:020182001fe973
:020183001fe873
:020184001fe872
:020185001fe871
:020186001fe870
:020187001fe86f
:020188001fe86e
:020189001fe86d
:02018a001fe86c
:02018b001fe86b
:02018c001fe76b
:02018d001fe76a
:02018e001fe769
:02018f001fe768
:020190001fe767
:020191001fe766
:020192001fe765
:020193001fe764
:020194001fe664
:020195001fe663
:020196001fe662
:020197001fe661
:020198001fe660
:020199001fe65f
:02019a001fe65e
:02019b001fe65d
:02019c001fe55d
:02019d001fe55c
:02019e001fe55b
:02019f001fe55a
:0201a0001fe559
:0201a1001fe558
:0201a2001fe557
:0201a3001fe556
:0201a4001fe456
:0201a5001fe455
:0201a6001fe454
:0201a7001fe453
:0201a8001fe452
:0201a9001fe451
:0201aa001fe450
:0201ab001fe44f
:0201ac001fe34f
:0201ad001fe34e
:0201ae001fe34d
:0201af001fe34c
:0201b0001fe34b
:0201b1001fe34a
:0201b2001fe349
:0201b3001fe348
:0201b4001fe248
:0201b5001fe247
:0201b6001fe246
:0201b7001fe245
:0201b8001fe244
:0201b9001fe243
:0201ba001fe242
:0201bb001fe142
:0201bc001fe141
:0201bd001fe140
:0201be001fe13f
:0201bf001fe13e
:0201c0001fe13d
:0201c1001fe13c
:0201c2001fe13b
:0201c3001fe03b
:0201c4001fe03a
:0201c5001fe039
:0201c6001fe038
:0201c7001fe037
:0201c8001fe036
:0201c9001fe035
:0201ca001fdf35
:0201cb001fdf34
:0201cc001fdf33
:0201cd001fdf32
:0201ce001fdf31
:0201cf001fdf30
:0201d0001fdf2f
:0201d1001fde2f
:0201d2001fde2e
:0201d3001fde2d
:0201d4001fde2c
:0201d5001fde2b
:0201d6001fde2a
:0201d7001fde29
:0201d8001fdd29
:0201d9001fdd28
:0201da001fdd27
:0201db001fdd26
:0201dc001fdd25
:0201dd001fdd24
:0201de001fdd23
:0201df001fdc23
:0201e0001fdc22
:0201e1001fdc21
:0201e2001fdc20
:0201e3001fdc1f
:0201e4001fdc1e
:0201e5001fdc1d
:0201e6001fdb1d
:0201e7001fdb1c
:0201e8001fdb1b
:0201e9001fdb1a
:0201ea001fdb19
:0201eb001fdb18
:0201ec001fdb17
:0201ed001fda17
:0201ee001fda16
:0201ef001fda15
:0201f0001fda14
:0201f1001fda13
:0201f2001fda12
:0201f3001fda11
:0201f4001fd911
:0201f5001fd910
:0201f6001fd90f
:0201f7001fd90e
:0201f8001fd90d
:0201f9001fd90c
:0201fa001fd80c
:0201fb001fd80b
:0201fc001fd80a
:0201fd001fd809
:0201fe001fd808
:0201ff001fd807
:020200001fd805
:020201001fd705
:020202001fd704
:020203001fd703
:020204001fd702
:020205001fd701
:020206001fd700
:020207001fd600
:020208001fd6ff
:020209001fd6fe
:02020a001fd6fd
:02020b001fd6fc
:02020c001fd6fb
:02020d001fd6fa
:02020e001fd5fa
:02020f001fd5f9
:020210001fd5f8
:020211001fd5f7
:020212001fd5f6
:020213001fd5f5
:020214001fd4f5
:020215001fd4f4
:020216001fd4f3
:020217001fd4f2
:020218001fd4f1
:020219001fd4f0
:02021a001fd3f0
:02021b001fd3ef
:02021c001fd3ee
:02021d001fd3ed
:02021e001fd3ec
:02021f001fd3eb
:020220001fd2eb
:020221001fd2ea
:020222001fd2e9
:020223001fd2e8
:020224001fd2e7
:020225001fd2e6
:020226001fd1e6
:020227001fd1e5
:020228001fd1e4
:020229001fd1e3
:02022a001fd1e2
:02022b001fd1e1
:02022c001fd0e1
:02022d001fd0e0
:02022e001fd0df
:02022f001fd0de
:020230001fd0dd
:020231001fd0dc
:020232001fcfdc
:020233001fcfdb
:020234001fcfda
:020235001fcfd9
:020236001fcfd8
:020237001fcfd7
:020238001fced7
:020239001fced6
:02023a001fced5
:02023b001fced4
:02023c001fced3
:02023d001fced2
:02023e001fcdd2
:02023f001fcdd1
:020240001fcdd0
:020241001fcdcf
:020242001fcdce
:020243001fcdcd
:020244001fcccd
:020245001fcccc
:020246001fcccb
:020247001fccca
:020248001fccc9
:020249001fccc8
:02024a001fcbc8
:02024b001fcbc7
:02024c001fcbc6
:02024d001fcbc5
:02024e001fcbc4
:02024f001fcac4
:020250001fcac3
:020251001fcac2
:020252001fcac1
:020253001fcac0
:020254001fcabf
:020255001fc9bf
:020256001fc9be
:020257001fc9bd
:020258001fc9bc
:020259001fc9bb
:02025a001fc8bb
:02025b001fc8ba
:02025c001fc8b9
:02025d001fc8b8
:02025e001fc8b7
:02025f001fc8b6
:020260001fc7b6
:020261001fc7b5
:020262001fc7b4
:020263001fc7b3
:020264001fc7b2
:020265001fc6b2
:020266001fc6b1
:020267001fc6b0
:020268001fc6af
:020269001fc6ae
:02026a001fc6ad
:02026b001fc5ad
:02026c001fc5ac
:02026d001fc5ab
:02026e001fc5aa
:02026f001fc5a9
:020270001fc4a9
:020271001fc4a8
:020272001fc4a7
:020273001fc4a6
:020274001fc4a5
:020275001fc3a5
:020276001fc3a4
:020277001fc3a3
:020278001fc3a2
:020279001fc3a1
:02027a001fc3a0
:02027b001fc2a0
:02027c001fc29f
:02027d001fc29e
:02027e001fc29d
:02027f001fc29c
:020280001fc19c
:020281001fc19b
:020282001fc19a
:020283001fc199
:020284001fc198
:020285001fc098
:020286001fc097
:020287001fc096
:020288001fc095
:020289001fc094
:02028a001fbf94
:02028b001fbf93
:02028c001fbf92
:02028d001fbf91
:02028e001fbf90
:02028f001fbe90
:020290001fbe8f
:020291001fbe8e
:020292001fbe8d
:020293001fbe8c
:020294001fbd8c
:020295001fbd8b
:020296001fbd8a
:020297001fbd89
:020298001fbd88
:020299001fbd87
:02029a001fbc87
:02029b001fbc86
:02029c001fbc85
:02029d001fbc84
:02029e001fbb84
:02029f001fbb83
:0202a0001fbb82
:0202a1001fbb81
:0202a2001fbb80
:0202a3001fba80
:0202a4001fba7f
:0202a5001fba7e
:0202a6001fba7d
:0202a7001fba7c
:0202a8001fb97c
:0202a9001fb97b
:0202aa001fb97a
:0202ab001fb979
:0202ac001fb978
:0202ad001fb878
:0202ae001fb877
:0202af001fb876
:0202b0001fb875
:0202b1001fb874
:0202b2001fb774
:0202b3001fb773
:0202b4001fb772
:0202b5001fb771
:0202b6001fb770
:0202b7001fb670
:0202b8001fb66f
:0202b9001fb66e
:0202ba001fb66d
:0202bb001fb66c
:0202bc001fb56c
:0202bd001fb56b
:0202be001fb56a
:0202bf001fb569
:0202c0001fb469
:0202c1001fb468
:0202c2001fb467
:0202c3001fb466
:0202c4001fb465
:0202c5001fb365
:0202c6001fb364
:0202c7001fb363
:0202c8001fb362
:0202c9001fb361
:0202ca001fb261
:0202cb001fb260
:0202cc001fb25f
:0202cd001fb25e
:0202ce001fb15e
:0202cf001fb15d
:0202d0001fb15c
:0202d1001fb15b
:0202d2001fb15a
:0202d3001fb05a
:0202d4001fb059
:0202d5001fb058
:0202d6001fb057
:0202d7001fb056
:0202d8001faf56
:0202d9001faf55
:0202da001faf54
:0202db001faf53
:0202dc001fae53
:0202dd001fae52
:0202de001fae51
:0202df001fae50
:0202e0001fae4f
:0202e1001fad4f
:0202e2001fad4e
:0202e3001fad4d
:0202e4001fad4c
:0202e5001fac4c
:0202e6001fac4b
:0202e7001fac4a
:0202e8001fac49
:0202e9001fac48
:0202ea001fab48
:0202eb001fab47
:0202ec001fab46
:0202ed001fab45
:0202ee001faa45
:0202ef001faa44
:0202f0001faa43
:0202f1001faa42
:0202f2001faa41
:0202f3001fa941
:0202f4001fa940
:0202f5001fa93f
:0202f6001fa93e
:0202f7001fa83e
:0202f8001fa83d
:0202f9001fa83c
:0202fa001fa83b
:0202fb001fa73b
:0202fc001fa73a
:0202fd001fa739
:0202fe001fa738
:0202ff001fa737
:020300001fa636
:020301001fa635
:020302001fa634
:020303001fa633
:020304001fa533
:020305001fa532
:020306001fa531
:020307001fa530
:020308001fa430
:020309001fa42f
:02030a001fa42e
:02030b001fa42d
:02030c001fa42c
:02030d001fa32c
:02030e001fa32b
:02030f001fa32a
:020310001fa329
:020311001fa229
:020312001fa228
:020313001fa227
:020314001fa226
:020315001fa126
:020316001fa125
:020317001fa124
:020318001fa123
:020319001fa023
:02031a001fa022
:02031b001fa021
:02031c001fa020
:02031d001fa01f
:02031e001f9f1f
:02031f001f9f1e
:020320001f9f1d
:020321001f9f1c
:020322001f9e1c
:020323001f9e1b
:020324001f9e1a
:020325001f9e19
:020326001f9d19
:020327001f9d18
:020328001f9d17
:020329001f9d16
:02032a001f9c16
:02032b001f9c15
:02032c001f9c14
:02032d001f9c13
:02032e001f9b13
:02032f001f9b12
:020330001f9b11
:020331001f9b10
:020332001f9a10
:020333001f9a0f
:020334001f9a0e
:020335001f9a0d
:020336001f990d
:020337001f990c
:020338001f990b
:020339001f990a
:02033a001f980a
:02033b001f9809
:02033c001f9808
:02033d001f9807
:02033e001f9707
:02033f001f9706
:020340001f9705
:020341001f9704
:020342001f9604
:020343001f9603
:020344001f9602
:020345001f9601
:020346001f9501
:020347001f9500
:020348001f95ff
:020349001f95fe
:02034a001f94fe
:02034b001f94fd
:02034c001f94fc
:02034d001f94fb
:02034e001f93fb
:02034f001f93fa
:020350001f93f9
:020351001f93f8
:020352001f92f8
:020353001f92f7
:020354001f92f6
:020355001f92f5
:020356001f91f5
:020357001f91f4
:020358001f91f3
:020359001f91f2
:02035a001f90f2
:02035b001f90f1
:02035c001f90f0
:02035d001f90ef
:02035e001f8fef
:02035f001f8fee
:020360001f8fed
:020361001f8fec
:020362001f8eec
:020363001f8eeb
:020364001f8eea
:020365001f8ee9
:020366001f8de9
:020367001f8de8
:020368001f8de7
:020369001f8de6
:02036a001f8ce6
:02036b001f8ce5
:02036c001f8ce4
:02036d001f8be4
:02036e001f8be3
:02036f001f8be2
:020370001f8be1
:020371001f8ae1
:020372001f8ae0
:020373001f8adf
:020374001f8ade
:020375001f89de
:020376001f89dd
:020377001f89dc
:020378001f89db
:020379001f88db
:02037a001f88da
:02037b001f88d9
:02037c001f87d9
:02037d001f87d8
:02037e001f87d7
:02037f001f87d6
:020380001f86d6
:020381001f86d5
:020382001f86d4
:020383001f86d3
:020384001f85d3
:020385001f85d2
:020386001f85d1
:020387001f85d0
:020388001f84d0
:020389001f84cf
:02038a001f84ce
:02038b001f83ce
:02038c001f83cd
:02038d001f83cc
:02038e001f83cb
:02038f001f82cb
:020390001f82ca
:020391001f82c9
:020392001f82c8
:020393001f81c8
:020394001f81c7
:020395001f81c6
:020396001f80c6
:020397001f80c5
:020398001f80c4
:020399001f80c3
:02039a001f7fc3
:02039b001f7fc2
:02039c001f7fc1
:02039d001f7ec1
:02039e001f7ec0
:02039f001f7ebf
:0203a0001f7ebe
:0203a1001f7dbe
:0203a2001f7dbd
:0203a3001f7dbc
:0203a4001f7dbb
:0203a5001f7cbb
:0203a6001f7cba
:0203a7001f7cb9
:0203a8001f7bb9
:0203a9001f7bb8
:0203aa001f7bb7
:0203ab001f7bb6
:0203ac001f7ab6
:0203ad001f7ab5
:0203ae001f7ab4
:0203af001f79b4
:0203b0001f79b3
:0203b1001f79b2
:0203b2001f79b1
:0203b3001f78b1
:0203b4001f78b0
:0203b5001f78af
:0203b6001f77af
:0203b7001f77ae
:0203b8001f77ad
:0203b9001f77ac
:0203ba001f76ac
:0203bb001f76ab
:0203bc001f76aa
:0203bd001f75aa
:0203be001f75a9
:0203bf001f75a8
:0203c0001f75a7
:0203c1001f74a7
:0203c2001f74a6
:0203c3001f74a5
:0203c4001f73a5
:0203c5001f73a4
:0203c6001f73a3
:0203c7001f73a2
:0203c8001f72a2
:0203c9001f72a1
:0203ca001f72a0
:0203cb001f71a0
:0203cc001f719f
:0203cd001f719e
:0203ce001f719d
:0203cf001f709d
:0203d0001f709c
:0203d1001f709b
:0203d2001f6f9b
:0203d3001f6f9a
:0203d4001f6f99
:0203d5001f6f98
:0203d6001f6e98
:0203d7001f6e97
:0203d8001f6e96
:0203d9001f6d96
:0203da001f6d95
:0203db001f6d94
:0203dc001f6c94
:0203dd001f6c93
:0203de001f6c92
:0203df001f6c91
:0203e0001f6b91
:0203e1001f6b90
:0203e2001f6b8f
:0203e3001f6a8f
:0203e4001f6a8e
:0203e5001f6a8d
:0203e6001f698d
:0203e7001f698c
:0203e8001f698b
:0203e9001f698a
:0203ea001f688a
:0203eb001f6889
:0203ec001f6888
:0203ed001f6788
:0203ee001f6787
:0203ef001f6786
:0203f0001f6686
:0203f1001f6685
:0203f2001f6684
:0203f3001f6683
:0203f4001f6583
:0203f5001f6582
:0203f6001f6581
:0203f7001f6481
:0203f8001f6480
:0203f9001f647f
:0203fa001f637f
:0203fb001f637e
:0203fc001f637d
:0203fd001f637c
:0203fe001f627c
:0203ff001f627b
:020400001f6279
:020401001f6179
:020402001f6178
:020403001f6177
:020404001f6077
:020405001f6076
:020406001f6075
:020407001f5f75
:020408001f5f74
:020409001f5f73
:02040a001f5f72
:02040b001f5e72
:02040c001f5e71
:02040d001f5e70
:02040e001f5d70
:02040f001f5d6f
:020410001f5d6e
:020411001f5c6e
:020412001f5c6d
:020413001f5c6c
:020414001f5b6c
:020415001f5b6b
:020416001f5b6a
:020417001f5a6a
:020418001f5a69
:020419001f5a68
:02041a001f5a67
:02041b001f5967
:02041c001f5966
:02041d001f5965
:02041e001f5865
:02041f001f5864
:020420001f5863
:020421001f5763
:020422001f5762
:020423001f5761
:020424001f5661
:020425001f5660
:020426001f565f
:020427001f555f
:020428001f555e
:020429001f555d
:02042a001f545d
:02042b001f545c
:02042c001f545b
:02042d001f545a
:02042e001f535a
:02042f001f5359
:020430001f5358
:020431001f5258
:020432001f5257
:020433001f5256
:020434001f5156
:020435001f5155
:020436001f5154
:020437001f5054
:020438001f5053
:020439001f5052
:02043a001f4f52
:02043b001f4f51
:02043c001f4f50
:02043d001f4e50
:02043e001f4e4f
:02043f001f4e4e
:020440001f4d4e
:020441001f4d4d
:020442001f4d4c
:020443001f4c4c
:020444001f4c4b
:020445001f4c4a
:020446001f4b4a
:020447001f4b49
:020448001f4b48
:020449001f4a48
:02044a001f4a47
:02044b001f4a46
:02044c001f4946
:02044d001f4945
:02044e001f4944
:02044f001f4844
:020450001f4843
:020451001f4842
:020452001f4742
:020453001f4741
:020454001f4740
:020455001f473f
:020456001f463f
:020457001f463e
:020458001f463d
:020459001f453d
:02045a001f453c
:02045b001f453b
:02045c001f443b
:02045d001f443a
:02045e001f4439
:02045f001f4339
:020460001f4338
:020461001f4337
:020462001f4237
:020463001f4236
:020464001f4136
:020465001f4135
:020466001f4134
:020467001f4034
:020468001f4033
:020469001f4032
:02046a001f3f32
:02046b001f3f31
:02046c001f3f30
:02046d001f3e30
:02046e001f3e2f
:02046f001f3e2e
:020470001f3d2e
:020471001f3d2d
:020472001f3d2c
:020473001f3c2c
:020474001f3c2b
:020475001f3c2a
:020476001f3b2a
:020477001f3b29
:020478001f3b28
:020479001f3a28
:02047a001f3a27
:02047b001f3a26
:02047c001f3926
:02047d001f3925
:02047e001f3924
:02047f001f3824
:020480001f3823
:020481001f3822
:020482001f3722
:020483001f3721
:020484001f3720
:020485001f3620
:020486001f361f
:020487001f361e
:020488001f351e
:020489001f351d
:02048a001f351c
:02048b001f341c
:02048c001f341b
:02048d001f331b
:02048e001f331a
:02048f001f3319
:020490001f3219
:020491001f3218
:020492001f3217
:020493001f3117
:020494001f3116
:020495001f3115
:020496001f3015
:020497001f3014
:020498001f3013
:020499001f2f13
:02049a001f2f12
:02049b001f2f11
:02049c001f2e11
:02049d001f2e10
:02049e001f2e0f
:02049f001f2d0f
:0204a0001f2d0e
:0204a1001f2c0e
:0204a2001f2c0d
:0204a3001f2c0c
:0204a4001f2b0c
:0204a5001f2b0b
:0204a6001f2b0a
:0204a7001f2a0a
:0204a8001f2a09
:0204a9001f2a08
:0204aa001f2908
:0204ab001f2907
:0204ac001f2906
:0204ad001f2806
:0204ae001f2805
:0204af001f2705
:0204b0001f2704
:0204b1001f2703
:0204b2001f2603
:0204b3001f2602
:0204b4001f2601
:0204b5001f2501
:0204b6001f2500
:0204b7001f25ff
:0204b8001f24ff
:0204b9001f24fe
:0204ba001f24fd
:0204bb001f23fd
:0204bc001f23fc
:0204bd001f22fc
:0204be001f22fb
:0204bf001f22fa
:0204c0001f21fa
:0204c1001f21f9
:0204c2001f21f8
:0204c3001f20f8
:0204c4001f20f7
:0204c5001f20f6
:0204c6001f1ff6
:0204c7001f1ff5
:0204c8001f1ef5
:0204c9001f1ef4
:0204ca001f1ef3
:0204cb001f1df3
:0204cc001f1df2
:0204cd001f1df1
:0204ce001f1cf1
:0204cf001f1cf0
:0204d0001f1cef
:0204d1001f1bef
:0204d2001f1bee
:0204d3001f1aee
:0204d4001f1aed
:0204d5001f1aec
:0204d6001f19ec
:0204d7001f19eb
:0204d8001f19ea
:0204d9001f18ea
:0204da001f18e9
:0204db001f17e9
:0204dc001f17e8
:0204dd001f17e7
:0204de001f16e7
:0204df001f16e6
:0204e0001f16e5
:0204e1001f15e5
:0204e2001f15e4
:0204e3001f14e4
:0204e4001f14e3
:0204e5001f14e2
:0204e6001f13e2
:0204e7001f13e1
:0204e8001f13e0
:0204e9001f12e0
:0204ea001f12df
:0204eb001f11df
:0204ec001f11de
:0204ed001f11dd
:0204ee001f10dd
:0204ef001f10dc
:0204f0001f10db
:0204f1001f0fdb
:0204f2001f0fda
:0204f3001f0eda
:0204f4001f0ed9
:0204f5001f0ed8
:0204f6001f0dd8
:0204f7001f0dd7
:0204f8001f0dd6
:0204f9001f0cd6
:0204fa001f0cd5
:0204fb001f0bd5
:0204fc001f0bd4
:0204fd001f0bd3
:0204fe001f0ad3
:0204ff001f0ad2
:020500001f0ad0
:020501001f09d0
:020502001f09cf
:020503001f08cf
:020504001f08ce
:020505001f08cd
:020506001f07cd
:020507001f07cc
:020508001f06cc
:020509001f06cb
:02050a001f06ca
:02050b001f05ca
:02050c001f05c9
:02050d001f05c8
:02050e001f04c8
:02050f001f04c7
:020510001f03c7
:020511001f03c6
:020512001f03c5
:020513001f02c5
:020514001f02c4
:020515001f01c4
:020516001f01c3
:020517001f01c2
:020518001f00c2
:020519001f00c1
:02051a001f00c0
:02051b001effc1
:02051c001effc0
:02051d001efec0
:02051e001efebf
:02051f001efebe
:020520001efdbe
:020521001efdbd
:020522001efcbd
:020523001efcbc
:020524001efcbb
:020525001efbbb
:020526001efbba
:020527001efaba
:020528001efab9
:020529001efab8
:02052a001ef9b8
:02052b001ef9b7
:02052c001ef8b7
:02052d001ef8b6
:02052e001ef8b5
:02052f001ef7b5
:020530001ef7b4
:020531001ef6b4
:020532001ef6b3
:020533001ef6b2
:020534001ef5b2
:020535001ef5b1
:020536001ef4b1
:020537001ef4b0
:020538001ef4af
:020539001ef3af
:02053a001ef3ae
:02053b001ef3ad
:02053c001ef2ad
:02053d001ef2ac
:02053e001ef1ac
:02053f001ef1ab
:020540001ef1aa
:020541001ef0aa
:020542001ef0a9
:020543001eefa9
:020544001eefa8
:020545001eeea8
:020546001eeea7
:020547001eeea6
:020548001eeda6
:020549001eeda5
:02054a001eeca5
:02054b001eeca4
:02054c001eeca3
:02054d001eeba3
:02054e001eeba2
:02054f001eeaa2
:020550001eeaa1
:020551001eeaa0
:020552001ee9a0
:020553001ee99f
:020554001ee89f
:020555001ee89e
:020556001ee89d
:020557001ee79d
:020558001ee79c
:020559001ee69c
:02055a001ee69b
:02055b001ee69a
:02055c001ee59a
:02055d001ee599
:02055e001ee499
:02055f001ee498
:020560001ee497
:020561001ee397
:020562001ee396
:020563001ee296
:020564001ee295
:020565001ee195
:020566001ee194
:020567001ee193
:020568001ee093
:020569001ee092
:02056a001edf92
:02056b001edf91
:02056c001edf90
:02056d001ede90
:02056e001ede8f
:02056f001edd8f
:020570001edd8e
:020571001edd8d
:020572001edc8d
:020573001edc8c
:020574001edb8c
:020575001edb8b
:020576001eda8b
:020577001eda8a
:020578001eda89
:020579001ed989
:02057a001ed988
:02057b001ed888
:02057c001ed887
:02057d001ed886
:02057e001ed786
:02057f001ed785
:020580001ed685
:020581001ed684
:020582001ed584
:020583001ed583
:020584001ed582
:020585001ed482
:020586001ed481
:020587001ed381
:020588001ed380
:020589001ed37f
:02058a001ed27f
:02058b001ed27e
:02058c001ed17e
:02058d001ed17d
:02058e001ed07d
:02058f001ed07c
:020590001ed07b
:020591001ecf7b
:020592001ecf7a
:020593001ece7a
:020594001ece79
:020595001ecd79
:020596001ecd78
:020597001ecd77
:020598001ecc77
:020599001ecc76
:02059a001ecb76
:02059b001ecb75
:02059c001eca75
:02059d001eca74
:02059e001eca73
:02059f001ec973
:0205a0001ec972
:0205a1001ec872
:0205a2001ec871
:0205a3001ec771
:0205a4001ec770
:0205a5001ec76f
:0205a6001ec66f
:0205a7001ec66e
:0205a8001ec56e
:0205a9001ec56d
:0205aa001ec46d
:0205ab001ec46c
:0205ac001ec46b
:0205ad001ec36b
:0205ae001ec36a
:0205af001ec26a
:0205b0001ec269
:0205b1001ec169
:0205b2001ec168
:0205b3001ec167
:0205b4001ec067
:0205b5001ec066
:0205b6001ebf66
:0205b7001ebf65
:0205b8001ebe65
:0205b9001ebe64
:0205ba001ebe63
:0205bb001ebd63
:0205bc001ebd62
:0205bd001ebc62
:0205be001ebc61
:0205bf001ebb61
:0205c0001ebb60
:0205c1001eba60
:0205c2001eba5f
:0205c3001eba5e
:0205c4001eb95e
:0205c5001eb95d
:0205c6001eb85d
:0205c7001eb85c
:0205c8001eb75c
:0205c9001eb75b
:0205ca001eb65b
:0205cb001eb65a
:0205cc001eb659
:0205cd001eb559
:0205ce001eb558
:0205cf001eb458
:0205d0001eb457
:0205d1001eb357
:0205d2001eb356
:0205d3001eb355
:0205d4001eb255
:0205d5001eb254
:0205d6001eb154
:0205d7001eb153
:0205d8001eb053
:0205d9001eb052
:0205da001eaf52
:0205db001eaf51
:0205dc001eaf50
:0205dd001eae50
:0205de001eae4f
:0205df001ead4f
:0205e0001ead4e
:0205e1001eac4e
:0205e2001eac4d
:0205e3001eab4d
:0205e4001eab4c
:0205e5001eab4b
:0205e6001eaa4b
:0205e7001eaa4a
:0205e8001ea94a
:0205e9001ea949
:0205ea001ea849
:0205eb001ea848
:0205ec001ea748
:0205ed001ea747
:0205ee001ea647
:0205ef001ea646
:0205f0001ea645
:0205f1001ea545
:0205f2001ea544
:0205f3001ea444
:0205f4001ea443
:0205f5001ea343
:0205f6001ea342
:0205f7001ea242
:0205f8001ea241
:0205f9001ea141
:0205fa001ea140
:0205fb001ea13f
:0205fc001ea03f
:0205fd001ea03e
:0205fe001e9f3e
:0205ff001e9f3d
:020600001e9e3c
:020601001e9e3b
:020602001e9d3b
:020603001e9d3a
:020604001e9c3a
:020605001e9c39
:020606001e9c38
:020607001e9b38
:020608001e9b37
:020609001e9a37
:02060a001e9a36
:02060b001e9936
:02060c001e9935
:02060d001e9835
:02060e001e9834
:02060f001e9734
:020610001e9733
:020611001e9732
:020612001e9632
:020613001e9631
:020614001e9531
:020615001e9530
:020616001e9430
:020617001e942f
:020618001e932f
:020619001e932e
:02061a001e922e
:02061b001e922d
:02061c001e912d
:02061d001e912c
:02061e001e902c
:02061f001e902b
:020620001e902a
:020621001e8f2a
:020622001e8f29
:020623001e8e29
:020624001e8e28
:020625001e8d28
:020626001e8d27
:020627001e8c27
:020628001e8c26
:020629001e8b26
:02062a001e8b25
:02062b001e8a25
:02062c001e8a24
:02062d001e8924
:02062e001e8923
:02062f001e8922
:020630001e8822
:020631001e8821
:020632001e8721
:020633001e8720
:020634001e8620
:020635001e861f
:020636001e851f
:020637001e851e
:020638001e841e
:020639001e841d
:02063a001e831d
:02063b001e831c
:02063c001e821c
:02063d001e821b
:02063e001e811b
:02063f001e811a
:020640001e8119
:020641001e8019
:020642001e8018
:020643001e7f18
:020644001e7f17
:020645001e7e17
:020646001e7e16
:020647001e7d16
:020648001e7d15
:020649001e7c15
:02064a001e7c14
:02064b001e7b14
:02064c001e7b13
:02064d001e7a13
:02064e001e7a12
:02064f001e7912
:020650001e7911
:020651001e7811
:020652001e7810
:020653001e7710
:020654001e770f
:020655001e770e
:020656001e760e
:020657001e760d
:020658001e750d
:020659001e750c
:02065a001e740c
:02065b001e740b
:02065c001e730b
:02065d001e730a
:02065e001e720a
:02065f001e7209
:020660001e7109
:020661001e7108
:020662001e7008
:020663001e7007
:020664001e6f07
:020665001e6f06
:020666001e6e06
:020667001e6e05
:020668001e6d05
:020669001e6d04
:02066a001e6c04
:02066b001e6c03
:02066c001e6b03
:02066d001e6b02
:02066e001e6a02
:02066f001e6a01
:020670001e6901
:020671001e6900
:020672001e6800
:020673001e68ff
:020674001e67ff
:020675001e67fe
:020676001e66fe
:020677001e66fd
:020678001e66fc
:020679001e65fc
:02067a001e65fb
:02067b001e64fb
:02067c001e64fa
:02067d001e63fa
:02067e001e63f9
:02067f001e62f9
:020680001e62f8
:020681001e61f8
:020682001e61f7
:020683001e60f7
:020684001e60f6
:020685001e5ff6
:020686001e5ff5
:020687001e5ef5
:020688001e5ef4
:020689001e5df4
:02068a001e5df3
:02068b001e5cf3
:02068c001e5cf2
:02068d001e5bf2
:02068e001e5bf1
:02068f001e5af1
:020690001e5af0
:020691001e59f0
:020692001e59ef
:020693001e58ef
:020694001e58ee
:020695001e57ee
:020696001e57ed
:020697001e56ed
:020698001e56ec
:020699001e55ec
:02069a001e55eb
:02069b001e54eb
:02069c001e54ea
:02069d001e53ea
:02069e001e53e9
:02069f001e52e9
:0206a0001e52e8
:0206a1001e51e8
:0206a2001e51e7
:0206a3001e50e7
:0206a4001e50e6
:0206a5001e4fe6
:0206a6001e4fe5
:0206a7001e4ee5
:0206a8001e4ee4
:0206a9001e4de4
:0206aa001e4de3
:0206ab001e4ce3
:0206ac001e4ce2
:0206ad001e4be2
:0206ae001e4be1
:0206af001e4ae1
:0206b0001e4ae0
:0206b1001e49e0
:0206b2001e49df
:0206b3001e48df
:0206b4001e48de
:0206b5001e47de
:0206b6001e47dd
:0206b7001e46dd
:0206b8001e46dc
:0206b9001e45dc
:0206ba001e45db
:0206bb001e44db
:0206bc001e44da
:0206bd001e43da
:0206be001e42da
:0206bf001e42d9
:0206c0001e41d9
:0206c1001e41d8
:0206c2001e40d8
:0206c3001e40d7
:0206c4001e3fd7
:0206c5001e3fd6
:0206c6001e3ed6
:0206c7001e3ed5
:0206c8001e3dd5
:0206c9001e3dd4
:0206ca001e3cd4
:0206cb001e3cd3
:0206cc001e3bd3
:0206cd001e3bd2
:0206ce001e3ad2
:0206cf001e3ad1
:0206d0001e39d1
:0206d1001e39d0
:0206d2001e38d0
:0206d3001e38cf
:0206d4001e37cf
:0206d5001e37ce
:0206d6001e36ce
:0206d7001e36cd
:0206d8001e35cd
:0206d9001e35cc
:0206da001e34cc
:0206db001e34cb
:0206dc001e33cb
:0206dd001e33ca
:0206de001e32ca
:0206df001e31ca
:0206e0001e31c9
:0206e1001e30c9
:0206e2001e30c8
:0206e3001e2fc8
:0206e4001e2fc7
:0206e5001e2ec7
:0206e6001e2ec6
:0206e7001e2dc6
:0206e8001e2dc5
:0206e9001e2cc5
:0206ea001e2cc4
:0206eb001e2bc4
:0206ec001e2bc3
:0206ed001e2ac3
:0206ee001e2ac2
:0206ef001e29c2
:0206f0001e29c1
:0206f1001e28c1
:0206f2001e28c0
:0206f3001e27c0
:0206f4001e27bf
:0206f5001e26bf
:0206f6001e25bf
:0206f7001e25be
:0206f8001e24be
:0206f9001e24bd
:0206fa001e23bd
:0206fb001e23bc
:0206fc001e22bc
:0206fd001e22bb
:0206fe001e21bb
:0206ff001e21ba
:020700001e20b9
:020701001e20b8
:020702001e1fb8
:020703001e1fb7
:020704001e1eb7
:020705001e1eb6
:020706001e1db6
:020707001e1cb6
:020708001e1cb5
:020709001e1bb5
:02070a001e1bb4
:02070b001e1ab4
:02070c001e1ab3
:02070d001e19b3
:02070e001e19b2
:02070f001e18b2
:020710001e18b1
:020711001e17b1
:020712001e17b0
:020713001e16b0
:020714001e16af
:020715001e15af
:020716001e14af
:020717001e14ae
:020718001e13ae
:020719001e13ad
:02071a001e12ad
:02071b001e12ac
:02071c001e11ac
:02071d001e11ab
:02071e001e10ab
:02071f001e10aa
:020720001e0faa
:020721001e0fa9
:020722001e0ea9
:020723001e0da9
:020724001e0da8
:020725001e0ca8
:020726001e0ca7
:020727001e0ba7
:020728001e0ba6
:020729001e0aa6
:02072a001e0aa5
:02072b001e09a5
:02072c001e09a4
:02072d001e08a4
:02072e001e08a3
:02072f001e07a3
:020730001e06a3
:020731001e06a2
:020732001e05a2
:020733001e05a1
:020734001e04a1
:020735001e04a0
:020736001e03a0
:020737001e039f
:020738001e029f
:020739001e029e
:02073a001e019e
:02073b001e009e
:02073c001e009d
:02073d001dff9e
:02073e001dff9d
:02073f001dfe9d
:020740001dfe9c
:020741001dfd9c
:020742001dfd9b
:020743001dfc9b
:020744001dfc9a
:020745001dfb9a
:020746001dfa9a
:020747001dfa99
:020748001df999
:020749001df998
:02074a001df898
:02074b001df897
:02074c001df797
:02074d001df796
:02074e001df696
:02074f001df695
:020750001df595
:020751001df495
:020752001df494
:020753001df394
:020754001df393
:020755001df293
:020756001df292
:020757001df192
:020758001df191
:020759001df091
:02075a001def91
:02075b001def90
:02075c001dee90
:02075d001dee8f
:02075e001ded8f
:02075f001ded8e
:020760001dec8e
:020761001dec8d
:020762001deb8d
:020763001dea8d
:020764001dea8c
:020765001de98c
:020766001de98b
:020767001de88b
:020768001de88a
:020769001de78a
:02076a001de789
:02076b001de689
:02076c001de589
:02076d001de588
:02076e001de488
:02076f001de487
:020770001de387
:020771001de386
:020772001de286
:020773001de186
:020774001de185
:020775001de085
:020776001de084
:020777001ddf84
:020778001ddf83
:020779001dde83
:02077a001dde82
:02077b001ddd82
:02077c001ddc82
:02077d001ddc81
:02077e001ddb81
:02077f001ddb80
:020780001dda80
:020781001dda7f
:020782001dd97f
:020783001dd87f
:020784001dd87e
:020785001dd77e
:020786001dd77d
:020787001dd67d
:020788001dd67c
:020789001dd57c
:02078a001dd47c
:02078b001dd47b
:02078c001dd37b
:02078d001dd37a
:02078e001dd27a
:02078f001dd279
:020790001dd179
:020791001dd079
:020792001dd078
:020793001dcf78
:020794001dcf77
:020795001dce77
:020796001dce76
:020797001dcd76
:020798001dcc76
:020799001dcc75
:02079a001dcb75
:02079b001dcb74
:02079c001dca74
:02079d001dca73
:02079e001dc973
:02079f001dc873
:0207a0001dc872
:0207a1001dc772
:0207a2001dc771
:0207a3001dc671
:0207a4001dc670
:0207a5001dc570
:0207a6001dc470
:0207a7001dc46f
:0207a8001dc36f
:0207a9001dc36e
:0207aa001dc26e
:0207ab001dc26d
:0207ac001dc16d
:0207ad001dc06d
:0207ae001dc06c
:0207af001dbf6c
:0207b0001dbf6b
:0207b1001dbe6b
:0207b2001dbe6a
:0207b3001dbd6a
:0207b4001dbc6a
:0207b5001dbc69
:0207b6001dbb69
:0207b7001dbb68
:0207b8001dba68
:0207b9001db968
:0207ba001db967
:0207bb001db867
:0207bc001db866
:0207bd001db766
:0207be001db765
:0207bf001db665
:0207c0001db565
:0207c1001db564
:0207c2001db464
:0207c3001db463
:0207c4001db363
:0207c5001db263
:0207c6001db262
:0207c7001db162
:0207c8001db161
:0207c9001db061
:0207ca001db060
:0207cb001daf60
:0207cc001dae60
:0207cd001dae5f
:0207ce001dad5f
:0207cf001dad5e
:0207d0001dac5e
:0207d1001dab5e
:0207d2001dab5d
:0207d3001daa5d
:0207d4001daa5c
:0207d5001da95c
:0207d6001da85c
:0207d7001da85b
:0207d8001da75b
:0207d9001da75a
:0207da001da65a
:0207db001da659
:0207dc001da559
:0207dd001da459
:0207de001da458
:0207df001da358
:0207e0001da357
:0207e1001da257
:0207e2001da157
:0207e3001da156
:0207e4001da056
:0207e5001da055
:0207e6001d9f55
:0207e7001d9e55
:0207e8001d9e54
:0207e9001d9d54
:0207ea001d9d53
:0207eb001d9c53
:0207ec001d9b53
:0207ed001d9b52
:0207ee001d9a52
:0207ef001d9a51
:0207f0001d9951
:0207f1001d9851
:0207f2001d9850
:0207f3001d9750
:0207f4001d974f
:0207f5001d964f
:0207f6001d954f
:0207f7001d954e
:0207f8001d944e
:0207f9001d944d
:0207fa001d934d
:0207fb001d924d
:0207fc001d924c
:0207fd001d914c
:0207fe001d914b
:0207ff001d904b
:020800001d8f4a
:020801001d8f49
:020802001d8e49
:020803001d8e48
:020804001d8d48
:020805001d8c48
:020806001d8c47
:020807001d8b47
:020808001d8b46
:020809001d8a46
:02080a001d8946
:02080b001d8945
:02080c001d8845
:02080d001d8844
:02080e001d8744
:02080f001d8644
:020810001d8643
:020811001d8543
:020812001d8542
:020813001d8442
:020814001d8342
:020815001d8341
:020816001d8241
:020817001d8240
:020818001d8140
:020819001d8040
:02081a001d803f
:02081b001d7f3f
:02081c001d7f3e
:02081d001d7e3e
:02081e001d7d3e
:02081f001d7d3d
:020820001d7c3d
:020821001d7c3c
:020822001d7b3c
:020823001d7a3c
:020824001d7a3b
:020825001d793b
:020826001d783b
:020827001d783a
:020828001d773a
:020829001d7739
:02082a001d7639
:02082b001d7539
:02082c001d7538
:02082d001d7438
:02082e001d7437
:02082f001d7337
:020830001d7237
:020831001d7236
:020832001d7136
:020833001d7036
:020834001d7035
:020835001d6f35
:020836001d6f34
:020837001d6e34
:020838001d6d34
:020839001d6d33
:02083a001d6c33
:02083b001d6c32
:02083c001d6b32
:02083d001d6a32
:02083e001d6a31
:02083f001d6931
:020840001d6831
:020841001d6830
:020842001d6730
:020843001d672f
:020844001d662f
:020845001d652f
:020846001d652e
:020847001d642e
:020848001d642d
:020849001d632d
:02084a001d622d
:02084b001d622c
:02084c001d612c
:02084d001d602c
:02084e001d602b
:02084f001d5f2b
:020850001d5f2a
:020851001d5e2a
:020852001d5d2a
:020853001d5d29
:020854001d5c29
:020855001d5b29
:020856001d5b28
:020857001d5a28
:020858001d5a27
:020859001d5927
:02085a001d5827
:02085b001d5826
:02085c001d5726
:02085d001d5626
:02085e001d5625
:02085f001d5525
:020860001d5524
:020861001d5424
:020862001d5324
:020863001d5323
:020864001d5223
:020865001d5123
:020866001d5122
:020867001d5022
:020868001d4f22
:020869001d4f21
:02086a001d4e21
:02086b001d4e20
:02086c001d4d20
:02086d001d4c20
:02086e001d4c1f
:02086f001d4b1f
:020870001d4a1f
:020871001d4a1e
:020872001d491e
:020873001d491d
:020874001d481d
:020875001d471d
:020876001d471c
:020877001d461c
:020878001d451c
:020879001d451b
:02087a001d441b
:02087b001d431b
:02087c001d431a
:02087d001d421a
:02087e001d4219
:02087f001d4119
:020880001d4019
:020881001d4018
:020882001d3f18
:020883001d3e18
:020884001d3e17
:020885001d3d17
:020886001d3c17
:020887001d3c16
:020888001d3b16
:020889001d3b15
:02088a001d3a15
:02088b001d3915
:02088c001d3914
:02088d001d3814
:02088e001d3714
:02088f001d3713
:020890001d3613
:020891001d3513
:020892001d3512
:020893001d3412
:020894001d3411
:020895001d3311
:020896001d3211
:020897001d3210
:020898001d3110
:020899001d3010
:02089a001d300f
:02089b001d2f0f
:02089c001d2e0f
:02089d001d2e0e
:02089e001d2d0e
:02089f001d2c0e
:0208a0001d2c0d
:0208a1001d2b0d
:0208a2001d2a0d
:0208a3001d2a0c
:0208a4001d290c
:0208a5001d290b
:0208a6001d280b
:0208a7001d270b
:0208a8001d270a
:0208a9001d260a
:0208aa001d250a
:0208ab001d2509
:0208ac001d2409
:0208ad001d2309
:0208ae001d2308
:0208af001d2208
:0208b0001d2108
:0208b1001d2107
:0208b2001d2007
:0208b3001d1f07
:0208b4001d1f06
:0208b5001d1e06
:0208b6001d1e05
:0208b7001d1d05
:0208b8001d1c05
:0208b9001d1c04
:0208ba001d1b04
:0208bb001d1a04
:0208bc001d1a03
:0208bd001d1903
:0208be001d1803
:0208bf001d1802
:0208c0001d1702
:0208c1001d1602
:0208c2001d1601
:0208c3001d1501
:0208c4001d1401
:0208c5001d1400
:0208c6001d1300
:0208c7001d1200
:0208c8001d12ff
:0208c9001d11ff
:0208ca001d10ff
:0208cb001d10fe
:0208cc001d0ffe
:0208cd001d0efe
:0208ce001d0efd
:0208cf001d0dfd
:0208d0001d0cfd
:0208d1001d0cfc
:0208d2001d0bfc
:0208d3001d0bfb
:0208d4001d0afb
:0208d5001d09fb
:0208d6001d09fa
:0208d7001d08fa
:0208d8001d07fa
:0208d9001d07f9
:0208da001d06f9
:0208db001d05f9
:0208dc001d05f8
:0208dd001d04f8
:0208de001d03f8
:0208df001d03f7
:0208e0001d02f7
:0208e1001d01f7
:0208e2001d01f6
:0208e3001d00f6
:0208e4001cfff7
:0208e5001cfff6
:0208e6001cfef6
:0208e7001cfdf6
:0208e8001cfdf5
:0208e9001cfcf5
:0208ea001cfbf5
:0208eb001cfbf4
:0208ec001cfaf4
:0208ed001cf9f4
:0208ee001cf9f3
:0208ef001cf8f3
:0208f0001cf7f3
:0208f1001cf7f2
:0208f2001cf6f2
:0208f3001cf5f2
:0208f4001cf5f1
:0208f5001cf4f1
:0208f6001cf3f1
:0208f7001cf3f0
:0208f8001cf2f0
:0208f9001cf1f0
:0208fa001cf1ef
:0208fb001cf0ef
:0208fc001cefef
:0208fd001cefee
:0208fe001ceeee
:0208ff001cedee
:020900001cedec
:020901001cecec
:020902001cebec
:020903001cebeb
:020904001ceaeb
:020905001ce9eb
:020906001ce9ea
:020907001ce8ea
:020908001ce7ea
:020909001ce7e9
:02090a001ce6e9
:02090b001ce5e9
:02090c001ce4e9
:02090d001ce4e8
:02090e001ce3e8
:02090f001ce2e8
:020910001ce2e7
:020911001ce1e7
:020912001ce0e7
:020913001ce0e6
:020914001cdfe6
:020915001cdee6
:020916001cdee5
:020917001cdde5
:020918001cdce5
:020919001cdce4
:02091a001cdbe4
:02091b001cdae4
:02091c001cdae3
:02091d001cd9e3
:02091e001cd8e3
:02091f001cd8e2
:020920001cd7e2
:020921001cd6e2
:020922001cd6e1
:020923001cd5e1
:020924001cd4e1
:020925001cd4e0
:020926001cd3e0
:020927001cd2e0
:020928001cd1e0
:020929001cd1df
:02092a001cd0df
:02092b001ccfdf
:02092c001ccfde
:02092d001ccede
:02092e001ccdde
:02092f001ccddd
:020930001cccdd
:020931001ccbdd
:020932001ccbdc
:020933001ccadc
:020934001cc9dc
:020935001cc9db
:020936001cc8db
:020937001cc7db
:020938001cc7da
:020939001cc6da
:02093a001cc5da
:02093b001cc4da
:02093c001cc4d9
:02093d001cc3d9
:02093e001cc2d9
:02093f001cc2d8
:020940001cc1d8
:020941001cc0d8
:020942001cc0d7
:020943001cbfd7
:020944001cbed7
:020945001cbed6
:020946001cbdd6
:020947001cbcd6
:020948001cbcd5
:020949001cbbd5
:02094a001cbad5
:02094b001cb9d5
:02094c001cb9d4
:02094d001cb8d4
:02094e001cb7d4
:02094f001cb7d3
:020950001cb6d3
:020951001cb5d3
:020952001cb5d2
:020953001cb4d2
:020954001cb3d2
:020955001cb3d1
:020956001cb2d1
:020957001cb1d1
:020958001cb0d1
:020959001cb0d0
:02095a001cafd0
:02095b001caed0
:02095c001caecf
:02095d001cadcf
:02095e001caccf
:02095f001cacce
:020960001cabce
:020961001caace
:020962001ca9ce
:020963001ca9cd
:020964001ca8cd
:020965001ca7cd
:020966001ca7cc
:020967001ca6cc
:020968001ca5cc
:020969001ca5cb
:02096a001ca4cb
:02096b001ca3cb
:02096c001ca2cb
:02096d001ca2ca
:02096e001ca1ca
:02096f001ca0ca
:020970001ca0c9
:020971001c9fc9
:020972001c9ec9
:020973001c9ec8
:020974001c9dc8
:020975001c9cc8
:020976001c9bc8
:020977001c9bc7
:020978001c9ac7
:020979001c99c7
:02097a001c99c6
:02097b001c98c6
:02097c001c97c6
:02097d001c97c5
:02097e001c96c5
:02097f001c95c5
:020980001c94c5
:020981001c94c4
:020982001c93c4
:020983001c92c4
:020984001c92c3
:020985001c91c3
:020986001c90c3
:020987001c8fc3
:020988001c8fc2
:020989001c8ec2
:02098a001c8dc2
:02098b001c8dc1
:02098c001c8cc1
:02098d001c8bc1
:02098e001c8ac1
:02098f001c8ac0
:020990001c89c0
:020991001c88c0
:020992001c88bf
:020993001c87bf
:020994001c86bf
:020995001c86be
:020996001c85be
:020997001c84be
:020998001c83be
:020999001c83bd
:02099a001c82bd
:02099b001c81bd
:02099c001c81bc
:02099d001c80bc
:02099e001c7fbc
:02099f001c7ebc
:0209a0001c7ebb
:0209a1001c7dbb
:0209a2001c7cbb
:0209a3001c7cba
:0209a4001c7bba
:0209a5001c7aba
:0209a6001c79ba
:0209a7001c79b9
:0209a8001c78b9
:0209a9001c77b9
:0209aa001c77b8
:0209ab001c76b8
:0209ac001c75b8
:0209ad001c74b8
:0209ae001c74b7
:0209af001c73b7
:0209b0001c72b7
:0209b1001c71b7
:0209b2001c71b6
:0209b3001c70b6
:0209b4001c6fb6
:0209b5001c6fb5
:0209b6001c6eb5
:0209b7001c6db5
:0209b8001c6cb5
:0209b9001c6cb4
:0209ba001c6bb4
:0209bb001c6ab4
:0209bc001c6ab3
:0209bd001c69b3
:0209be001c68b3
:0209bf001c67b3
:0209c0001c67b2
:0209c1001c66b2
:0209c2001c65b2
:0209c3001c64b2
:0209c4001c64b1
:0209c5001c63b1
:0209c6001c62b1
:0209c7001c62b0
:0209c8001c61b0
:0209c9001c60b0
:0209ca001c5fb0
:0209cb001c5faf
:0209cc001c5eaf
:0209cd001c5daf
:0209ce001c5dae
:0209cf001c5cae
:0209d0001c5bae
:0209d1001c5aae
:0209d2001c5aad
:0209d3001c59ad
:0209d4001c58ad
:0209d5001c57ad
:0209d6001c57ac
:0209d7001c56ac
:0209d8001c55ac
:0209d9001c54ac
:0209da001c54ab
:0209db001c53ab
:0209dc001c52ab
:0209dd001c52aa
:0209de001c51aa
:0209df001c50aa
:0209e0001c4faa
:0209e1001c4fa9
:0209e2001c4ea9
:0209e3001c4da9
:0209e4001c4ca9
:0209e5001c4ca8
:0209e6001c4ba8
:0209e7001c4aa8
:0209e8001c4aa7
:0209e9001c49a7
:0209ea001c48a7
:0209eb001c47a7
:0209ec001c47a6
:0209ed001c46a6
:0209ee001c45a6
:0209ef001c44a6
:0209f0001c44a5
:0209f1001c43a5
:0209f2001c42a5
:0209f3001c41a5
:0209f4001c41a4
:0209f5001c40a4
:0209f6001c3fa4
:0209f7001c3ea4
:0209f8001c3ea3
:0209f9001c3da3
:0209fa001c3ca3
:0209fb001c3ca2
:0209fc001c3ba2
:0209fd001c3aa2
:0209fe001c39a2
:0209ff001c39a1
:020a00001c38a0
:020a01001c37a0
:020a02001c36a0
:020a03001c369f
:020a04001c359f
:020a05001c349f
:020a06001c339f
:020a07001c339e
:020a08001c329e
:020a09001c319e
:020a0a001c309e
:020a0b001c309d
:020a0c001c2f9d
:020a0d001c2e9d
:020a0e001c2d9d
:020a0f001c2d9c
:020a10001c2c9c
:020a11001c2b9c
:020a12001c2a9c
:020a13001c2a9b
:020a14001c299b
:020a15001c289b
:020a16001c279b
:020a17001c279a
:020a18001c269a
:020a19001c259a
:020a1a001c249a
:020a1b001c2499
:020a1c001c2399
:020a1d001c2299
:020a1e001c2199
:020a1f001c2198
:020a20001c2098
:020a21001c1f98
:020a22001c1e98
:020a23001c1e97
:020a24001c1d97
:020a25001c1c97
:020a26001c1b97
:020a27001c1b96
:020a28001c1a96
:020a29001c1996
:020a2a001c1896
:020a2b001c1895
:020a2c001c1795
:020a2d001c1695
:020a2e001c1595
:020a2f001c1594
:020a30001c1494
:020a31001c1394
:020a32001c1294
:020a33001c1293
:020a34001c1193
:020a35001c1093
:020a36001c0f93
:020a37001c0f92
:020a38001c0e92
:020a39001c0d92
:020a3a001c0c92
:020a3b001c0c91
:020a3c001c0b91
:020a3d001c0a91
:020a3e001c0991
:020a3f001c0990
:020a40001c0890
:020a41001c0790
:020a42001c0690
:020a43001c068f
:020a44001c058f
:020a45001c048f
:020a46001c038f
:020a47001c038e
:020a48001c028e
:020a49001c018e
:020a4a001c008e
:020a4b001c008d
:020a4c001bff8e
:020a4d001bfe8e
:020a4e001bfd8e
:020a4f001bfd8d
:020a50001bfc8d
:020a51001bfb8d
:020a52001bfa8d
:020a53001bf98d
:020a54001bf98c
:020a55001bf88c
:020a56001bf78c
:020a57001bf68c
:020a58001bf68b
:020a59001bf58b
:020a5a001bf48b
:020a5b001bf38b
:020a5c001bf38a
:020a5d001bf28a
:020a5e001bf18a
:020a5f001bf08a
:020a60001bf089
:020a61001bef89
:020a62001bee89
:020a63001bed89
:020a64001bec89
:020a65001bec88
:020a66001beb88
:020a67001bea88
:020a68001be988
:020a69001be987
:020a6a001be887
:020a6b001be787
:020a6c001be687
:020a6d001be686
:020a6e001be586
:020a6f001be486
:020a70001be386
:020a71001be286
:020a72001be285
:020a73001be185
:020a74001be085
:020a75001bdf85
:020a76001bdf84
:020a77001bde84
:020a78001bdd84
:020a79001bdc84
:020a7a001bdc83
:020a7b001bdb83
:020a7c001bda83
:020a7d001bd983
:020a7e001bd883
:020a7f001bd882
:020a80001bd782
:020a81001bd682
:020a82001bd582
:020a83001bd581
:020a84001bd481
:020a85001bd381
:020a86001bd281
:020a87001bd181
:020a88001bd180
:020a89001bd080
:020a8a001bcf80
:020a8b001bce80
:020a8c001bce7f
:020a8d001bcd7f
:020a8e001bcc7f
:020a8f001bcb7f
:020a90001bca7f
:020a91001bca7e
:020a92001bc97e
:020a93001bc87e
:020a94001bc77e
:020a95001bc77d
:020a96001bc67d
:020a97001bc57d
:020a98001bc47d
:020a99001bc37d
:020a9a001bc37c
:020a9b001bc27c
:020a9c001bc17c
:020a9d001bc07c
:020a9e001bc07b
:020a9f001bbf7b
:020aa0001bbe7b
:020aa1001bbd7b
:020aa2001bbc7b
:020aa3001bbc7a
:020aa4001bbb7a
:020aa5001bba7a
:020aa6001bb97a
:020aa7001bb87a
:020aa8001bb879
:020aa9001bb779
:020aaa001bb679
:020aab001bb579
:020aac001bb578
:020aad001bb478
:020aae001bb378
:020aaf001bb278
:020ab0001bb178
:020ab1001bb177
:020ab2001bb077
:020ab3001baf77
:020ab4001bae77
:020ab5001bad77
:020ab6001bad76
:020ab7001bac76
:020ab8001bab76
:020ab9001baa76
:020aba001baa75
:020abb001ba975
:020abc001ba875
:020abd001ba775
:020abe001ba675
:020abf001ba674
:020ac0001ba574
:020ac1001ba474
:020ac2001ba374
:020ac3001ba274
:020ac4001ba273
:020ac5001ba173
:020ac6001ba073
:020ac7001b9f73
:020ac8001b9e73
:020ac9001b9e72
:020aca001b9d72
:020acb001b9c72
:020acc001b9b72
:020acd001b9a72
:020ace001b9a71
:020acf001b9971
:020ad0001b9871
:020ad1001b9771
:020ad2001b9770
:020ad3001b9670
:020ad4001b9570
:020ad5001b9470
:020ad6001b9370
:020ad7001b936f
:020ad8001b926f
:020ad9001b916f
:020ada001b906f
:020adb001b8f6f
:020adc001b8f6e
:020add001b8e6e
:020ade001b8d6e
:020adf001b8c6e
:020ae0001b8b6e
:020ae1001b8b6d
:020ae2001b8a6d
:020ae3001b896d
:020ae4001b886d
:020ae5001b876d
:020ae6001b876c
:020ae7001b866c
:020ae8001b856c
:020ae9001b846c
:020aea001b836c
:020aeb001b836b
:020aec001b826b
:020aed001b816b
:020aee001b806b
:020aef001b7f6b
:020af0001b7f6a
:020af1001b7e6a
:020af2001b7d6a
:020af3001b7c6a
:020af4001b7b6a
:020af5001b7b69
:020af6001b7a69
:020af7001b7969
:020af8001b7869
:020af9001b7769
:020afa001b7669
:020afb001b7668
:020afc001b7568
:020afd001b7468
:020afe001b7368
:020aff001b7268
:020b00001b7266
:020b01001b7166
:020b02001b7066
:020b03001b6f66
:020b04001b6e66
:020b05001b6e65
:020b06001b6d65
:020b07001b6c65
:020b08001b6b65
:020b09001b6a65
:020b0a001b6a64
:020b0b001b6964
:020b0c001b6864
:020b0d001b6764
:020b0e001b6664
:020b0f001b6663
:020b10001b6563
:020b11001b6463
:020b12001b6363
:020b13001b6263
:020b14001b6163
:020b15001b6162
:020b16001b6062
:020b17001b5f62
:020b18001b5e62
:020b19001b5d62
:020b1a001b5d61
:020b1b001b5c61
:020b1c001b5b61
:020b1d001b5a61
:020b1e001b5961
:020b1f001b5960
:020b20001b5860
:020b21001b5760
:020b22001b5660
:020b23001b5560
:020b24001b5460
:020b25001b545f
:020b26001b535f
:020b27001b525f
:020b28001b515f
:020b29001b505f
:020b2a001b505e
:020b2b001b4f5e
:020b2c001b4e5e
:020b2d001b4d5e
:020b2e001b4c5e
:020b2f001b4b5e
:020b30001b4b5d
:020b31001b4a5d
:020b32001b495d
:020b33001b485d
:020b34001b475d
:020b35001b465d
:020b36001b465c
:020b37001b455c
:020b38001b445c
:020b39001b435c
:020b3a001b425c
:020b3b001b425b
:020b3c001b415b
:020b3d001b405b
:020b3e001b3f5b
:020b3f001b3e5b
:020b40001b3d5b
:020b41001b3d5a
:020b42001b3c5a
:020b43001b3b5a
:020b44001b3a5a
:020b45001b395a
:020b46001b3959
:020b47001b3859
:020b48001b3759
:020b49001b3659
:020b4a001b3559
:020b4b001b3459
:020b4c001b3458
:020b4d001b3358
:020b4e001b3258
:020b4f001b3158
:020b50001b3058
:020b51001b2f58
:020b52001b2f57
:020b53001b2e57
:020b54001b2d57
:020b55001b2c57
:020b56001b2b57
:020b57001b2a57
:020b58001b2a56
:020b59001b2956
:020b5a001b2856
:020b5b001b2756
:020b5c001b2656
:020b5d001b2556
:020b5e001b2555
:020b5f001b2455
:020b60001b2355
:020b61001b2255
:020b62001b2155
:020b63001b2055
:020b64001b2054
:020b65001b1f54
:020b66001b1e54
:020b67001b1d54
:020b68001b1c54
:020b69001b1b54
:020b6a001b1b53
:020b6b001b1a53
:020b6c001b1953
:020b6d001b1853
:020b6e001b1753
:020b6f001b1653
:020b70001b1652
:020b71001b1552
:020b72001b1452
:020b73001b1352
:020b74001b1252
:020b75001b1152
:020b76001b1151
:020b77001b1051
:020b78001b0f51
:020b79001b0e51
:020b7a001b0d51
:020b7b001b0c51
:020b7c001b0c50
:020b7d001b0b50
:020b7e001b0a50
:020b7f001b0950
:020b80001b0850
:020b81001b0750
:020b82001b074f
:020b83001b064f
:020b84001b054f
:020b85001b044f
:020b86001b034f
:020b87001b024f
:020b88001b014f
:020b89001b014e
:020b8a001b004e
:020b8b001aff4f
:020b8c001afe4f
:020b8d001afd4f
:020b8e001afc4f
:020b8f001afc4e
:020b90001afb4e
:020b91001afa4e
:020b92001af94e
:020b93001af84e
:020b94001af74e
:020b95001af64e
:020b96001af64d
:020b97001af54d
:020b98001af44d
:020b99001af34d
:020b9a001af24d
:020b9b001af14d
:020b9c001af14c
:020b9d001af04c
:020b9e001aef4c
:020b9f001aee4c
:020ba0001aed4c
:020ba1001aec4c
:020ba2001aeb4c
:020ba3001aeb4b
:020ba4001aea4b
:020ba5001ae94b
:020ba6001ae84b
:020ba7001ae74b
:020ba8001ae64b
:020ba9001ae64a
:020baa001ae54a
:020bab001ae44a
:020bac001ae34a
:020bad001ae24a
:020bae001ae14a
:020baf001ae04a
:020bb0001ae049
:020bb1001adf49
:020bb2001ade49
:020bb3001add49
:020bb4001adc49
:020bb5001adb49
:020bb6001ada49
:020bb7001ada48
:020bb8001ad948
:020bb9001ad848
:020bba001ad748
:020bbb001ad648
:020bbc001ad548
:020bbd001ad448
:020bbe001ad447
:020bbf001ad347
:020bc0001ad247
:020bc1001ad147
:020bc2001ad047
:020bc3001acf47
:020bc4001ace47
:020bc5001ace46
:020bc6001acd46
:020bc7001acc46
:020bc8001acb46
:020bc9001aca46
:020bca001ac946
:020bcb001ac846
:020bcc001ac845
:020bcd001ac745
:020bce001ac645
:020bcf001ac545
:020bd0001ac445
:020bd1001ac345
:020bd2001ac245
:020bd3001ac244
:020bd4001ac144
:020bd5001ac044
:020bd6001abf44
:020bd7001abe44
:020bd8001abd44
:020bd9001abc44
:020bda001abc43
:020bdb001abb43
:020bdc001aba43
:020bdd001ab943
:020bde001ab843
:020bdf001ab743
:020be0001ab643
:020be1001ab543
:020be2001ab542
:020be3001ab442
:020be4001ab342
:020be5001ab242
:020be6001ab142
:020be7001ab042
:020be8001aaf42
:020be9001aaf41
:020bea001aae41
:020beb001aad41
:020bec001aac41
:020bed001aab41
:020bee001aaa41
:020bef001aa941
:020bf0001aa841
:020bf1001aa840
:020bf2001aa740
:020bf3001aa640
:020bf4001aa540
:020bf5001aa440
:020bf6001aa340
:020bf7001aa240
:020bf8001aa23f
:020bf9001aa13f
:020bfa001aa03f
:020bfb001a9f3f
:020bfc001a9e3f
:020bfd001a9d3f
:020bfe001a9c3f
:020bff001a9b3f
:020c00001a9b3d
:020c01001a9a3d
:020c02001a993d
:020c03001a983d
:020c04001a973d
:020c05001a963d
:020c06001a953d
:020c07001a943d
:020c08001a943c
:020c09001a933c
:020c0a001a923c
:020c0b001a913c
:020c0c001a903c
:020c0d001a8f3c
:020c0e001a8e3c
:020c0f001a8d3c
:020c10001a8d3b
:020c11001a8c3b
:020c12001a8b3b
:020c13001a8a3b
:020c14001a893b
:020c15001a883b
:020c16001a873b
:020c17001a863b
:020c18001a863a
:020c19001a853a
:020c1a001a843a
:020c1b001a833a
:020c1c001a823a
:020c1d001a813a
:020c1e001a803a
:020c1f001a7f3a
:020c20001a7f39
:020c21001a7e39
:020c22001a7d39
:020c23001a7c39
:020c24001a7b39
:020c25001a7a39
:020c26001a7939
:020c27001a7839
:020c28001a7739
:020c29001a7738
:020c2a001a7638
:020c2b001a7538
:020c2c001a7438
:020c2d001a7338
:020c2e001a7238
:020c2f001a7138
:020c30001a7038
:020c31001a7037
:020c32001a6f37
:020c33001a6e37
:020c34001a6d37
:020c35001a6c37
:020c36001a6b37
:020c37001a6a37
:020c38001a6937
:020c39001a6837
:020c3a001a6836
:020c3b001a6736
:020c3c001a6636
:020c3d001a6536
:020c3e001a6436
:020c3f001a6336
:020c40001a6236
:020c41001a6136
:020c42001a6036
:020c43001a6035
:020c44001a5f35
:020c45001a5e35
:020c46001a5d35
:020c47001a5c35
:020c48001a5b35
:020c49001a5a35
:020c4a001a5935
:020c4b001a5835
:020c4c001a5834
:020c4d001a5734
:020c4e001a5634
:020c4f001a5534
:020c50001a5434
:020c51001a5334
:020c52001a5234
:020c53001a5134
:020c54001a5034
:020c55001a4f34
:020c56001a4f33
:020c57001a4e33
:020c58001a4d33
:020c59001a4c33
:020c5a001a4b33
:020c5b001a4a33
:020c5c001a4933
:020c5d001a4833
:020c5e001a4733
:020c5f001a4732
:020c60001a4632
:020c61001a4532
:020c62001a4432
:020c63001a4332
:020c64001a4232
:020c65001a4132
:020c66001a4032
:020c67001a3f32
:020c68001a3e32
:020c69001a3e31
:020c6a001a3d31
:020c6b001a3c31
:020c6c001a3b31
:020c6d001a3a31
:020c6e001a3931
:020c6f001a3831
:020c70001a3731
:020c71001a3631
:020c72001a3531
:020c73001a3530
:020c74001a3430
:020c75001a3330
:020c76001a3230
:020c77001a3130
:020c78001a3030
:020c79001a2f30
:020c7a001a2e30
:020c7b001a2d30
:020c7c001a2c30
:020c7d001a2c2f
:020c7e001a2b2f
:020c7f001a2a2f
:020c80001a292f
:020c81001a282f
:020c82001a272f
:020c83001a262f
:020c84001a252f
:020c85001a242f
:020c86001a232f
:020c87001a232e
:020c88001a222e
:020c89001a212e
:020c8a001a202e
:020c8b001a1f2e
:020c8c001a1e2e
:020c8d001a1d2e
:020c8e001a1c2e
:020c8f001a1b2e
:020c90001a1a2e
:020c91001a192e
:020c92001a192d
:020c93001a182d
:020c94001a172d
:020c95001a162d
:020c96001a152d
:020c97001a142d
:020c98001a132d
:020c99001a122d
:020c9a001a112d
:020c9b001a102d
:020c9c001a0f2d
:020c9d001a0f2c
:020c9e001a0e2c
:020c9f001a0d2c
:020ca0001a0c2c
:020ca1001a0b2c
:020ca2001a0a2c
:020ca3001a092c
:020ca4001a082c
:020ca5001a072c
:020ca6001a062c
:020ca7001a052c
:020ca8001a042c
:020ca9001a042b
:020caa001a032b
:020cab001a022b
:020cac001a012b
:020cad001a002b
:020cae0019ff2c
:020caf0019fe2c
:020cb00019fd2c
:020cb10019fc2c
:020cb20019fb2c
:020cb30019fa2c
:020cb40019f92c
:020cb50019f92b
:020cb60019f82b
:020cb70019f72b
:020cb80019f62b
:020cb90019f52b
:020cba0019f42b
:020cbb0019f32b
:020cbc0019f22b
:020cbd0019f12b
:020cbe0019f02b
:020cbf0019ef2b
:020cc00019ee2b
:020cc10019ee2a
:020cc20019ed2a
:020cc30019ec2a
:020cc40019eb2a
:020cc50019ea2a
:020cc60019e92a
:020cc70019e82a
:020cc80019e72a
:020cc90019e62a
:020cca0019e52a
:020ccb0019e42a
:020ccc0019e32a
:020ccd0019e22a
:020cce0019e229
:020ccf0019e129
:020cd00019e029
:020cd10019df29
:020cd20019de29
:020cd30019dd29
:020cd40019dc29
:020cd50019db29
:020cd60019da29
:020cd70019d929
:020cd80019d829
:020cd90019d729
:020cda0019d629
:020cdb0019d628
:020cdc0019d528
:020cdd0019d428
:020cde0019d328
:020cdf0019d228
:020ce00019d128
:020ce10019d028
:020ce20019cf28
:020ce30019ce28
:020ce40019cd28
:020ce50019cc28
:020ce60019cb28
:020ce70019ca28
:020ce80019c928
:020ce90019c927
:020cea0019c827
:020ceb0019c727
:020cec0019c627
:020ced0019c527
:020cee0019c427
:020cef0019c327
:020cf00019c227
:020cf10019c127
:020cf20019c027
:020cf30019bf27
:020cf40019be27
:020cf50019bd27
:020cf60019bc27
:020cf70019bb27
:020cf80019bb26
:020cf90019ba26
:020cfa0019b926
:020cfb0019b826
:020cfc0019b726
:020cfd0019b626
:020cfe0019b526
:020cff0019b426
:020d000019b325
:020d010019b225
:020d020019b125
:020d030019b025
:020d040019af25
:020d050019ae25
:020d060019ad25
:020d070019ad24
:020d080019ac24
:020d090019ab24
:020d0a0019aa24
:020d0b0019a924
:020d0c0019a824
:020d0d0019a724
:020d0e0019a624
:020d0f0019a524
:020d100019a424
:020d110019a324
:020d120019a224
:020d130019a124
:020d140019a024
:020d1500199f24
:020d1600199e24
:020d1700199d24
:020d1800199d23
:020d1900199c23
:020d1a00199b23
:020d1b00199a23
:020d1c00199923
:020d1d00199823
:020d1e00199723
:020d1f00199623
:020d2000199523
:020d2100199423
:020d2200199323
:020d2300199223
:020d2400199123
:020d2500199023
:020d2600198f23
:020d2700198e23
:020d2800198d23
:020d2900198d22
:020d2a00198c22
:020d2b00198b22
:020d2c00198a22
:020d2d00198922
:020d2e00198822
:020d2f00198722
:020d3000198622
:020d3100198522
:020d3200198422
:020d3300198322
:020d3400198222
:020d3500198122
:020d3600198022
:020d3700197f22
:020d3800197e22
:020d3900197d22
:020d3a00197c22
:020d3b00197b22
:020d3c00197b21
:020d3d00197a21
:020d3e00197921
:020d3f00197821
:020d4000197721
:020d4100197621
:020d4200197521
:020d4300197421
:020d4400197321
:020d4500197221
:020d4600197121
:020d4700197021
:020d4800196f21
:020d4900196e21
:020d4a00196d21
:020d4b00196c21
:020d4c00196b21
:020d4d00196a21
:020d4e00196921
:020d4f00196821
:020d5000196721
:020d5100196621
:020d5200196620
:020d5300196520
:020d5400196420
:020d5500196320
:020d5600196220
:020d5700196120
:020d5800196020
:020d5900195f20
:020d5a00195e20
:020d5b00195d20
:020d5c00195c20
:020d5d00195b20
:020d5e00195a20
:020d5f00195920
:020d6000195820
:020d6100195720
:020d6200195620
:020d6300195520
:020d6400195420
:020d6500195320
:020d6600195220
:020d6700195120
:020d6800195020
:020d690019501f
:020d6a00194f1f
:020d6b00194e1f
:020d6c00194d1f
:020d6d00194c1f
:020d6e00194b1f
:020d6f00194a1f
:020d700019491f
:020d710019481f
:020d720019471f
:020d730019461f
:020d740019451f
:020d750019441f
:020d760019431f
:020d770019421f
:020d780019411f
:020d790019401f
:020d7a00193f1f
:020d7b00193e1f
:020d7c00193d1f
:020d7d00193c1f
:020d7e00193b1f
:020d7f00193a1f
:020d800019391f
:020d810019381f
:020d820019371f
:020d830019361f
:020d840019351f
:020d850019351e
:020d860019341e
:020d870019331e
:020d880019321e
:020d890019311e
:020d8a0019301e
:020d8b00192f1e
:020d8c00192e1e
:020d8d00192d1e
:020d8e00192c1e
:020d8f00192b1e
:020d9000192a1e
:020d910019291e
:020d920019281e
:020d930019271e
:020d940019261e
:020d950019251e
:020d960019241e
:020d970019231e
:020d980019221e
:020d990019211e
:020d9a0019201e
:020d9b00191f1e
:020d9c00191e1e
:020d9d00191d1e
:020d9e00191c1e
:020d9f00191b1e
:020da000191a1e
:020da10019191e
:020da20019181e
:020da30019171e
:020da40019161e
:020da50019151e
:020da60019141e
:020da70019131e
:020da80019131d
:020da90019121d
:020daa0019111d
:020dab0019101d
:020dac00190f1d
:020dad00190e1d
:020dae00190d1d
:020daf00190c1d
:020db000190b1d
:020db100190a1d
:020db20019091d
:020db30019081d
:020db40019071d
:020db50019061d
:020db60019051d
:020db70019041d
:020db80019031d
:020db90019021d
:020dba0019011d
:020dbb0019001d
:020dbc0018ff1e
:020dbd0018fe1e
:020dbe0018fd1e
:020dbf0018fc1e
:020dc00018fb1e
:020dc10018fa1e
:020dc20018f91e
:020dc30018f81e
:020dc40018f71e
:020dc50018f61e
:020dc60018f51e
:020dc70018f41e
:020dc80018f31e
:020dc90018f21e
:020dca0018f11e
:020dcb0018f01e
:020dcc0018ef1e
:020dcd0018ee1e
:020dce0018ed1e
:020dcf0018ec1e
:020dd00018eb1e
:020dd10018ea1e
:020dd20018e91e
:020dd30018e81e
:020dd40018e71e
:020dd50018e61e
:020dd60018e51e
:020dd70018e41e
:020dd80018e31e
:020dd90018e21e
:020dda0018e11e
:020ddb0018e01e
:020ddc0018df1e
:020ddd0018de1e
:020dde0018dd1e
:020ddf0018dc1e
:020de00018db1e
:020de10018db1d
:020de20018da1d
:020de30018d91d
:020de40018d81d
:020de50018d71d
:020de60018d61d
:020de70018d51d
:020de80018d41d
:020de90018d31d
:020dea0018d21d
:020deb0018d11d
:020dec0018d01d
:020ded0018cf1d
:020dee0018ce1d
:020def0018cd1d
:020df00018cc1d
:020df10018cb1d
:020df20018ca1d
:020df30018c91d
:020df40018c81d
:020df50018c71d
:020df60018c61d
:020df70018c51d
:020df80018c41d
:020df90018c31d
:020dfa0018c21d
:020dfb0018c11d
:020dfc0018c01d
:020dfd0018bf1d
:020dfe0018be1d
:020dff0018bd1d
:020e000018bc1c
:020e010018bb1c
:020e020018ba1c
:020e030018b91c
:020e040018b81c
:020e050018b71c
:020e060018b61c
:020e070018b51c
:020e080018b41c
:020e090018b31c
:020e0a0018b21c
:020e0b0018b11c
:020e0c0018b01c
:020e0d0018af1c
:020e0e0018ae1c
:020e0f0018ad1c
:020e100018ac1c
:020e110018ab1c
:020e120018aa1c
:020e130018a91c
:020e140018a81c
:020e150018a71c
:020e160018a61c
:020e170018a51c
:020e180018a41c
:020e190018a31c
:020e1a0018a21c
:020e1b0018a11c
:020e1c0018a01c
:020e1d00189f1c
:020e1e00189e1c
:020e1f00189d1c
:020e2000189c1c
:020e2100189b1c
:020e2200189a1c
:020e230018991c
:020e240018981c
:020e250018971c
:020e260018961c
:020e270018951c
:020e280018941c
:020e290018931c
:020e2a0018921c
:020e2b0018911c
:020e2c0018901c
:020e2d00188f1c
:020e2e00188e1c
:020e2f00188d1c
:020e3000188c1c
:020e3100188b1c
:020e3200188a1c
:020e330018891c
:020e340018881c
:020e350018871c
:020e360018861c
:020e370018851c
:020e380018841c
:020e390018831c
:020e3a0018821c
:020e3b0018811c
:020e3c0018801c
:020e3d00187f1c
:020e3e00187e1c
:020e3f00187c1d
:020e4000187b1d
:020e4100187a1d
:020e420018791d
:020e430018781d
:020e440018771d
:020e450018761d
:020e460018751d
:020e470018741d
:020e480018731d
:020e490018721d
:020e4a0018711d
:020e4b0018701d
:020e4c00186f1d
:020e4d00186e1d
:020e4e00186d1d
:020e4f00186c1d
:020e5000186b1d
:020e5100186a1d
:020e520018691d
:020e530018681d
:020e540018671d
:020e550018661d
:020e560018651d
:020e570018641d
:020e580018631d
:020e590018621d
:020e5a0018611d
:020e5b0018601d
:020e5c00185f1d
:020e5d00185e1d
:020e5e00185d1d
:020e5f00185c1d
:020e6000185b1d
:020e6100185a1d
:020e620018591d
:020e630018581d
:020e640018571d
:020e650018561d
:020e660018551d
:020e670018541d
:020e680018531d
:020e690018521d
:020e6a0018511d
:020e6b0018501d
:020e6c00184f1d
:020e6d00184e1d
:020e6e00184d1d
:020e6f00184c1d
:020e7000184b1d
:020e7100184a1d
:020e720018491d
:020e730018481d
:020e740018471d
:020e750018461d
:020e760018451d
:020e770018441d
:020e780018421e
:020e790018411e
:020e7a0018401e
:020e7b00183f1e
:020e7c00183e1e
:020e7d00183d1e
:020e7e00183c1e
:020e7f00183b1e
:020e8000183a1e
:020e810018391e
:020e820018381e
:020e830018371e
:020e840018361e
:020e850018351e
:020e860018341e
:020e870018331e
:020e880018321e
:020e890018311e
:020e8a0018301e
:020e8b00182f1e
:020e8c00182e1e
:020e8d00182d1e
:020e8e00182c1e
:020e8f00182b1e
:020e9000182a1e
:020e910018291e
:020e920018281e
:020e930018271e
:020e940018261e
:020e950018251e
:020e960018241e
:020e970018231e
:020e980018221e
:020e990018211e
:020e9a0018201e
:020e9b00181f1e
:020e9c00181d1f
:020e9d00181c1f
:020e9e00181b1f
:020e9f00181a1f
:020ea00018191f
:020ea10018181f
:020ea20018171f
:020ea30018161f
:020ea40018151f
:020ea50018141f
:020ea60018131f
:020ea70018121f
:020ea80018111f
:020ea90018101f
:020eaa00180f1f
:020eab00180e1f
:020eac00180d1f
:020ead00180c1f
:020eae00180b1f
:020eaf00180a1f
:020eb00018091f
:020eb10018081f
:020eb20018071f
:020eb30018061f
:020eb40018051f
:020eb50018041f
:020eb60018031f
:020eb70018021f
:020eb800180020
:020eb90017ff21
:020eba0017fe21
:020ebb0017fd21
:020ebc0017fc21
:020ebd0017fb21
:020ebe0017fa21
:020ebf0017f921
:020ec00017f821
:020ec10017f721
:020ec20017f621
:020ec30017f521
:020ec40017f421
:020ec50017f321
:020ec60017f221
:020ec70017f121
:020ec80017f021
:020ec90017ef21
:020eca0017ee21
:020ecb0017ed21
:020ecc0017ec21
:020ecd0017eb21
:020ece0017ea21
:020ecf0017e921
:020ed00017e821
:020ed10017e622
:020ed20017e522
:020ed30017e422
:020ed40017e322
:020ed50017e222
:020ed60017e122
:020ed70017e022
:020ed80017df22
:020ed90017de22
:020eda0017dd22
:020edb0017dc22
:020edc0017db22
:020edd0017da22
:020ede0017d922
:020edf0017d822
:020ee00017d722
:020ee10017d622
:020ee20017d522
:020ee30017d422
:020ee40017d322
:020ee50017d222
:020ee60017d023
:020ee70017cf23
:020ee80017ce23
:020ee90017cd23
:020eea0017cc23
:020eeb0017cb23
:020eec0017ca23
:020eed0017c923
:020eee0017c823
:020eef0017c723
:020ef00017c623
:020ef10017c523
:020ef20017c423
:020ef30017c323
:020ef40017c223
:020ef50017c123
:020ef60017c023
:020ef70017bf23
:020ef80017be23
:020ef90017bd23
:020efa0017bb24
:020efb0017ba24
:020efc0017b924
:020efd0017b824
:020efe0017b724
:020eff0017b624
:020f000017b523
:020f010017b423
:020f020017b323
:020f030017b223
:020f040017b123
:020f050017b023
:020f060017af23
:020f070017ae23
:020f080017ad23
:020f090017ac23
:020f0a0017ab23
:020f0b0017aa23
:020f0c0017a824
:020f0d0017a724
:020f0e0017a624
:020f0f0017a524
:020f100017a424
:020f110017a324
:020f120017a224
:020f130017a124
:020f140017a024
:020f1500179f24
:020f1600179e24
:020f1700179d24
:020f1800179c24
:020f1900179b24
:020f1a00179a24
:020f1b00179924
:020f1c00179824
:020f1d00179625
:020f1e00179525
:020f1f00179425
:020f2000179325
:020f2100179225
:020f2200179125
:020f2300179025
:020f2400178f25
:020f2500178e25
:020f2600178d25
:020f2700178c25
:020f2800178b25
:020f2900178a25
:020f2a00178925
:020f2b00178825
:020f2c00178725
:020f2d00178526
:020f2e00178426
:020f2f00178326
:020f3000178226
:020f3100178126
:020f3200178026
:020f3300177f26
:020f3400177e26
:020f3500177d26
:020f3600177c26
:020f3700177b26
:020f3800177a26
:020f3900177926
:020f3a00177826
:020f3b00177726
:020f3c00177527
:020f3d00177427
:020f3e00177327
:020f3f00177227
:020f4000177127
:020f4100177027
:020f4200176f27
:020f4300176e27
:020f4400176d27
:020f4500176c27
:020f4600176b27
:020f4700176a27
:020f4800176927
:020f4900176827
:020f4a00176628
:020f4b00176528
:020f4c00176428
:020f4d00176328
:020f4e00176228
:020f4f00176128
:020f5000176028
:020f5100175f28
:020f5200175e28
:020f5300175d28
:020f5400175c28
:020f5500175b28
:020f5600175a28
:020f5700175928
:020f5800175729
:020f5900175629
:020f5a00175529
:020f5b00175429
:020f5c00175329
:020f5d00175229
:020f5e00175129
:020f5f00175029
:020f6000174f29
:020f6100174e29
:020f6200174d29
:020f6300174c29
:020f6400174b29
:020f650017492a
:020f660017482a
:020f670017472a
:020f680017462a
:020f690017452a
:020f6a0017442a
:020f6b0017432a
:020f6c0017422a
:020f6d0017412a
:020f6e0017402a
:020f6f00173f2a
:020f7000173e2a
:020f7100173d2a
:020f7200173b2b
:020f7300173a2b
:020f740017392b
:020f750017382b
:020f760017372b
:020f770017362b
:020f780017352b
:020f790017342b
:020f7a0017332b
:020f7b0017322b
:020f7c0017312b
:020f7d0017302b
:020f7e00172e2c
:020f7f00172d2c
:020f8000172c2c
:020f8100172b2c
:020f8200172a2c
:020f830017292c
:020f840017282c
:020f850017272c
:020f860017262c
:020f870017252c
:020f880017242c
:020f890017232c
:020f8a0017212d
:020f8b0017202d
:020f8c00171f2d
:020f8d00171e2d
:020f8e00171d2d
:020f8f00171c2d
:020f9000171b2d
:020f9100171a2d
:020f920017192d
:020f930017182d
:020f940017172d
:020f950017162d
:020f960017142e
:020f970017132e
:020f980017122e
:020f990017112e
:020f9a0017102e
:020f9b00170f2e
:020f9c00170e2e
:020f9d00170d2e
:020f9e00170c2e
:020f9f00170b2e
