:020000003fffc0
:020001003fffbf
:020002003fffbe
:020003003fffbd
:020004003fffbc
:020005003fffbb
:020006003fffba
:020007003fffb9
:020008003fffb8
:020009003fffb7
:02000a003fffb6
:02000b003fffb5
:02000c003fffb4
:02000d003fffb3
:02000e003fffb2
:02000f003fffb1
:020010003fffb0
:020011003fffaf
:020012003fffae
:020013003fffad
:020014003fffac
:020015003fffab
:020016003fffaa
:020017003fffa9
:020018003fffa8
:020019003fffa7
:02001a003fffa6
:02001b003fffa5
:02001c003fffa4
:02001d003fffa3
:02001e003fffa2
:02001f003fffa1
:020020003fffa0
:020021003fff9f
:020022003fff9e
:020023003fff9d
:020024003fff9c
:020025003fff9b
:020026003fff9a
:020027003fff99
:020028003fff98
:020029003ffe98
:02002a003ffe97
:02002b003ffe96
:02002c003ffe95
:02002d003ffe94
:02002e003ffe93
:02002f003ffe92
:020030003ffe91
:020031003ffe90
:020032003ffe8f
:020033003ffe8e
:020034003ffe8d
:020035003ffe8c
:020036003ffe8b
:020037003ffe8a
:020038003ffe89
:020039003ffe88
:02003a003ffe87
:02003b003ffe86
:02003c003ffe85
:02003d003ffe84
:02003e003ffe83
:02003f003ffe82
:020040003ffe81
:020041003ffe80
:020042003ffe7f
:020043003ffe7e
:020044003ffe7d
:020045003ffe7c
:020046003ffe7b
:020047003ffd7b
:020048003ffd7a
:020049003ffd79
:02004a003ffd78
:02004b003ffd77
:02004c003ffd76
:02004d003ffd75
:02004e003ffd74
:02004f003ffd73
:020050003ffd72
:020051003ffd71
:020052003ffd70
:020053003ffd6f
:020054003ffd6e
:020055003ffd6d
:020056003ffd6c
:020057003ffd6b
:020058003ffd6a
:020059003ffd69
:02005a003ffd68
:02005b003ffd67
:02005c003ffc67
:02005d003ffc66
:02005e003ffc65
:02005f003ffc64
:020060003ffc63
:020061003ffc62
:020062003ffc61
:020063003ffc60
:020064003ffc5f
:020065003ffc5e
:020066003ffc5d
:020067003ffc5c
:020068003ffc5b
:020069003ffc5a
:02006a003ffc59
:02006b003ffc58
:02006c003ffb58
:02006d003ffb57
:02006e003ffb56
:02006f003ffb55
:020070003ffb54
:020071003ffb53
:020072003ffb52
:020073003ffb51
:020074003ffb50
:020075003ffb4f
:020076003ffb4e
:020077003ffb4d
:020078003ffb4c
:020079003ffb4b
:02007a003ffb4a
:02007b003ffa4a
:02007c003ffa49
:02007d003ffa48
:02007e003ffa47
:02007f003ffa46
:020080003ffa45
:020081003ffa44
:020082003ffa43
:020083003ffa42
:020084003ffa41
:020085003ffa40
:020086003ffa3f
:020087003ffa3e
:020088003ff93e
:020089003ff93d
:02008a003ff93c
:02008b003ff93b
:02008c003ff93a
:02008d003ff939
:02008e003ff938
:02008f003ff937
:020090003ff936
:020091003ff935
:020092003ff934
:020093003ff834
:020094003ff833
:020095003ff832
:020096003ff831
:020097003ff830
:020098003ff82f
:020099003ff82e
:02009a003ff82d
:02009b003ff82c
:02009c003ff82b
:02009d003ff82a
:02009e003ff72a
:02009f003ff729
:0200a0003ff728
:0200a1003ff727
:0200a2003ff726
:0200a3003ff725
:0200a4003ff724
:0200a5003ff723
:0200a6003ff722
:0200a7003ff721
:0200a8003ff720
:0200a9003ff620
:0200aa003ff61f
:0200ab003ff61e
:0200ac003ff61d
:0200ad003ff61c
:0200ae003ff61b
:0200af003ff61a
:0200b0003ff619
:0200b1003ff618
:0200b2003ff518
:0200b3003ff517
:0200b4003ff516
:0200b5003ff515
:0200b6003ff514
:0200b7003ff513
:0200b8003ff512
:0200b9003ff511
:0200ba003ff510
:0200bb003ff410
:0200bc003ff40f
:0200bd003ff40e
:0200be003ff40d
:0200bf003ff40c
:0200c0003ff40b
:0200c1003ff40a
:0200c2003ff409
:0200c3003ff408
:0200c4003ff308
:0200c5003ff307
:0200c6003ff306
:0200c7003ff305
:0200c8003ff304
:0200c9003ff303
:0200ca003ff302
:0200cb003ff301
:0200cc003ff201
:0200cd003ff200
:0200ce003ff2ff
:0200cf003ff2fe
:0200d0003ff2fd
:0200d1003ff2fc
:0200d2003ff2fb
:0200d3003ff2fa
:0200d4003ff1fa
:0200d5003ff1f9
:0200d6003ff1f8
:0200d7003ff1f7
:0200d8003ff1f6
:0200d9003ff1f5
:0200da003ff1f4
:0200db003ff1f3
:0200dc003ff0f3
:0200dd003ff0f2
:0200de003ff0f1
:0200df003ff0f0
:0200e0003ff0ef
:0200e1003ff0ee
:0200e2003ff0ed
:0200e3003fefed
:0200e4003fefec
:0200e5003fefeb
:0200e6003fefea
:0200e7003fefe9
:0200e8003fefe8
:0200e9003fefe7
:0200ea003fefe6
:0200eb003feee6
:0200ec003feee5
:0200ed003feee4
:0200ee003feee3
:0200ef003feee2
:0200f0003feee1
:0200f1003feee0
:0200f2003fede0
:0200f3003feddf
:0200f4003fedde
:0200f5003feddd
:0200f6003feddc
:0200f7003feddb
:0200f8003fecdb
:0200f9003fecda
:0200fa003fecd9
:0200fb003fecd8
:0200fc003fecd7
:0200fd003fecd6
:0200fe003fecd5
:0200ff003febd5
:020100003febd3
:020101003febd2
:020102003febd1
:020103003febd0
:020104003febcf
:020105003feacf
:020106003feace
:020107003feacd
:020108003feacc
:020109003feacb
:02010a003feaca
:02010b003feac9
:02010c003fe9c9
:02010d003fe9c8
:02010e003fe9c7
:02010f003fe9c6
:020110003fe9c5
:020111003fe9c4
:020112003fe8c4
:020113003fe8c3
:020114003fe8c2
:020115003fe8c1
:020116003fe8c0
:020117003fe8bf
:020118003fe7bf
:020119003fe7be
:02011a003fe7bd
:02011b003fe7bc
:02011c003fe7bb
:02011d003fe7ba
:02011e003fe6ba
:02011f003fe6b9
:020120003fe6b8
:020121003fe6b7
:020122003fe6b6
:020123003fe6b5
:020124003fe5b5
:020125003fe5b4
:020126003fe5b3
:020127003fe5b2
:020128003fe5b1
:020129003fe4b1
:02012a003fe4b0
:02012b003fe4af
:02012c003fe4ae
:02012d003fe4ad
:02012e003fe4ac
:02012f003fe3ac
:020130003fe3ab
:020131003fe3aa
:020132003fe3a9
:020133003fe3a8
:020134003fe2a8
:020135003fe2a7
:020136003fe2a6
:020137003fe2a5
:020138003fe2a4
:020139003fe2a3
:02013a003fe1a3
:02013b003fe1a2
:02013c003fe1a1
:02013d003fe1a0
:02013e003fe19f
:02013f003fe09f
:020140003fe09e
:020141003fe09d
:020142003fe09c
:020143003fe09b
:020144003fdf9b
:020145003fdf9a
:020146003fdf99
:020147003fdf98
:020148003fdf97
:020149003fde97
:02014a003fde96
:02014b003fde95
:02014c003fde94
:02014d003fde93
:02014e003fdd93
:02014f003fdd92
:020150003fdd91
:020151003fdd90
:020152003fdd8f
:020153003fdc8f
:020154003fdc8e
:020155003fdc8d
:020156003fdc8c
:020157003fdc8b
:020158003fdb8b
:020159003fdb8a
:02015a003fdb89
:02015b003fdb88
:02015c003fdb87
:02015d003fda87
:02015e003fda86
:02015f003fda85
:020160003fda84
:020161003fd984
:020162003fd983
:020163003fd982
:020164003fd981
:020165003fd980
:020166003fd880
:020167003fd87f
:020168003fd87e
:020169003fd87d
:02016a003fd87c
:02016b003fd77c
:02016c003fd77b
:02016d003fd77a
:02016e003fd779
:02016f003fd679
:020170003fd678
:020171003fd677
:020172003fd676
:020173003fd675
:020174003fd575
:020175003fd574
:020176003fd573
:020177003fd572
:020178003fd472
:020179003fd471
:02017a003fd470
:02017b003fd46f
:02017c003fd46e
:02017d003fd36e
:02017e003fd36d
:02017f003fd36c
:020180003fd36b
:020181003fd26b
:020182003fd26a
:020183003fd269
:020184003fd268
:020185003fd168
:020186003fd167
:020187003fd166
:020188003fd165
:020189003fd164
:02018a003fd064
:02018b003fd063
:02018c003fd062
:02018d003fd061
:02018e003fcf61
:02018f003fcf60
:020190003fcf5f
:020191003fcf5e
:020192003fce5e
:020193003fce5d
:020194003fce5c
:020195003fce5b
:020196003fcd5b
:020197003fcd5a
:020198003fcd59
:020199003fcd58
:02019a003fcc58
:02019b003fcc57
:02019c003fcc56
:02019d003fcc55
:02019e003fcb55
:02019f003fcb54
:0201a0003fcb53
:0201a1003fcb52
:0201a2003fca52
:0201a3003fca51
:0201a4003fca50
:0201a5003fca4f
:0201a6003fc94f
:0201a7003fc94e
:0201a8003fc94d
:0201a9003fc94c
:0201aa003fc84c
:0201ab003fc84b
:0201ac003fc84a
:0201ad003fc849
:0201ae003fc749
:0201af003fc748
:0201b0003fc747
:0201b1003fc746
:0201b2003fc646
:0201b3003fc645
:0201b4003fc644
:0201b5003fc643
:0201b6003fc543
:0201b7003fc542
:0201b8003fc541
:0201b9003fc441
:0201ba003fc440
:0201bb003fc43f
:0201bc003fc43e
:0201bd003fc33e
:0201be003fc33d
:0201bf003fc33c
:0201c0003fc33b
:0201c1003fc23b
:0201c2003fc23a
:0201c3003fc239
:0201c4003fc238
:0201c5003fc138
:0201c6003fc137
:0201c7003fc136
:0201c8003fc036
:0201c9003fc035
:0201ca003fc034
:0201cb003fc033
:0201cc003fbf33
:0201cd003fbf32
:0201ce003fbf31
:0201cf003fbe31
:0201d0003fbe30
:0201d1003fbe2f
:0201d2003fbe2e
:0201d3003fbd2e
:0201d4003fbd2d
:0201d5003fbd2c
:0201d6003fbd2b
:0201d7003fbc2b
:0201d8003fbc2a
:0201d9003fbc29
:0201da003fbb29
:0201db003fbb28
:0201dc003fbb27
:0201dd003fbb26
:0201de003fba26
:0201df003fba25
:0201e0003fba24
:0201e1003fb924
:0201e2003fb923
:0201e3003fb922
:0201e4003fb822
:0201e5003fb821
:0201e6003fb820
:0201e7003fb81f
:0201e8003fb71f
:0201e9003fb71e
:0201ea003fb71d
:0201eb003fb61d
:0201ec003fb61c
:0201ed003fb61b
:0201ee003fb61a
:0201ef003fb51a
:0201f0003fb519
:0201f1003fb518
:0201f2003fb418
:0201f3003fb417
:0201f4003fb416
:0201f5003fb316
:0201f6003fb315
:0201f7003fb314
:0201f8003fb313
:0201f9003fb213
:0201fa003fb212
:0201fb003fb211
:0201fc003fb111
:0201fd003fb110
:0201fe003fb10f
:0201ff003fb00f
:020200003fb00d
:020201003fb00c
:020202003faf0c
:020203003faf0b
:020204003faf0a
:020205003faf09
:020206003fae09
:020207003fae08
:020208003fae07
:020209003fad07
:02020a003fad06
:02020b003fad05
:02020c003fac05
:02020d003fac04
:02020e003fac03
:02020f003fab03
:020210003fab02
:020211003fab01
:020212003faa01
:020213003faa00
:020214003faaff
:020215003faafe
:020216003fa9fe
:020217003fa9fd
:020218003fa9fc
:020219003fa8fc
:02021a003fa8fb
:02021b003fa8fa
:02021c003fa7fa
:02021d003fa7f9
:02021e003fa7f8
:02021f003fa6f8
:020220003fa6f7
:020221003fa6f6
:020222003fa5f6
:020223003fa5f5
:020224003fa5f4
:020225003fa4f4
:020226003fa4f3
:020227003fa4f2
:020228003fa3f2
:020229003fa3f1
:02022a003fa3f0
:02022b003fa2f0
:02022c003fa2ef
:02022d003fa2ee
:02022e003fa1ee
:02022f003fa1ed
:020230003fa1ec
:020231003fa0ec
:020232003fa0eb
:020233003fa0ea
:020234003f9fea
:020235003f9fe9
:020236003f9fe8
:020237003f9ee8
:020238003f9ee7
:020239003f9ee6
:02023a003f9de6
:02023b003f9de5
:02023c003f9de4
:02023d003f9ce4
:02023e003f9ce3
:02023f003f9ce2
:020240003f9be2
:020241003f9be1
:020242003f9ae1
:020243003f9ae0
:020244003f9adf
:020245003f99df
:020246003f99de
:020247003f99dd
:020248003f98dd
:020249003f98dc
:02024a003f98db
:02024b003f97db
:02024c003f97da
:02024d003f97d9
:02024e003f96d9
:02024f003f96d8
:020250003f96d7
:020251003f95d7
:020252003f95d6
:020253003f94d6
:020254003f94d5
:020255003f94d4
:020256003f93d4
:020257003f93d3
:020258003f93d2
:020259003f92d2
:02025a003f92d1
:02025b003f92d0
:02025c003f91d0
:02025d003f91cf
:02025e003f91ce
:02025f003f90ce
:020260003f90cd
:020261003f8fcd
:020262003f8fcc
:020263003f8fcb
:020264003f8ecb
:020265003f8eca
:020266003f8ec9
:020267003f8dc9
:020268003f8dc8
:020269003f8cc8
:02026a003f8cc7
:02026b003f8cc6
:02026c003f8bc6
:02026d003f8bc5
:02026e003f8bc4
:02026f003f8ac4
:020270003f8ac3
:020271003f89c3
:020272003f89c2
:020273003f89c1
:020274003f88c1
:020275003f88c0
:020276003f88bf
:020277003f87bf
:020278003f87be
:020279003f86be
:02027a003f86bd
:02027b003f86bc
:02027c003f85bc
:02027d003f85bb
:02027e003f85ba
:02027f003f84ba
:020280003f84b9
:020281003f83b9
:020282003f83b8
:020283003f83b7
:020284003f82b7
:020285003f82b6
:020286003f81b6
:020287003f81b5
:020288003f81b4
:020289003f80b4
:02028a003f80b3
:02028b003f80b2
:02028c003f7fb2
:02028d003f7fb1
:02028e003f7eb1
:02028f003f7eb0
:020290003f7eaf
:020291003f7daf
:020292003f7dae
:020293003f7cae
:020294003f7cad
:020295003f7cac
:020296003f7bac
:020297003f7bab
:020298003f7aab
:020299003f7aaa
:02029a003f7aa9
:02029b003f79a9
:02029c003f79a8
:02029d003f78a8
:02029e003f78a7
:02029f003f78a6
:0202a0003f77a6
:0202a1003f77a5
:0202a2003f76a5
:0202a3003f76a4
:0202a4003f76a3
:0202a5003f75a3
:0202a6003f75a2
:0202a7003f74a2
:0202a8003f74a1
:0202a9003f74a0
:0202aa003f73a0
:0202ab003f739f
:0202ac003f729f
:0202ad003f729e
:0202ae003f719e
:0202af003f719d
:0202b0003f719c
:0202b1003f709c
:0202b2003f709b
:0202b3003f6f9b
:0202b4003f6f9a
:0202b5003f6f99
:0202b6003f6e99
:0202b7003f6e98
:0202b8003f6d98
:0202b9003f6d97
:0202ba003f6c97
:0202bb003f6c96
:0202bc003f6c95
:0202bd003f6b95
:0202be003f6b94
:0202bf003f6a94
:0202c0003f6a93
:0202c1003f6a92
:0202c2003f6992
:0202c3003f6991
:0202c4003f6891
:0202c5003f6890
:0202c6003f6790
:0202c7003f678f
:0202c8003f678e
:0202c9003f668e
:0202ca003f668d
:0202cb003f658d
:0202cc003f658c
:0202cd003f648c
:0202ce003f648b
:0202cf003f648a
:0202d0003f638a
:0202d1003f6389
:0202d2003f6289
:0202d3003f6288
:0202d4003f6188
:0202d5003f6187
:0202d6003f6186
:0202d7003f6086
:0202d8003f6085
:0202d9003f5f85
:0202da003f5f84
:0202db003f5e84
:0202dc003f5e83
:0202dd003f5d83
:0202de003f5d82
:0202df003f5d81
:0202e0003f5c81
:0202e1003f5c80
:0202e2003f5b80
:0202e3003f5b7f
:0202e4003f5a7f
:0202e5003f5a7e
:0202e6003f597e
:0202e7003f597d
:0202e8003f597c
:0202e9003f587c
:0202ea003f587b
:0202eb003f577b
:0202ec003f577a
:0202ed003f567a
:0202ee003f5679
:0202ef003f5579
:0202f0003f5578
:0202f1003f5577
:0202f2003f5477
:0202f3003f5476
:0202f4003f5376
:0202f5003f5375
:0202f6003f5275
:0202f7003f5274
:0202f8003f5174
:0202f9003f5173
:0202fa003f5073
:0202fb003f5072
:0202fc003f5071
:0202fd003f4f71
:0202fe003f4f70
:0202ff003f4e70
:020300003f4e6e
:020301003f4d6e
:020302003f4d6d
:020303003f4c6d
:020304003f4c6c
:020305003f4b6c
:020306003f4b6b
:020307003f4a6b
:020308003f4a6a
:020309003f4a69
:02030a003f4969
:02030b003f4968
:02030c003f4868
:02030d003f4867
:02030e003f4767
:02030f003f4766
:020310003f4666
:020311003f4665
:020312003f4565
:020313003f4564
:020314003f4464
:020315003f4463
:020316003f4363
:020317003f4362
:020318003f4262
:020319003f4261
:02031a003f4161
:02031b003f4160
:02031c003f415f
:02031d003f405f
:02031e003f405e
:02031f003f3f5e
:020320003f3f5d
:020321003f3e5d
:020322003f3e5c
:020323003f3d5c
:020324003f3d5b
:020325003f3c5b
:020326003f3c5a
:020327003f3b5a
:020328003f3b59
:020329003f3a59
:02032a003f3a58
:02032b003f3958
:02032c003f3957
:02032d003f3857
:02032e003f3856
:02032f003f3756
:020330003f3755
:020331003f3655
:020332003f3654
:020333003f3554
:020334003f3553
:020335003f3453
:020336003f3452
:020337003f3352
:020338003f3351
:020339003f3251
:02033a003f3250
:02033b003f3150
:02033c003f314f
:02033d003f304f
:02033e003f304e
:02033f003f2f4e
:020340003f2f4d
:020341003f2e4d
:020342003f2e4c
:020343003f2d4c
:020344003f2d4b
:020345003f2c4b
:020346003f2c4a
:020347003f2b4a
:020348003f2b49
:020349003f2a49
:02034a003f2a48
:02034b003f2948
:02034c003f2947
:02034d003f2847
:02034e003f2846
:02034f003f2746
:020350003f2745
:020351003f2645
:020352003f2644
:020353003f2544
:020354003f2543
:020355003f2443
:020356003f2442
:020357003f2342
:020358003f2341
:020359003f2241
:02035a003f2240
:02035b003f2140
:02035c003f213f
:02035d003f203f
:02035e003f203e
:02035f003f1f3e
:020360003f1f3d
:020361003f1e3d
:020362003f1e3c
:020363003f1d3c
:020364003f1d3b
:020365003f1c3b
:020366003f1c3a
:020367003f1b3a
:020368003f1b39
:020369003f1a39
:02036a003f1939
:02036b003f1938
:02036c003f1838
:02036d003f1837
:02036e003f1737
:02036f003f1736
:020370003f1636
:020371003f1635
:020372003f1535
:020373003f1534
:020374003f1434
:020375003f1433
:020376003f1333
:020377003f1332
:020378003f1232
:020379003f1231
:02037a003f1131
:02037b003f1031
:02037c003f1030
:02037d003f0f30
:02037e003f0f2f
:02037f003f0e2f
:020380003f0e2e
:020381003f0d2e
:020382003f0d2d
:020383003f0c2d
:020384003f0c2c
:020385003f0b2c
:020386003f0b2b
:020387003f0a2b
:020388003f092b
:020389003f092a
:02038a003f082a
:02038b003f0829
:02038c003f0729
:02038d003f0728
:02038e003f0628
:02038f003f0627
:020390003f0527
:020391003f0526
:020392003f0426
:020393003f0326
:020394003f0325
:020395003f0225
:020396003f0224
:020397003f0124
:020398003f0123
:020399003f0023
:02039a003f0022
:02039b003eff23
:02039c003eff22
:02039d003efe22
:02039e003efd22
:02039f003efd21
:0203a0003efc21
:0203a1003efc20
:0203a2003efb20
:0203a3003efb1f
:0203a4003efa1f
:0203a5003efa1e
:0203a6003ef91e
:0203a7003ef81e
:0203a8003ef81d
:0203a9003ef71d
:0203aa003ef71c
:0203ab003ef61c
:0203ac003ef61b
:0203ad003ef51b
:0203ae003ef41b
:0203af003ef41a
:0203b0003ef31a
:0203b1003ef319
:0203b2003ef219
:0203b3003ef218
:0203b4003ef118
:0203b5003ef117
:0203b6003ef017
:0203b7003eef17
:0203b8003eef16
:0203b9003eee16
:0203ba003eee15
:0203bb003eed15
:0203bc003eed14
:0203bd003eec14
:0203be003eeb14
:0203bf003eeb13
:0203c0003eea13
:0203c1003eea12
:0203c2003ee912
:0203c3003ee812
:0203c4003ee811
:0203c5003ee711
:0203c6003ee710
:0203c7003ee610
:0203c8003ee60f
:0203c9003ee50f
:0203ca003ee40f
:0203cb003ee40e
:0203cc003ee30e
:0203cd003ee30d
:0203ce003ee20d
:0203cf003ee20c
:0203d0003ee10c
:0203d1003ee00c
:0203d2003ee00b
:0203d3003edf0b
:0203d4003edf0a
:0203d5003ede0a
:0203d6003edd0a
:0203d7003edd09
:0203d8003edc09
:0203d9003edc08
:0203da003edb08
:0203db003eda08
:0203dc003eda07
:0203dd003ed907
:0203de003ed906
:0203df003ed806
:0203e0003ed805
:0203e1003ed705
:0203e2003ed605
:0203e3003ed604
:0203e4003ed504
:0203e5003ed503
:0203e6003ed403
:0203e7003ed303
:0203e8003ed302
:0203e9003ed202
:0203ea003ed201
:0203eb003ed101
:0203ec003ed001
:0203ed003ed000
:0203ee003ecf00
:0203ef003ecfff
:0203f0003eceff
:0203f1003ecdff
:0203f2003ecdfe
:0203f3003eccfe
:0203f4003eccfd
:0203f5003ecbfd
:0203f6003ecafd
:0203f7003ecafc
:0203f8003ec9fc
:0203f9003ec8fc
:0203fa003ec8fb
:0203fb003ec7fb
:0203fc003ec7fa
:0203fd003ec6fa
:0203fe003ec5fa
:0203ff003ec5f9
:020400003ec4f8
:020401003ec4f7
:020402003ec3f7
:020403003ec2f7
:020404003ec2f6
:020405003ec1f6
:020406003ec1f5
:020407003ec0f5
:020408003ebff5
:020409003ebff4
:02040a003ebef4
:02040b003ebdf4
:02040c003ebdf3
:02040d003ebcf3
:02040e003ebcf2
:02040f003ebbf2
:020410003ebaf2
:020411003ebaf1
:020412003eb9f1
:020413003eb8f1
:020414003eb8f0
:020415003eb7f0
:020416003eb7ef
:020417003eb6ef
:020418003eb5ef
:020419003eb5ee
:02041a003eb4ee
:02041b003eb3ee
:02041c003eb3ed
:02041d003eb2ed
:02041e003eb2ec
:02041f003eb1ec
:020420003eb0ec
:020421003eb0eb
:020422003eafeb
:020423003eaeeb
:020424003eaeea
:020425003eadea
:020426003eacea
:020427003eace9
:020428003eabe9
:020429003eabe8
:02042a003eaae8
:02042b003ea9e8
:02042c003ea9e7
:02042d003ea8e7
:02042e003ea7e7
:02042f003ea7e6
:020430003ea6e6
:020431003ea5e6
:020432003ea5e5
:020433003ea4e5
:020434003ea4e4
:020435003ea3e4
:020436003ea2e4
:020437003ea2e3
:020438003ea1e3
:020439003ea0e3
:02043a003ea0e2
:02043b003e9fe2
:02043c003e9ee2
:02043d003e9ee1
:02043e003e9de1
:02043f003e9ce1
:020440003e9ce0
:020441003e9be0
:020442003e9ae0
:020443003e9adf
:020444003e99df
:020445003e99de
:020446003e98de
:020447003e97de
:020448003e97dd
:020449003e96dd
:02044a003e95dd
:02044b003e95dc
:02044c003e94dc
:02044d003e93dc
:02044e003e93db
:02044f003e92db
:020450003e91db
:020451003e91da
:020452003e90da
:020453003e8fda
:020454003e8fd9
:020455003e8ed9
:020456003e8dd9
:020457003e8dd8
:020458003e8cd8
:020459003e8bd8
:02045a003e8bd7
:02045b003e8ad7
:02045c003e89d7
:02045d003e89d6
:02045e003e88d6
:02045f003e87d6
:020460003e87d5
:020461003e86d5
:020462003e85d5
:020463003e85d4
:020464003e84d4
:020465003e83d4
:020466003e83d3
:020467003e82d3
:020468003e81d3
:020469003e81d2
:02046a003e80d2
:02046b003e7fd2
:02046c003e7fd1
:02046d003e7ed1
:02046e003e7dd1
:02046f003e7dd0
:020470003e7cd0
:020471003e7bd0
:020472003e7bcf
:020473003e7acf
:020474003e79cf
:020475003e78cf
:020476003e78ce
:020477003e77ce
:020478003e76ce
:020479003e76cd
:02047a003e75cd
:02047b003e74cd
:02047c003e74cc
:02047d003e73cc
:02047e003e72cc
:02047f003e72cb
:020480003e71cb
:020481003e70cb
:020482003e70ca
:020483003e6fca
:020484003e6eca
:020485003e6dca
:020486003e6dc9
:020487003e6cc9
:020488003e6bc9
:020489003e6bc8
:02048a003e6ac8
:02048b003e69c8
:02048c003e69c7
:02048d003e68c7
:02048e003e67c7
:02048f003e67c6
:020490003e66c6
:020491003e65c6
:020492003e64c6
:020493003e64c5
:020494003e63c5
:020495003e62c5
:020496003e62c4
:020497003e61c4
:020498003e60c4
:020499003e60c3
:02049a003e5fc3
:02049b003e5ec3
:02049c003e5dc3
:02049d003e5dc2
:02049e003e5cc2
:02049f003e5bc2
:0204a0003e5bc1
:0204a1003e5ac1
:0204a2003e59c1
:0204a3003e58c1
:0204a4003e58c0
:0204a5003e57c0
:0204a6003e56c0
:0204a7003e56bf
:0204a8003e55bf
:0204a9003e54bf
:0204aa003e54be
:0204ab003e53be
:0204ac003e52be
:0204ad003e51be
:0204ae003e51bd
:0204af003e50bd
:0204b0003e4fbd
:0204b1003e4ebd
:0204b2003e4ebc
:0204b3003e4dbc
:0204b4003e4cbc
:0204b5003e4cbb
:0204b6003e4bbb
:0204b7003e4abb
:0204b8003e49bb
:0204b9003e49ba
:0204ba003e48ba
:0204bb003e47ba
:0204bc003e47b9
:0204bd003e46b9
:0204be003e45b9
:0204bf003e44b9
:0204c0003e44b8
:0204c1003e43b8
:0204c2003e42b8
:0204c3003e41b8
:0204c4003e41b7
:0204c5003e40b7
:0204c6003e3fb7
:0204c7003e3fb6
:0204c8003e3eb6
:0204c9003e3db6
:0204ca003e3cb6
:0204cb003e3cb5
:0204cc003e3bb5
:0204cd003e3ab5
:0204ce003e39b5
:0204cf003e39b4
:0204d0003e38b4
:0204d1003e37b4
:0204d2003e37b3
:0204d3003e36b3
:0204d4003e35b3
:0204d5003e34b3
:0204d6003e34b2
:0204d7003e33b2
:0204d8003e32b2
:0204d9003e31b2
:0204da003e31b1
:0204db003e30b1
:0204dc003e2fb1
:0204dd003e2eb1
:0204de003e2eb0
:0204df003e2db0
:0204e0003e2cb0
:0204e1003e2bb0
:0204e2003e2baf
:0204e3003e2aaf
:0204e4003e29af
:0204e5003e28af
:0204e6003e28ae
:0204e7003e27ae
:0204e8003e26ae
:0204e9003e25ae
:0204ea003e25ad
:0204eb003e24ad
:0204ec003e23ad
:0204ed003e22ad
:0204ee003e22ac
:0204ef003e21ac
:0204f0003e20ac
:0204f1003e1fac
:0204f2003e1fab
:0204f3003e1eab
:0204f4003e1dab
:0204f5003e1cab
:0204f6003e1caa
:0204f7003e1baa
:0204f8003e1aaa
:0204f9003e19aa
:0204fa003e19a9
:0204fb003e18a9
:0204fc003e17a9
:0204fd003e16a9
:0204fe003e16a8
:0204ff003e15a8
:020500003e14a7
:020501003e13a7
:020502003e12a7
:020503003e12a6
:020504003e11a6
:020505003e10a6
:020506003e0fa6
:020507003e0fa5
:020508003e0ea5
:020509003e0da5
:02050a003e0ca5
:02050b003e0ca4
:02050c003e0ba4
:02050d003e0aa4
:02050e003e09a4
:02050f003e09a3
:020510003e08a3
:020511003e07a3
:020512003e06a3
:020513003e05a3
:020514003e05a2
:020515003e04a2
:020516003e03a2
:020517003e02a2
:020518003e02a1
:020519003e01a1
:02051a003e00a1
:02051b003dffa2
:02051c003dfea2
:02051d003dfea1
:02051e003dfda1
:02051f003dfca1
:020520003dfba1
:020521003dfba0
:020522003dfaa0
:020523003df9a0
:020524003df8a0
:020525003df7a0
:020526003df79f
:020527003df69f
:020528003df59f
:020529003df49f
:02052a003df39f
:02052b003df39e
:02052c003df29e
:02052d003df19e
:02052e003df09e
:02052f003df09d
:020530003def9d
:020531003dee9d
:020532003ded9d
:020533003dec9d
:020534003dec9c
:020535003deb9c
:020536003dea9c
:020537003de99c
:020538003de89c
:020539003de89b
:02053a003de79b
:02053b003de69b
:02053c003de59b
:02053d003de49b
:02053e003de49a
:02053f003de39a
:020540003de29a
:020541003de19a
:020542003de09a
:020543003de099
:020544003ddf99
:020545003dde99
:020546003ddd99
:020547003ddc99
:020548003ddc98
:020549003ddb98
:02054a003dda98
:02054b003dd998
:02054c003dd898
:02054d003dd897
:02054e003dd797
:02054f003dd697
:020550003dd597
:020551003dd497
:020552003dd397
:020553003dd396
:020554003dd296
:020555003dd196
:020556003dd096
:020557003dcf96
:020558003dcf95
:020559003dce95
:02055a003dcd95
:02055b003dcc95
:02055c003dcb95
:02055d003dcb94
:02055e003dca94
:02055f003dc994
:020560003dc894
:020561003dc794
:020562003dc694
:020563003dc693
:020564003dc593
:020565003dc493
:020566003dc393
:020567003dc293
:020568003dc193
:020569003dc192
:02056a003dc092
:02056b003dbf92
:02056c003dbe92
:02056d003dbd92
:02056e003dbd91
:02056f003dbc91
:020570003dbb91
:020571003dba91
:020572003db991
:020573003db891
:020574003db890
:020575003db790
:020576003db690
:020577003db590
:020578003db490
:020579003db390
:02057a003db38f
:02057b003db28f
:02057c003db18f
:02057d003db08f
:02057e003daf8f
:02057f003dae8f
:020580003dae8e
:020581003dad8e
:020582003dac8e
:020583003dab8e
:020584003daa8e
:020585003da98e
:020586003da98d
:020587003da88d
:020588003da78d
:020589003da68d
:02058a003da58d
:02058b003da48d
:02058c003da38d
:02058d003da38c
:02058e003da28c
:02058f003da18c
:020590003da08c
:020591003d9f8c
:020592003d9e8c
:020593003d9e8b
:020594003d9d8b
:020595003d9c8b
:020596003d9b8b
:020597003d9a8b
:020598003d998b
:020599003d988b
:02059a003d988a
:02059b003d978a
:02059c003d968a
:02059d003d958a
:02059e003d948a
:02059f003d938a
:0205a0003d928a
:0205a1003d9289
:0205a2003d9189
:0205a3003d9089
:0205a4003d8f89
:0205a5003d8e89
:0205a6003d8d89
:0205a7003d8c89
:0205a8003d8c88
:0205a9003d8b88
:0205aa003d8a88
:0205ab003d8988
:0205ac003d8888
:0205ad003d8788
:0205ae003d8688
:0205af003d8687
:0205b0003d8587
:0205b1003d8487
:0205b2003d8387
:0205b3003d8287
:0205b4003d8187
:0205b5003d8087
:0205b6003d7f87
:0205b7003d7f86
:0205b8003d7e86
:0205b9003d7d86
:0205ba003d7c86
:0205bb003d7b86
:0205bc003d7a86
:0205bd003d7986
:0205be003d7886
:0205bf003d7885
:0205c0003d7785
:0205c1003d7685
:0205c2003d7585
:0205c3003d7485
:0205c4003d7385
:0205c5003d7285
:0205c6003d7185
:0205c7003d7184
:0205c8003d7084
:0205c9003d6f84
:0205ca003d6e84
:0205cb003d6d84
:0205cc003d6c84
:0205cd003d6b84
:0205ce003d6a84
:0205cf003d6a83
:0205d0003d6983
:0205d1003d6883
:0205d2003d6783
:0205d3003d6683
:0205d4003d6583
:0205d5003d6483
:0205d6003d6383
:0205d7003d6283
:0205d8003d6282
:0205d9003d6182
:0205da003d6082
:0205db003d5f82
:0205dc003d5e82
:0205dd003d5d82
:0205de003d5c82
:0205df003d5b82
:0205e0003d5a82
:0205e1003d5a81
:0205e2003d5981
:0205e3003d5881
:0205e4003d5781
:0205e5003d5681
:0205e6003d5581
:0205e7003d5481
:0205e8003d5381
:0205e9003d5281
:0205ea003d5181
:0205eb003d5180
:0205ec003d5080
:0205ed003d4f80
:0205ee003d4e80
:0205ef003d4d80
:0205f0003d4c80
:0205f1003d4b80
:0205f2003d4a80
:0205f3003d4980
:0205f4003d4880
:0205f5003d487f
:0205f6003d477f
:0205f7003d467f
:0205f8003d457f
:0205f9003d447f
:0205fa003d437f
:0205fb003d427f
:0205fc003d417f
:0205fd003d407f
:0205fe003d3f7f
:0205ff003d3e7f
:020600003d3e7d
:020601003d3d7d
:020602003d3c7d
:020603003d3b7d
:020604003d3a7d
:020605003d397d
:020606003d387d
:020607003d377d
:020608003d367d
:020609003d357d
:02060a003d347d
:02060b003d337d
:02060c003d337c
:02060d003d327c
:02060e003d317c
:02060f003d307c
:020610003d2f7c
:020611003d2e7c
:020612003d2d7c
:020613003d2c7c
:020614003d2b7c
:020615003d2a7c
:020616003d297c
:020617003d287c
:020618003d287b
:020619003d277b
:02061a003d267b
:02061b003d257b
:02061c003d247b
:02061d003d237b
:02061e003d227b
:02061f003d217b
:020620003d207b
:020621003d1f7b
:020622003d1e7b
:020623003d1d7b
:020624003d1c7b
:020625003d1b7b
:020626003d1a7b
:020627003d1a7a
:020628003d197a
:020629003d187a
:02062a003d177a
:02062b003d167a
:02062c003d157a
:02062d003d147a
:02062e003d137a
:02062f003d127a
:020630003d117a
:020631003d107a
:020632003d0f7a
:020633003d0e7a
:020634003d0d7a
:020635003d0c7a
:020636003d0b7a
:020637003d0b79
:020638003d0a79
:020639003d0979
:02063a003d0879
:02063b003d0779
:02063c003d0679
:02063d003d0579
:02063e003d0479
:02063f003d0379
:020640003d0279
:020641003d0179
:020642003d0079
:020643003cff7a
:020644003cfe7a
:020645003cfd7a
:020646003cfc7a
:020647003cfb7a
:020648003cfa7a
:020649003cf97a
:02064a003cf87a
:02064b003cf879
:02064c003cf779
:02064d003cf679
:02064e003cf579
:02064f003cf479
:020650003cf379
:020651003cf279
:020652003cf179
:020653003cf079
:020654003cef79
:020655003cee79
:020656003ced79
:020657003cec79
:020658003ceb79
:020659003cea79
:02065a003ce979
:02065b003ce879
:02065c003ce779
:02065d003ce679
:02065e003ce579
:02065f003ce479
:020660003ce379
:020661003ce279
:020662003ce179
:020663003ce079
:020664003cdf79
:020665003cdf78
:020666003cde78
:020667003cdd78
:020668003cdc78
:020669003cdb78
:02066a003cda78
:02066b003cd978
:02066c003cd878
:02066d003cd778
:02066e003cd678
:02066f003cd578
:020670003cd478
:020671003cd378
:020672003cd278
:020673003cd178
:020674003cd078
:020675003ccf78
:020676003cce78
:020677003ccd78
:020678003ccc78
:020679003ccb78
:02067a003cca78
:02067b003cc978
:02067c003cc878
:02067d003cc778
:02067e003cc678
:02067f003cc578
:020680003cc478
:020681003cc378
:020682003cc278
:020683003cc178
:020684003cc078
:020685003cbf78
:020686003cbe78
:020687003cbd78
:020688003cbc78
:020689003cbb78
:02068a003cba78
:02068b003cb978
:02068c003cb878
:02068d003cb778
:02068e003cb678
:02068f003cb578
:020690003cb478
:020691003cb378
:020692003cb278
:020693003cb178
:020694003cb078
:020695003caf78
:020696003cae78
:020697003cad78
:020698003cac78
:020699003cab78
:02069a003caa78
:02069b003ca978
:02069c003ca878
:02069d003ca778
:02069e003ca678
:02069f003ca578
:0206a0003ca478
:0206a1003ca378
:0206a2003ca278
:0206a3003ca178
:0206a4003ca078
:0206a5003c9f78
:0206a6003c9e78
:0206a7003c9d78
:0206a8003c9c78
:0206a9003c9b78
:0206aa003c9a78
:0206ab003c9978
:0206ac003c9878
:0206ad003c9778
:0206ae003c9678
:0206af003c9578
:0206b0003c9478
:0206b1003c9378
:0206b2003c9278
:0206b3003c9178
:0206b4003c9078
:0206b5003c8f78
:0206b6003c8e78
:0206b7003c8d78
:0206b8003c8c78
:0206b9003c8b78
:0206ba003c8a78
:0206bb003c8978
:0206bc003c8878
:0206bd003c8778
:0206be003c8678
:0206bf003c8578
:0206c0003c8478
:0206c1003c8378
:0206c2003c8278
:0206c3003c8178
:0206c4003c8078
:0206c5003c7f78
:0206c6003c7e78
:0206c7003c7d78
:0206c8003c7c78
:0206c9003c7b78
:0206ca003c7a78
:0206cb003c7978
:0206cc003c7878
:0206cd003c7778
:0206ce003c7678
:0206cf003c7479
:0206d0003c7379
:0206d1003c7279
:0206d2003c7179
:0206d3003c7079
:0206d4003c6f79
:0206d5003c6e79
:0206d6003c6d79
:0206d7003c6c79
:0206d8003c6b79
:0206d9003c6a79
:0206da003c6979
:0206db003c6879
:0206dc003c6779
:0206dd003c6679
:0206de003c6579
:0206df003c6479
:0206e0003c6379
:0206e1003c6279
:0206e2003c6179
:0206e3003c6079
:0206e4003c5f79
:0206e5003c5e79
:0206e6003c5d79
:0206e7003c5c79
:0206e8003c5b79
:0206e9003c5a79
:0206ea003c587a
:0206eb003c577a
:0206ec003c567a
:0206ed003c557a
:0206ee003c547a
:0206ef003c537a
:0206f0003c527a
:0206f1003c517a
:0206f2003c507a
:0206f3003c4f7a
:0206f4003c4e7a
:0206f5003c4d7a
:0206f6003c4c7a
:0206f7003c4b7a
:0206f8003c4a7a
:0206f9003c497a
:0206fa003c487a
:0206fb003c477a
:0206fc003c467a
:0206fd003c447b
:0206fe003c437b
:0206ff003c427b
:020700003c417a
:020701003c407a
:020702003c3f7a
:020703003c3e7a
:020704003c3d7a
:020705003c3c7a
:020706003c3b7a
:020707003c3a7a
:020708003c397a
:020709003c387a
:02070a003c377a
:02070b003c367a
:02070c003c357a
:02070d003c347a
:02070e003c327b
:02070f003c317b
:020710003c307b
:020711003c2f7b
:020712003c2e7b
:020713003c2d7b
:020714003c2c7b
:020715003c2b7b
:020716003c2a7b
:020717003c297b
:020718003c287b
:020719003c277b
:02071a003c267b
:02071b003c257b
:02071c003c237c
:02071d003c227c
:02071e003c217c
:02071f003c207c
:020720003c1f7c
:020721003c1e7c
:020722003c1d7c
:020723003c1c7c
:020724003c1b7c
:020725003c1a7c
:020726003c197c
:020727003c187c
:020728003c177c
:020729003c157d
:02072a003c147d
:02072b003c137d
:02072c003c127d
:02072d003c117d
:02072e003c107d
:02072f003c0f7d
:020730003c0e7d
:020731003c0d7d
:020732003c0c7d
:020733003c0b7d
:020734003c0a7d
:020735003c087e
:020736003c077e
:020737003c067e
:020738003c057e
:020739003c047e
:02073a003c037e
:02073b003c027e
:02073c003c017e
:02073d003c007e
:02073e003bff7f
:02073f003bfe7f
:020740003bfc80
:020741003bfb80
:020742003bfa80
:020743003bf980
:020744003bf880
:020745003bf780
:020746003bf680
:020747003bf580
:020748003bf480
:020749003bf380
:02074a003bf181
:02074b003bf081
:02074c003bef81
:02074d003bee81
:02074e003bed81
:02074f003bec81
:020750003beb81
:020751003bea81
:020752003be981
:020753003be881
:020754003be682
:020755003be582
:020756003be482
:020757003be382
:020758003be282
:020759003be182
:02075a003be082
:02075b003bdf82
:02075c003bde82
:02075d003bdc83
:02075e003bdb83
:02075f003bda83
:020760003bd983
:020761003bd883
:020762003bd783
:020763003bd683
:020764003bd583
:020765003bd483
:020766003bd284
:020767003bd184
:020768003bd084
:020769003bcf84
:02076a003bce84
:02076b003bcd84
:02076c003bcc84
:02076d003bcb84
:02076e003bc985
:02076f003bc885
:020770003bc785
:020771003bc685
:020772003bc585
:020773003bc485
:020774003bc385
:020775003bc285
:020776003bc086
:020777003bbf86
:020778003bbe86
:020779003bbd86
:02077a003bbc86
:02077b003bbb86
:02077c003bba86
:02077d003bb986
:02077e003bb787
:02077f003bb687
:020780003bb587
:020781003bb487
:020782003bb387
:020783003bb287
:020784003bb187
:020785003bb087
:020786003bae88
:020787003bad88
:020788003bac88
:020789003bab88
:02078a003baa88
:02078b003ba988
:02078c003ba888
:02078d003ba689
:02078e003ba589
:02078f003ba489
:020790003ba389
:020791003ba289
:020792003ba189
:020793003ba089
:020794003b9e8a
:020795003b9d8a
:020796003b9c8a
:020797003b9b8a
:020798003b9a8a
:020799003b998a
:02079a003b988a
:02079b003b968b
:02079c003b958b
:02079d003b948b
:02079e003b938b
:02079f003b928b
:0207a0003b918b
:0207a1003b908b
:0207a2003b8e8c
:0207a3003b8d8c
:0207a4003b8c8c
:0207a5003b8b8c
:0207a6003b8a8c
:0207a7003b898c
:0207a8003b888c
:0207a9003b868d
:0207aa003b858d
:0207ab003b848d
:0207ac003b838d
:0207ad003b828d
:0207ae003b818d
:0207af003b7f8e
:0207b0003b7e8e
:0207b1003b7d8e
:0207b2003b7c8e
:0207b3003b7b8e
:0207b4003b7a8e
:0207b5003b798e
:0207b6003b778f
:0207b7003b768f
:0207b8003b758f
:0207b9003b748f
:0207ba003b738f
:0207bb003b728f
:0207bc003b7090
:0207bd003b6f90
:0207be003b6e90
:0207bf003b6d90
:0207c0003b6c90
:0207c1003b6b90
:0207c2003b6991
:0207c3003b6891
:0207c4003b6791
:0207c5003b6691
:0207c6003b6591
:0207c7003b6491
:0207c8003b6292
:0207c9003b6192
:0207ca003b6092
:0207cb003b5f92
:0207cc003b5e92
:0207cd003b5d92
:0207ce003b5b93
:0207cf003b5a93
:0207d0003b5993
:0207d1003b5893
:0207d2003b5793
:0207d3003b5594
:0207d4003b5494
:0207d5003b5394
:0207d6003b5294
:0207d7003b5194
:0207d8003b5094
:0207d9003b4e95
:0207da003b4d95
:0207db003b4c95
:0207dc003b4b95
:0207dd003b4a95
:0207de003b4896
:0207df003b4796
:0207e0003b4696
:0207e1003b4596
:0207e2003b4496
:0207e3003b4396
:0207e4003b4197
:0207e5003b4097
:0207e6003b3f97
:0207e7003b3e97
:0207e8003b3d97
:0207e9003b3b98
:0207ea003b3a98
:0207eb003b3998
:0207ec003b3898
:0207ed003b3798
:0207ee003b3599
:0207ef003b3499
:0207f0003b3399
:0207f1003b3299
:0207f2003b3199
:0207f3003b2f9a
:0207f4003b2e9a
:0207f5003b2d9a
:0207f6003b2c9a
:0207f7003b2b9a
:0207f8003b2a9a
:0207f9003b289b
:0207fa003b279b
:0207fb003b269b
:0207fc003b259b
:0207fd003b249b
:0207fe003b229c
:0207ff003b219c
:020800003b209b
:020801003b1f9b
:020802003b1e9b
:020803003b1c9c
:020804003b1b9c
:020805003b1a9c
:020806003b199c
:020807003b179d
:020808003b169d
:020809003b159d
:02080a003b149d
:02080b003b139d
:02080c003b119e
:02080d003b109e
:02080e003b0f9e
:02080f003b0e9e
:020810003b0d9e
:020811003b0b9f
:020812003b0a9f
:020813003b099f
:020814003b089f
:020815003b079f
:020816003b05a0
:020817003b04a0
:020818003b03a0
:020819003b02a0
:02081a003b00a1
:02081b003affa2
:02081c003afea2
:02081d003afda2
:02081e003afca2
:02081f003afaa3
:020820003af9a3
:020821003af8a3
:020822003af7a3
:020823003af6a3
:020824003af4a4
:020825003af3a4
:020826003af2a4
:020827003af1a4
:020828003aefa5
:020829003aeea5
:02082a003aeda5
:02082b003aeca5
:02082c003aeaa6
:02082d003ae9a6
:02082e003ae8a6
:02082f003ae7a6
:020830003ae6a6
:020831003ae4a7
:020832003ae3a7
:020833003ae2a7
:020834003ae1a7
:020835003adfa8
:020836003adea8
:020837003adda8
:020838003adca8
:020839003adaa9
:02083a003ad9a9
:02083b003ad8a9
:02083c003ad7a9
:02083d003ad6a9
:02083e003ad4aa
:02083f003ad3aa
:020840003ad2aa
:020841003ad1aa
:020842003acfab
:020843003aceab
:020844003acdab
:020845003accab
:020846003acaac
:020847003ac9ac
:020848003ac8ac
:020849003ac7ac
:02084a003ac5ad
:02084b003ac4ad
:02084c003ac3ad
:02084d003ac2ad
:02084e003ac0ae
:02084f003abfae
:020850003abeae
:020851003abdae
:020852003abbaf
:020853003abaaf
:020854003ab9af
:020855003ab8af
:020856003ab6b0
:020857003ab5b0
:020858003ab4b0
:020859003ab3b0
:02085a003ab1b1
:02085b003ab0b1
:02085c003aafb1
:02085d003aaeb1
:02085e003aacb2
:02085f003aabb2
:020860003aaab2
:020861003aa9b2
:020862003aa7b3
:020863003aa6b3
:020864003aa5b3
:020865003aa4b3
:020866003aa2b4
:020867003aa1b4
:020868003aa0b4
:020869003a9fb4
:02086a003a9db5
:02086b003a9cb5
:02086c003a9bb5
:02086d003a9ab5
:02086e003a98b6
:02086f003a97b6
:020870003a96b6
:020871003a95b6
:020872003a93b7
:020873003a92b7
:020874003a91b7
:020875003a8fb8
:020876003a8eb8
:020877003a8db8
:020878003a8cb8
:020879003a8ab9
:02087a003a89b9
:02087b003a88b9
:02087c003a87b9
:02087d003a85ba
:02087e003a84ba
:02087f003a83ba
:020880003a81bb
:020881003a80bb
:020882003a7fbb
:020883003a7ebb
:020884003a7cbc
:020885003a7bbc
:020886003a7abc
:020887003a79bc
:020888003a77bd
:020889003a76bd
:02088a003a75bd
:02088b003a73be
:02088c003a72be
:02088d003a71be
:02088e003a70be
:02088f003a6ebf
:020890003a6dbf
:020891003a6cbf
:020892003a6ac0
:020893003a69c0
:020894003a68c0
:020895003a67c0
:020896003a65c1
:020897003a64c1
:020898003a63c1
:020899003a62c1
:02089a003a60c2
:02089b003a5fc2
:02089c003a5ec2
:02089d003a5cc3
:02089e003a5bc3
:02089f003a5ac3
:0208a0003a58c4
:0208a1003a57c4
:0208a2003a56c4
:0208a3003a55c4
:0208a4003a53c5
:0208a5003a52c5
:0208a6003a51c5
:0208a7003a4fc6
:0208a8003a4ec6
:0208a9003a4dc6
:0208aa003a4cc6
:0208ab003a4ac7
:0208ac003a49c7
:0208ad003a48c7
:0208ae003a46c8
:0208af003a45c8
:0208b0003a44c8
:0208b1003a42c9
:0208b2003a41c9
:0208b3003a40c9
:0208b4003a3fc9
:0208b5003a3dca
:0208b6003a3cca
:0208b7003a3bca
:0208b8003a39cb
:0208b9003a38cb
:0208ba003a37cb
:0208bb003a35cc
:0208bc003a34cc
:0208bd003a33cc
:0208be003a32cc
:0208bf003a30cd
:0208c0003a2fcd
:0208c1003a2ecd
:0208c2003a2cce
:0208c3003a2bce
:0208c4003a2ace
:0208c5003a28cf
:0208c6003a27cf
:0208c7003a26cf
:0208c8003a24d0
:0208c9003a23d0
:0208ca003a22d0
:0208cb003a20d1
:0208cc003a1fd1
:0208cd003a1ed1
:0208ce003a1dd1
:0208cf003a1bd2
:0208d0003a1ad2
:0208d1003a19d2
:0208d2003a17d3
:0208d3003a16d3
:0208d4003a15d3
:0208d5003a13d4
:0208d6003a12d4
:0208d7003a11d4
:0208d8003a0fd5
:0208d9003a0ed5
:0208da003a0dd5
:0208db003a0bd6
:0208dc003a0ad6
:0208dd003a09d6
:0208de003a07d7
:0208df003a06d7
:0208e0003a05d7
:0208e1003a03d8
:0208e2003a02d8
:0208e3003a01d8
:0208e40039ffda
:0208e50039feda
:0208e60039fdda
:0208e70039fbdb
:0208e80039fadb
:0208e90039f9db
:0208ea0039f7dc
:0208eb0039f6dc
:0208ec0039f5dc
:0208ed0039f3dd
:0208ee0039f2dd
:0208ef0039f1dd
:0208f00039efde
:0208f10039eede
:0208f20039edde
:0208f30039ebdf
:0208f40039eadf
:0208f50039e9df
:0208f60039e7e0
:0208f70039e6e0
:0208f80039e5e0
:0208f90039e3e1
:0208fa0039e2e1
:0208fb0039e1e1
:0208fc0039dfe2
:0208fd0039dee2
:0208fe0039dde2
:0208ff0039dbe3
:0209000039dae2
:0209010039d9e2
:0209020039d7e3
:0209030039d6e3
:0209040039d5e3
:0209050039d3e4
:0209060039d2e4
:0209070039d1e4
:0209080039cfe5
:0209090039cee5
:02090a0039cde5
:02090b0039cbe6
:02090c0039cae6
:02090d0039c9e6
:02090e0039c7e7
:02090f0039c6e7
:0209100039c4e8
:0209110039c3e8
:0209120039c2e8
:0209130039c0e9
:0209140039bfe9
:0209150039bee9
:0209160039bcea
:0209170039bbea
:0209180039baea
:0209190039b8eb
:02091a0039b7eb
:02091b0039b6eb
:02091c0039b4ec
:02091d0039b3ec
:02091e0039b2ec
:02091f0039b0ed
:0209200039afed
:0209210039adee
:0209220039acee
:0209230039abee
:0209240039a9ef
:0209250039a8ef
:0209260039a7ef
:0209270039a5f0
:0209280039a4f0
:0209290039a3f0
:02092a0039a1f1
:02092b0039a0f1
:02092c00399ef2
:02092d00399df2
:02092e00399cf2
:02092f00399af3
:020930003999f3
:020931003998f3
:020932003996f4
:020933003995f4
:020934003993f5
:020935003992f5
:020936003991f5
:02093700398ff6
:02093800398ef6
:02093900398df6
:02093a00398bf7
:02093b00398af7
:02093c003988f8
:02093d003987f8
:02093e003986f8
:02093f003984f9
:020940003983f9
:020941003982f9
:020942003980fa
:02094300397ffa
:02094400397dfb
:02094500397cfb
:02094600397bfb
:020947003979fc
:020948003978fc
:020949003977fc
:02094a003975fd
:02094b003974fd
:02094c003972fe
:02094d003971fe
:02094e003970fe
:02094f00396eff
:02095000396dff
:02095100396b00
:02095200396a00
:02095300396900
:02095400396701
:02095500396601
:02095600396501
:02095700396302
:02095800396202
:02095900396003
:02095a00395f03
:02095b00395e03
:02095c00395c04
:02095d00395b04
:02095e00395905
:02095f00395805
:02096000395705
:02096100395506
:02096200395406
:02096300395207
:02096400395107
:02096500395007
:02096600394e08
:02096700394d08
:02096800394b09
:02096900394a09
:02096a00394909
:02096b0039470a
:02096c0039460a
:02096d0039440b
:02096e0039430b
:02096f0039420b
:0209700039400c
:02097100393f0c
:02097200393d0d
:02097300393c0d
:02097400393b0d
:0209750039390e
:0209760039380e
:0209770039360f
:0209780039350f
:0209790039340f
:02097a00393210
:02097b00393110
:02097c00392f11
:02097d00392e11
:02097e00392d11
:02097f00392b12
:02098000392a12
:02098100392813
:02098200392713
:02098300392514
:02098400392414
:02098500392314
:02098600392115
:02098700392015
:02098800391e16
:02098900391d16
:02098a00391c16
:02098b00391a17
:02098c00391917
:02098d00391718
:02098e00391618
:02098f00391419
:02099000391319
:02099100391219
:0209920039101a
:02099300390f1a
:02099400390d1b
:02099500390c1b
:02099600390a1c
:0209970039091c
:0209980039081c
:0209990039061d
:02099a0039051d
:02099b0039031e
:02099c0039021e
:02099d0039011e
:02099e0038ff20
:02099f0038fe20
:0209a00038fc21
:0209a10038fb21
:0209a20038f922
:0209a30038f822
:0209a40038f623
:0209a50038f523
:0209a60038f423
:0209a70038f224
:0209a80038f124
:0209a90038ef25
:0209aa0038ee25
:0209ab0038ec26
:0209ac0038eb26
:0209ad0038ea26
:0209ae0038e827
:0209af0038e727
:0209b00038e528
:0209b10038e428
:0209b20038e229
:0209b30038e129
:0209b40038e029
:0209b50038de2a
:0209b60038dd2a
:0209b70038db2b
:0209b80038da2b
:0209b90038d82c
:0209ba0038d72c
:0209bb0038d52d
:0209bc0038d42d
:0209bd0038d32d
:0209be0038d12e
:0209bf0038d02e
:0209c00038ce2f
:0209c10038cd2f
:0209c20038cb30
:0209c30038ca30
:0209c40038c831
:0209c50038c731
:0209c60038c631
:0209c70038c432
:0209c80038c332
:0209c90038c133
:0209ca0038c033
:0209cb0038be34
:0209cc0038bd34
:0209cd0038bb35
:0209ce0038ba35
:0209cf0038b836
:0209d00038b736
:0209d10038b636
:0209d20038b437
:0209d30038b337
:0209d40038b138
:0209d50038b038
:0209d60038ae39
:0209d70038ad39
:0209d80038ab3a
:0209d90038aa3a
:0209da0038a83b
:0209db0038a73b
:0209dc0038a53c
:0209dd0038a43c
:0209de0038a33c
:0209df0038a13d
:0209e00038a03d
:0209e100389e3e
:0209e200389d3e
:0209e300389b3f
:0209e400389a3f
:0209e500389840
:0209e600389740
:0209e700389541
:0209e800389441
:0209e900389242
:0209ea00389142
:0209eb00388f43
:0209ec00388e43
:0209ed00388d43
:0209ee00388b44
:0209ef00388a44
:0209f000388845
:0209f100388745
:0209f200388546
:0209f300388446
:0209f400388247
:0209f500388147
:0209f600387f48
:0209f700387e48
:0209f800387c49
:0209f900387b49
:0209fa0038794a
:0209fb0038784a
:0209fc0038764b
:0209fd0038754b
:0209fe0038734c
:0209ff0038724c
:020a000038714b
:020a0100386f4c
:020a0200386e4c
:020a0300386c4d
:020a0400386b4d
:020a050038694e
:020a060038684e
:020a070038664f
:020a080038654f
:020a0900386350
:020a0a00386250
:020a0b00386051
:020a0c00385f51
:020a0d00385d52
:020a0e00385c52
:020a0f00385a53
:020a1000385953
:020a1100385754
:020a1200385654
:020a1300385455
:020a1400385355
:020a1500385156
:020a1600385056
:020a1700384e57
:020a1800384d57
:020a1900384b58
:020a1a00384a58
:020a1b00384859
:020a1c00384759
:020a1d0038455a
:020a1e0038445a
:020a1f0038425b
:020a200038415b
:020a2100383f5c
:020a2200383e5c
:020a2300383c5d
:020a2400383b5d
:020a250038395e
:020a260038385e
:020a270038365f
:020a280038355f
:020a2900383360
:020a2a00383260
:020a2b00383061
:020a2c00382f61
:020a2d00382d62
:020a2e00382c62
:020a2f00382a63
:020a3000382963
:020a3100382764
:020a3200382664
:020a3300382465
:020a3400382365
:020a3500382166
:020a3600382066
:020a3700381e67
:020a3800381d67
:020a3900381b68
:020a3a00381a68
:020a3b00381869
:020a3c00381769
:020a3d0038156a
:020a3e0038146a
:020a3f0038126b
:020a400038116b
:020a4100380f6c
:020a4200380e6c
:020a4300380c6d
:020a4400380b6d
:020a450038096e
:020a460038086e
:020a470038066f
:020a480038056f
:020a4900380370
:020a4a00380171
:020a4b00380071
:020a4c0037fe73
:020a4d0037fd73
:020a4e0037fb74
:020a4f0037fa74
:020a500037f875
:020a510037f775
:020a520037f576
:020a530037f476
:020a540037f277
:020a550037f177
:020a560037ef78
:020a570037ee78
:020a580037ec79
:020a590037eb79
:020a5a0037e97a
:020a5b0037e87a
:020a5c0037e67b
:020a5d0037e57b
:020a5e0037e37c
:020a5f0037e17d
:020a600037e07d
:020a610037de7e
:020a620037dd7e
:020a630037db7f
:020a640037da7f
:020a650037d880
:020a660037d780
:020a670037d581
:020a680037d481
:020a690037d282
:020a6a0037d182
:020a6b0037cf83
:020a6c0037cd84
:020a6d0037cc84
:020a6e0037ca85
:020a6f0037c985
:020a700037c786
:020a710037c686
:020a720037c487
:020a730037c387
:020a740037c188
:020a750037c088
:020a760037be89
:020a770037bd89
:020a780037bb8a
:020a790037b98b
:020a7a0037b88b
:020a7b0037b68c
:020a7c0037b58c
:020a7d0037b38d
:020a7e0037b28d
:020a7f0037b08e
:020a800037af8e
:020a810037ad8f
:020a820037ac8f
:020a830037aa90
:020a840037a891
:020a850037a791
:020a860037a592
:020a870037a492
:020a880037a293
:020a890037a193
:020a8a00379f94
:020a8b00379e94
:020a8c00379c95
:020a8d00379a96
:020a8e00379996
:020a8f00379797
:020a9000379697
:020a9100379498
:020a9200379398
:020a9300379199
:020a9400379099
:020a9500378e9a
:020a9600378c9b
:020a9700378b9b
:020a980037899c
:020a990037889c
:020a9a0037869d
:020a9b0037859d
:020a9c0037839e
:020a9d0037829e
:020a9e0037809f
:020a9f00377ea0
:020aa000377da0
:020aa100377ba1
:020aa200377aa1
:020aa3003778a2
:020aa4003777a2
:020aa5003775a3
:020aa6003773a4
:020aa7003772a4
:020aa8003770a5
:020aa900376fa5
:020aaa00376da6
:020aab00376ca6
:020aac00376aa7
:020aad003768a8
:020aae003767a8
:020aaf003765a9
:020ab0003764a9
:020ab1003762aa
:020ab2003761aa
:020ab300375fab
:020ab400375dac
:020ab500375cac
:020ab600375aad
:020ab7003759ad
:020ab8003757ae
:020ab9003756ae
:020aba003754af
:020abb003752b0
:020abc003751b0
:020abd00374fb1
:020abe00374eb1
:020abf00374cb2
:020ac000374ab3
:020ac1003749b3
:020ac2003747b4
:020ac3003746b4
:020ac4003744b5
:020ac5003743b5
:020ac6003741b6
:020ac700373fb7
:020ac800373eb7
:020ac900373cb8
:020aca00373bb8
:020acb003739b9
:020acc003737ba
:020acd003736ba
:020ace003734bb
:020acf003733bb
:020ad0003731bc
:020ad1003730bc
:020ad200372ebd
:020ad300372cbe
:020ad400372bbe
:020ad5003729bf
:020ad6003728bf
:020ad7003726c0
:020ad8003724c1
:020ad9003723c1
:020ada003721c2
:020adb003720c2
:020adc00371ec3
:020add00371cc4
:020ade00371bc4
:020adf003719c5
:020ae0003718c5
:020ae1003716c6
:020ae2003714c7
:020ae3003713c7
:020ae4003711c8
:020ae5003710c8
:020ae600370ec9
:020ae700370cca
:020ae800370bca
:020ae9003709cb
:020aea003708cb
:020aeb003706cc
:020aec003704cd
:020aed003703cd
:020aee003701ce
:020aef003700ce
:020af00036fed0
:020af10036fcd1
:020af20036fbd1
:020af30036f9d2
:020af40036f8d2
:020af50036f6d3
:020af60036f4d4
:020af70036f3d4
:020af80036f1d5
:020af90036efd6
:020afa0036eed6
:020afb0036ecd7
:020afc0036ebd7
:020afd0036e9d8
:020afe0036e7d9
:020aff0036e6d9
:020b000036e4d9
:020b010036e3d9
:020b020036e1da
:020b030036dfdb
:020b040036dedb
:020b050036dcdc
:020b060036dadd
:020b070036d9dd
:020b080036d7de
:020b090036d6de
:020b0a0036d4df
:020b0b0036d2e0
:020b0c0036d1e0
:020b0d0036cfe1
:020b0e0036cee1
:020b0f0036cce2
:020b100036cae3
:020b110036c9e3
:020b120036c7e4
:020b130036c5e5
:020b140036c4e5
:020b150036c2e6
:020b160036c1e6
:020b170036bfe7
:020b180036bde8
:020b190036bce8
:020b1a0036bae9
:020b1b0036b8ea
:020b1c0036b7ea
:020b1d0036b5eb
:020b1e0036b3ec
:020b1f0036b2ec
:020b200036b0ed
:020b210036afed
:020b220036adee
:020b230036abef
:020b240036aaef
:020b250036a8f0
:020b260036a6f1
:020b270036a5f1
:020b280036a3f2
:020b290036a2f2
:020b2a0036a0f3
:020b2b00369ef4
:020b2c00369df4
:020b2d00369bf5
:020b2e003699f6
:020b2f003698f6
:020b30003696f7
:020b31003694f8
:020b32003693f8
:020b33003691f9
:020b3400368ffa
:020b3500368efa
:020b3600368cfb
:020b3700368bfb
:020b38003689fc
:020b39003687fd
:020b3a003686fd
:020b3b003684fe
:020b3c003682ff
:020b3d003681ff
:020b3e00367f00
:020b3f00367d01
:020b4000367c01
:020b4100367a02
:020b4200367803
:020b4300367703
:020b4400367504
:020b4500367404
:020b4600367205
:020b4700367006
:020b4800366f06
:020b4900366d07
:020b4a00366b08
:020b4b00366a08
:020b4c00366809
:020b4d0036660a
:020b4e0036650a
:020b4f0036630b
:020b500036610c
:020b510036600c
:020b5200365e0d
:020b5300365c0e
:020b5400365b0e
:020b550036590f
:020b5600365710
:020b5700365610
:020b5800365411
:020b5900365212
:020b5a00365112
:020b5b00364f13
:020b5c00364d14
:020b5d00364c14
:020b5e00364a15
:020b5f00364816
:020b6000364716
:020b6100364517
:020b6200364318
:020b6300364218
:020b6400364019
:020b6500363e1a
:020b6600363d1a
:020b6700363b1b
:020b680036391c
:020b690036381c
:020b6a0036361d
:020b6b0036341e
:020b6c0036331e
:020b6d0036311f
:020b6e00362f20
:020b6f00362e20
:020b7000362c21
:020b7100362a22
:020b7200362922
:020b7300362723
:020b7400362524
:020b7500362424
:020b7600362225
:020b7700362026
:020b7800361f26
:020b7900361d27
:020b7a00361b28
:020b7b00361a28
:020b7c00361829
:020b7d0036162a
:020b7e0036152a
:020b7f0036132b
:020b800036112c
:020b810036102c
:020b8200360e2d
:020b8300360c2e
:020b8400360b2e
:020b850036092f
:020b8600360730
:020b8700360531
:020b8800360431
:020b8900360232
:020b8a00360033
:020b8b0035ff34
:020b8c0035fd35
:020b8d0035fb36
:020b8e0035fa36
:020b8f0035f837
:020b900035f638
:020b910035f538
:020b920035f339
:020b930035f13a
:020b940035f03a
:020b950035ee3b
:020b960035ec3c
:020b970035ea3d
:020b980035e93d
:020b990035e73e
:020b9a0035e53f
:020b9b0035e43f
:020b9c0035e240
:020b9d0035e041
:020b9e0035df41
:020b9f0035dd42
:020ba00035db43
:020ba10035d944
:020ba20035d844
:020ba30035d645
:020ba40035d446
:020ba50035d346
:020ba60035d147
:020ba70035cf48
:020ba80035ce48
:020ba90035cc49
:020baa0035ca4a
:020bab0035c84b
:020bac0035c74b
:020bad0035c54c
:020bae0035c34d
:020baf0035c24d
:020bb00035c04e
:020bb10035be4f
:020bb20035bd4f
:020bb30035bb50
:020bb40035b951
:020bb50035b752
:020bb60035b652
:020bb70035b453
:020bb80035b254
:020bb90035b154
:020bba0035af55
:020bbb0035ad56
:020bbc0035ab57
:020bbd0035aa57
:020bbe0035a858
:020bbf0035a659
:020bc00035a559
:020bc10035a35a
:020bc20035a15b
:020bc300359f5c
:020bc400359e5c
:020bc500359c5d
:020bc600359a5e
:020bc70035995e
:020bc80035975f
:020bc900359560
:020bca00359361
:020bcb00359261
:020bcc00359062
:020bcd00358e63
:020bce00358d63
:020bcf00358b64
:020bd000358965
:020bd100358766
:020bd200358666
:020bd300358467
:020bd400358268
:020bd500358168
:020bd600357f69
:020bd700357d6a
:020bd800357b6b
:020bd900357a6b
:020bda0035786c
:020bdb0035766d
:020bdc0035746e
:020bdd0035736e
:020bde0035716f
:020bdf00356f70
:020be000356e70
:020be100356c71
:020be200356a72
:020be300356873
:020be400356773
:020be500356574
:020be600356375
:020be700356176
:020be800356076
:020be900355e77
:020bea00355c78
:020beb00355b78
:020bec00355979
:020bed0035577a
:020bee0035557b
:020bef0035547b
:020bf00035527c
:020bf10035507d
:020bf200354e7e
:020bf300354d7e
:020bf400354b7f
:020bf500354980
:020bf600354781
:020bf700354681
:020bf800354482
:020bf900354283
:020bfa00354084
:020bfb00353f84
:020bfc00353d85
:020bfd00353b86
:020bfe00353987
:020bff00353887
:020c0000353687
:020c0100353488
:020c0200353289
:020c0300353189
:020c0400352f8a
:020c0500352d8b
:020c0600352b8c
:020c0700352a8c
:020c080035288d
:020c090035268e
:020c0a0035248f
:020c0b0035238f
:020c0c00352190
:020c0d00351f91
:020c0e00351d92
:020c0f00351c92
:020c1000351a93
:020c1100351894
:020c1200351695
:020c1300351595
:020c1400351396
:020c1500351197
:020c1600350f98
:020c1700350e98
:020c1800350c99
:020c1900350a9a
:020c1a0035089b
:020c1b0035079b
:020c1c0035059c
:020c1d0035039d
:020c1e0035019e
:020c1f0035009e
:020c200034fea0
:020c210034fca1
:020c220034faa2
:020c230034f9a2
:020c240034f7a3
:020c250034f5a4
:020c260034f3a5
:020c270034f2a5
:020c280034f0a6
:020c290034eea7
:020c2a0034eca8
:020c2b0034eaa9
:020c2c0034e9a9
:020c2d0034e7aa
:020c2e0034e5ab
:020c2f0034e3ac
:020c300034e2ac
:020c310034e0ad
:020c320034deae
:020c330034dcaf
:020c340034dbaf
:020c350034d9b0
:020c360034d7b1
:020c370034d5b2
:020c380034d3b3
:020c390034d2b3
:020c3a0034d0b4
:020c3b0034ceb5
:020c3c0034ccb6
:020c3d0034cbb6
:020c3e0034c9b7
:020c3f0034c7b8
:020c400034c5b9
:020c410034c3ba
:020c420034c2ba
:020c430034c0bb
:020c440034bebc
:020c450034bcbd
:020c460034bbbd
:020c470034b9be
:020c480034b7bf
:020c490034b5c0
:020c4a0034b3c1
:020c4b0034b2c1
:020c4c0034b0c2
:020c4d0034aec3
:020c4e0034acc4
:020c4f0034abc4
:020c500034a9c5
:020c510034a7c6
:020c520034a5c7
:020c530034a3c8
:020c540034a2c8
:020c550034a0c9
:020c5600349eca
:020c5700349ccb
:020c5800349acc
:020c59003499cc
:020c5a003497cd
:020c5b003495ce
:020c5c003493cf
:020c5d003491d0
:020c5e003490d0
:020c5f00348ed1
:020c6000348cd2
:020c6100348ad3
:020c62003489d3
:020c63003487d4
:020c64003485d5
:020c65003483d6
:020c66003481d7
:020c67003480d7
:020c6800347ed8
:020c6900347cd9
:020c6a00347ada
:020c6b003478db
:020c6c003477db
:020c6d003475dc
:020c6e003473dd
:020c6f003471de
:020c7000346fdf
:020c7100346edf
:020c7200346ce0
:020c7300346ae1
:020c74003468e2
:020c75003466e3
:020c76003465e3
:020c77003463e4
:020c78003461e5
:020c7900345fe6
:020c7a00345de7
:020c7b00345ce7
:020c7c00345ae8
:020c7d003458e9
:020c7e003456ea
:020c7f003454eb
:020c80003452ec
:020c81003451ec
:020c8200344fed
:020c8300344dee
:020c8400344bef
:020c85003449f0
:020c86003448f0
:020c87003446f1
:020c88003444f2
:020c89003442f3
:020c8a003440f4
:020c8b00343ff4
:020c8c00343df5
:020c8d00343bf6
:020c8e003439f7
:020c8f003437f8
:020c90003435f9
:020c91003434f9
:020c92003432fa
:020c93003430fb
:020c9400342efc
:020c9500342cfd
:020c9600342bfd
:020c97003429fe
:020c98003427ff
:020c9900342500
:020c9a00342301
:020c9b00342102
:020c9c00342002
:020c9d00341e03
:020c9e00341c04
:020c9f00341a05
:020ca000341806
:020ca100341706
:020ca200341507
:020ca300341308
:020ca400341109
:020ca500340f0a
:020ca600340d0b
:020ca700340c0b
:020ca800340a0c
:020ca90034080d
:020caa0034060e
:020cab0034040f
:020cac00340210
:020cad00340110
:020cae0033ff12
:020caf0033fd13
:020cb00033fb14
:020cb10033f915
:020cb20033f716
:020cb30033f616
:020cb40033f417
:020cb50033f218
:020cb60033f019
:020cb70033ee1a
:020cb80033ec1b
:020cb90033eb1b
:020cba0033e91c
:020cbb0033e71d
:020cbc0033e51e
:020cbd0033e31f
:020cbe0033e120
:020cbf0033e020
:020cc00033de21
:020cc10033dc22
:020cc20033da23
:020cc30033d824
:020cc40033d625
:020cc50033d525
:020cc60033d326
:020cc70033d127
:020cc80033cf28
:020cc90033cd29
:020cca0033cb2a
:020ccb0033c92b
:020ccc0033c82b
:020ccd0033c62c
:020cce0033c42d
:020ccf0033c22e
:020cd00033c02f
:020cd10033be30
:020cd20033bd30
:020cd30033bb31
:020cd40033b932
:020cd50033b733
:020cd60033b534
:020cd70033b335
:020cd80033b136
:020cd90033b036
:020cda0033ae37
:020cdb0033ac38
:020cdc0033aa39
:020cdd0033a83a
:020cde0033a63b
:020cdf0033a43c
:020ce00033a33c
:020ce10033a13d
:020ce200339f3e
:020ce300339d3f
:020ce400339b40
:020ce500339941
:020ce600339742
:020ce700339642
:020ce800339443
:020ce900339244
:020cea00339045
:020ceb00338e46
:020cec00338c47
:020ced00338a48
:020cee00338948
:020cef00338749
:020cf00033854a
:020cf10033834b
:020cf20033814c
:020cf300337f4d
:020cf400337d4e
:020cf500337c4e
:020cf600337a4f
:020cf700337850
:020cf800337651
:020cf900337452
:020cfa00337253
:020cfb00337054
:020cfc00336e55
:020cfd00336d55
:020cfe00336b56
:020cff00336957
:020d0000336757
:020d0100336558
:020d0200336359
:020d030033615a
:020d0400335f5b
:020d0500335e5b
:020d0600335c5c
:020d0700335a5d
:020d080033585e
:020d090033565f
:020d0a00335460
:020d0b00335261
:020d0c00335062
:020d0d00334f62
:020d0e00334d63
:020d0f00334b64
:020d1000334965
:020d1100334766
:020d1200334567
:020d1300334368
:020d1400334169
:020d1500334069
:020d1600333e6a
:020d1700333c6b
:020d1800333a6c
:020d190033386d
:020d1a0033366e
:020d1b0033346f
:020d1c00333270
:020d1d00333071
:020d1e00332f71
:020d1f00332d72
:020d2000332b73
:020d2100332974
:020d2200332775
:020d2300332576
:020d2400332377
:020d2500332178
:020d2600331f79
:020d2700331e79
:020d2800331c7a
:020d2900331a7b
:020d2a0033187c
:020d2b0033167d
:020d2c0033147e
:020d2d0033127f
:020d2e00331080
:020d2f00330e81
:020d3000330d81
:020d3100330b82
:020d3200330983
:020d3300330784
:020d3400330585
:020d3500330386
:020d3600330187
:020d370032ff89
:020d380032fd8a
:020d390032fb8b
:020d3a0032fa8b
:020d3b0032f88c
:020d3c0032f68d
:020d3d0032f48e
:020d3e0032f28f
:020d3f0032f090
:020d400032ee91
:020d410032ec92
:020d420032ea93
:020d430032e894
:020d440032e794
:020d450032e595
:020d460032e396
:020d470032e197
:020d480032df98
:020d490032dd99
:020d4a0032db9a
:020d4b0032d99b
:020d4c0032d79c
:020d4d0032d59d
:020d4e0032d49d
:020d4f0032d29e
:020d500032d09f
:020d510032cea0
:020d520032cca1
:020d530032caa2
:020d540032c8a3
:020d550032c6a4
:020d560032c4a5
:020d570032c2a6
:020d580032c0a7
:020d590032bea8
:020d5a0032bda8
:020d5b0032bba9
:020d5c0032b9aa
:020d5d0032b7ab
:020d5e0032b5ac
:020d5f0032b3ad
:020d600032b1ae
:020d610032afaf
:020d620032adb0
:020d630032abb1
:020d640032a9b2
:020d650032a7b3
:020d660032a6b3
:020d670032a4b4
:020d680032a2b5
:020d690032a0b6
:020d6a00329eb7
:020d6b00329cb8
:020d6c00329ab9
:020d6d003298ba
:020d6e003296bb
:020d6f003294bc
:020d70003292bd
:020d71003290be
:020d7200328ebf
:020d7300328dbf
:020d7400328bc0
:020d75003289c1
:020d76003287c2
:020d77003285c3
:020d78003283c4
:020d79003281c5
:020d7a00327fc6
:020d7b00327dc7
:020d7c00327bc8
:020d7d003279c9
:020d7e003277ca
:020d7f003275cb
:020d80003273cc
:020d81003272cc
:020d82003270cd
:020d8300326ece
:020d8400326ccf
:020d8500326ad0
:020d86003268d1
:020d87003266d2
:020d88003264d3
:020d89003262d4
:020d8a003260d5
:020d8b00325ed6
:020d8c00325cd7
:020d8d00325ad8
:020d8e003258d9
:020d8f003256da
:020d90003254db
:020d91003253db
:020d92003251dc
:020d9300324fdd
:020d9400324dde
:020d9500324bdf
:020d96003249e0
:020d97003247e1
:020d98003245e2
:020d99003243e3
:020d9a003241e4
:020d9b00323fe5
:020d9c00323de6
:020d9d00323be7
:020d9e003239e8
:020d9f003237e9
:020da0003235ea
:020da1003233eb
:020da2003231ec
:020da3003230ec
:020da400322eed
:020da500322cee
:020da600322aef
:020da7003228f0
:020da8003226f1
:020da9003224f2
:020daa003222f3
:020dab003220f4
:020dac00321ef5
:020dad00321cf6
:020dae00321af7
:020daf003218f8
:020db0003216f9
:020db1003214fa
:020db2003212fb
:020db3003210fc
:020db400320efd
:020db500320cfe
:020db600320aff
:020db700320800
:020db800320700
:020db900320501
:020dba00320302
:020dbb00320103
:020dbc0031ff05
:020dbd0031fd06
:020dbe0031fb07
:020dbf0031f908
:020dc00031f709
:020dc10031f50a
:020dc20031f30b
:020dc30031f10c
:020dc40031ef0d
:020dc50031ed0e
:020dc60031eb0f
:020dc70031e910
:020dc80031e711
:020dc90031e512
:020dca0031e313
:020dcb0031e114
:020dcc0031df15
:020dcd0031dd16
:020dce0031db17
:020dcf0031d918
:020dd00031d719
:020dd10031d51a
:020dd20031d31b
:020dd30031d11c
:020dd40031cf1d
:020dd50031cd1e
:020dd60031cc1e
:020dd70031ca1f
:020dd80031c820
:020dd90031c621
:020dda0031c422
:020ddb0031c223
:020ddc0031c024
:020ddd0031be25
:020dde0031bc26
:020ddf0031ba27
:020de00031b828
:020de10031b629
:020de20031b42a
:020de30031b22b
:020de40031b02c
:020de50031ae2d
:020de60031ac2e
:020de70031aa2f
:020de80031a830
:020de90031a631
:020dea0031a432
:020deb0031a233
:020dec0031a034
:020ded00319e35
:020dee00319c36
:020def00319a37
:020df000319838
:020df100319639
:020df20031943a
:020df30031923b
:020df40031903c
:020df500318e3d
:020df600318c3e
:020df700318a3f
:020df800318840
:020df900318641
:020dfa00318442
:020dfb00318243
:020dfc00318044
:020dfd00317e45
:020dfe00317c46
:020dff00317a47
:020e0000317847
:020e0100317648
:020e0200317449
:020e030031724a
:020e040031704b
:020e0500316e4c
:020e0600316c4d
:020e0700316a4e
:020e080031684f
:020e0900316650
:020e0a00316451
:020e0b00316252
:020e0c00316053
:020e0d00315e54
:020e0e00315c55
:020e0f00315a56
:020e1000315857
:020e1100315658
:020e1200315459
:020e130031525a
:020e140031505b
:020e1500314e5c
:020e1600314c5d
:020e1700314a5e
:020e180031485f
:020e1900314660
:020e1a00314461
:020e1b00314262
:020e1c00314063
:020e1d00313e64
:020e1e00313c65
:020e1f00313a66
:020e2000313867
:020e2100313668
:020e2200313469
:020e230031326a
:020e240031306b
:020e2500312e6c
:020e2600312c6d
:020e2700312a6e
:020e280031286f
:020e2900312670
:020e2a00312471
:020e2b00312272
:020e2c00312073
:020e2d00311e74
:020e2e00311c75
:020e2f00311a76
:020e3000311877
:020e3100311678
:020e3200311479
:020e330031127a
:020e340031107b
:020e3500310e7c
:020e3600310c7d
:020e3700310a7e
:020e380031087f
:020e3900310680
:020e3a00310481
:020e3b00310282
:020e3c00310083
:020e3d0030fe85
:020e3e0030fc86
:020e3f0030fa87
:020e400030f888
:020e410030f689
:020e420030f48a
:020e430030f28b
:020e440030f08c
:020e450030ee8d
:020e460030ec8e
:020e470030ea8f
:020e480030e890
:020e490030e691
:020e4a0030e393
:020e4b0030e194
:020e4c0030df95
:020e4d0030dd96
:020e4e0030db97
:020e4f0030d998
:020e500030d799
:020e510030d59a
:020e520030d39b
:020e530030d19c
:020e540030cf9d
:020e550030cd9e
:020e560030cb9f
:020e570030c9a0
:020e580030c7a1
:020e590030c5a2
:020e5a0030c3a3
:020e5b0030c1a4
:020e5c0030bfa5
:020e5d0030bda6
:020e5e0030bba7
:020e5f0030b9a8
:020e600030b7a9
:020e610030b5aa
:020e620030b3ab
:020e630030b1ac
:020e640030afad
:020e650030adae
:020e660030abaf
:020e670030a9b0
:020e680030a6b2
:020e690030a4b3
:020e6a0030a2b4
:020e6b0030a0b5
:020e6c00309eb6
:020e6d00309cb7
:020e6e00309ab8
:020e6f003098b9
:020e70003096ba
:020e71003094bb
:020e72003092bc
:020e73003090bd
:020e7400308ebe
:020e7500308cbf
:020e7600308ac0
:020e77003088c1
:020e78003086c2
:020e79003084c3
:020e7a003082c4
:020e7b003080c5
:020e7c00307ec6
:020e7d00307cc7
:020e7e003079c9
:020e7f003077ca
:020e80003075cb
:020e81003073cc
:020e82003071cd
:020e8300306fce
:020e8400306dcf
:020e8500306bd0
:020e86003069d1
:020e87003067d2
:020e88003065d3
:020e89003063d4
:020e8a003061d5
:020e8b00305fd6
:020e8c00305dd7
:020e8d00305bd8
:020e8e003059d9
:020e8f003057da
:020e90003054dc
:020e91003052dd
:020e92003050de
:020e9300304edf
:020e9400304ce0
:020e9500304ae1
:020e96003048e2
:020e97003046e3
:020e98003044e4
:020e99003042e5
:020e9a003040e6
:020e9b00303ee7
:020e9c00303ce8
:020e9d00303ae9
:020e9e003038ea
:020e9f003036eb
:020ea0003033ed
:020ea1003031ee
:020ea200302fef
:020ea300302df0
:020ea400302bf1
:020ea5003029f2
:020ea6003027f3
:020ea7003025f4
:020ea8003023f5
:020ea9003021f6
:020eaa00301ff7
:020eab00301df8
:020eac00301bf9
:020ead003019fa
:020eae003016fc
:020eaf003014fd
:020eb0003012fe
:020eb1003010ff
:020eb200300e00
:020eb300300c01
:020eb400300a02
:020eb500300803
:020eb600300604
:020eb700300405
:020eb800300206
:020eb900300007
:020eba002ffe09
:020ebb002ffc0a
:020ebc002ff90c
:020ebd002ff70d
:020ebe002ff50e
:020ebf002ff30f
:020ec0002ff110
:020ec1002fef11
:020ec2002fed12
:020ec3002feb13
:020ec4002fe914
:020ec5002fe715
:020ec6002fe516
:020ec7002fe317
:020ec8002fe019
:020ec9002fde1a
:020eca002fdc1b
:020ecb002fda1c
:020ecc002fd81d
:020ecd002fd61e
:020ece002fd41f
:020ecf002fd220
:020ed0002fd021
:020ed1002fce22
:020ed2002fcc23
:020ed3002fc925
:020ed4002fc726
:020ed5002fc527
:020ed6002fc328
:020ed7002fc129
:020ed8002fbf2a
:020ed9002fbd2b
:020eda002fbb2c
:020edb002fb92d
:020edc002fb72e
:020edd002fb52f
:020ede002fb231
:020edf002fb032
:020ee0002fae33
:020ee1002fac34
:020ee2002faa35
:020ee3002fa836
:020ee4002fa637
:020ee5002fa438
:020ee6002fa239
:020ee7002fa03a
:020ee8002f9e3b
:020ee9002f9b3d
:020eea002f993e
:020eeb002f973f
:020eec002f9540
:020eed002f9341
:020eee002f9142
:020eef002f8f43
:020ef0002f8d44
:020ef1002f8b45
:020ef2002f8847
:020ef3002f8648
:020ef4002f8449
:020ef5002f824a
:020ef6002f804b
:020ef7002f7e4c
:020ef8002f7c4d
:020ef9002f7a4e
:020efa002f784f
:020efb002f7650
:020efc002f7352
:020efd002f7153
:020efe002f6f54
:020eff002f6d55
:020f00002f6b55
:020f01002f6956
:020f02002f6757
:020f03002f6558
:020f04002f6359
:020f05002f605b
:020f06002f5e5c
:020f07002f5c5d
:020f08002f5a5e
:020f09002f585f
:020f0a002f5660
:020f0b002f5461
:020f0c002f5262
:020f0d002f5063
:020f0e002f4d65
:020f0f002f4b66
:020f10002f4967
:020f11002f4768
:020f12002f4569
:020f13002f436a
:020f14002f416b
:020f15002f3f6c
:020f16002f3c6e
:020f17002f3a6f
:020f18002f3870
:020f19002f3671
:020f1a002f3472
:020f1b002f3273
:020f1c002f3074
:020f1d002f2e75
:020f1e002f2c76
:020f1f002f2978
:020f20002f2779
:020f21002f257a
:020f22002f237b
:020f23002f217c
:020f24002f1f7d
:020f25002f1d7e
:020f26002f1b7f
:020f27002f1881
:020f28002f1682
:020f29002f1483
:020f2a002f1284
:020f2b002f1085
:020f2c002f0e86
:020f2d002f0c87
:020f2e002f0989
:020f2f002f078a
:020f30002f058b
:020f31002f038c
:020f32002f018d
:020f33002eff8f
:020f34002efd90
:020f35002efb91
:020f36002ef893
:020f37002ef694
:020f38002ef495
:020f39002ef296
:020f3a002ef097
:020f3b002eee98
:020f3c002eec99
:020f3d002ee99b
:020f3e002ee79c
:020f3f002ee59d
:020f40002ee39e
:020f41002ee19f
:020f42002edfa0
:020f43002edda1
:020f44002edba2
:020f45002ed8a4
:020f46002ed6a5
:020f47002ed4a6
:020f48002ed2a7
:020f49002ed0a8
:020f4a002ecea9
:020f4b002eccaa
:020f4c002ec9ac
:020f4d002ec7ad
:020f4e002ec5ae
:020f4f002ec3af
:020f50002ec1b0
:020f51002ebfb1
:020f52002ebdb2
:020f53002ebab4
:020f54002eb8b5
:020f55002eb6b6
:020f56002eb4b7
:020f57002eb2b8
:020f58002eb0b9
:020f59002eadbb
:020f5a002eabbc
:020f5b002ea9bd
:020f5c002ea7be
:020f5d002ea5bf
:020f5e002ea3c0
:020f5f002ea1c1
:020f60002e9ec3
:020f61002e9cc4
:020f62002e9ac5
:020f63002e98c6
:020f64002e96c7
:020f65002e94c8
:020f66002e92c9
:020f67002e8fcb
:020f68002e8dcc
:020f69002e8bcd
:020f6a002e89ce
:020f6b002e87cf
:020f6c002e85d0
:020f6d002e82d2
:020f6e002e80d3
:020f6f002e7ed4
:020f70002e7cd5
:020f71002e7ad6
:020f72002e78d7
:020f73002e75d9
:020f74002e73da
:020f75002e71db
:020f76002e6fdc
:020f77002e6ddd
:020f78002e6bde
:020f79002e68e0
:020f7a002e66e1
:020f7b002e64e2
:020f7c002e62e3
:020f7d002e60e4
:020f7e002e5ee5
:020f7f002e5ce6
:020f80002e59e8
:020f81002e57e9
:020f82002e55ea
:020f83002e53eb
:020f84002e51ec
:020f85002e4fed
:020f86002e4cef
:020f87002e4af0
:020f88002e48f1
:020f89002e46f2
:020f8a002e44f3
:020f8b002e41f5
:020f8c002e3ff6
:020f8d002e3df7
:020f8e002e3bf8
:020f8f002e39f9
:020f90002e37fa
:020f91002e34fc
:020f92002e32fd
:020f93002e30fe
:020f94002e2eff
:020f95002e2c00
:020f96002e2a01
:020f97002e2703
:020f98002e2504
:020f99002e2305
:020f9a002e2106
:020f9b002e1f07
:020f9c002e1d08
:020f9d002e1a0a
:020f9e002e180b
:020f9f002e160c
