:020000000000fe
:020001000003fa
:020002000006f6
:020003000009f2
:02000400000ded
:020005000010e9
:020006000013e5
:020007000016e1
:020008000019dd
:02000900001cd9
:02000a00001fd5
:02000b000023d0
:02000c000026cc
:02000d000029c8
:02000e00002cc4
:02000f00002fc0
:020010000032bc
:020011000035b8
:020012000039b3
:02001300003caf
:02001400003fab
:020015000042a7
:020016000045a3
:0200170000489f
:02001800004b9b
:02001900004f96
:02001a00005292
:02001b0000558e
:02001c0000588a
:02001d00005b86
:02001e00005e82
:02001f0000617e
:02002000006579
:02002100006875
:02002200006b71
:02002300006e6d
:02002400007169
:02002500007465
:02002600007761
:02002700007b5c
:02002800007e58
:02002900008154
:02002a00008450
:02002b0000874c
:02002c00008a48
:02002d00008d44
:02002e0000913f
:02002f0000943b
:02003000009737
:02003100009a33
:02003200009d2f
:0200330000a02b
:0200340000a327
:0200350000a623
:0200360000aa1e
:0200370000ad1a
:0200380000b016
:0200390000b312
:02003a0000b60e
:02003b0000b90a
:02003c0000bc06
:02003d0000c001
:02003e0000c3fd
:02003f0000c6f9
:0200400000c9f5
:0200410000ccf1
:0200420000cfed
:0200430000d2e9
:0200440000d6e4
:0200450000d9e0
:0200460000dcdc
:0200470000dfd8
:0200480000e2d4
:0200490000e5d0
:02004a0000e8cc
:02004b0000ecc7
:02004c0000efc3
:02004d0000f2bf
:02004e0000f5bb
:02004f0000f8b7
:0200500000fbb3
:0200510000feaf
:020052000102a9
:020053000105a5
:020054000108a1
:02005500010b9d
:02005600010e99
:02005700011195
:02005800011491
:0200590001188c
:02005a00011b88
:02005b00011e84
:02005c00012180
:02005d0001247c
:02005e00012778
:02005f00012a74
:02006000012e6f
:0200610001316b
:02006200013467
:02006300013763
:02006400013a5f
:02006500013d5b
:02006600014057
:02006700014452
:0200680001474e
:02006900014a4a
:02006a00014d46
:02006b00015042
:02006c0001533e
:02006d0001563a
:02006e00015a35
:02006f00015d31
:0200700001602d
:02007100016329
:02007200016625
:02007300016921
:02007400016c1d
:02007500017018
:02007600017314
:02007700017610
:0200780001790c
:02007900017c08
:02007a00017f04
:02007b00018200
:02007c000185fc
:02007d000189f7
:02007e00018cf3
:02007f00018fef
:020080000192eb
:020081000195e7
:020082000198e3
:02008300019bdf
:02008400019fda
:0200850001a2d6
:0200860001a5d2
:0200870001a8ce
:0200880001abca
:0200890001aec6
:02008a0001b1c2
:02008b0001b5bd
:02008c0001b8b9
:02008d0001bbb5
:02008e0001beb1
:02008f0001c1ad
:0200900001c4a9
:0200910001c7a5
:0200920001cba0
:0200930001ce9c
:0200940001d198
:0200950001d494
:0200960001d790
:0200970001da8c
:0200980001dd88
:0200990001e183
:02009a0001e47f
:02009b0001e77b
:02009c0001ea77
:02009d0001ed73
:02009e0001f06f
:02009f0001f36b
:0200a00001f766
:0200a10001fa62
:0200a20001fd5e
:0200a300020059
:0200a400020355
:0200a500020651
:0200a60002094d
:0200a700020d48
:0200a800021044
:0200a900021340
:0200aa0002163c
:0200ab00021938
:0200ac00021c34
:0200ad00021f30
:0200ae0002232b
:0200af00022627
:0200b000022923
:0200b100022c1f
:0200b200022f1b
:0200b300023217
:0200b400023513
:0200b50002380f
:0200b600023c0a
:0200b700023f06
:0200b800024202
:0200b9000245fe
:0200ba000248fa
:0200bb00024bf6
:0200bc00024ef2
:0200bd000252ed
:0200be000255e9
:0200bf000258e5
:0200c000025be1
:0200c100025edd
:0200c2000261d9
:0200c3000264d5
:0200c4000268d0
:0200c500026bcc
:0200c600026ec8
:0200c7000271c4
:0200c8000274c0
:0200c9000277bc
:0200ca00027ab8
:0200cb00027eb3
:0200cc000281af
:0200cd000284ab
:0200ce000287a7
:0200cf00028aa3
:0200d000028d9f
:0200d10002909b
:0200d200029496
:0200d300029792
:0200d400029a8e
:0200d500029d8a
:0200d60002a086
:0200d70002a382
:0200d80002a67e
:0200d90002a97a
:0200da0002ad75
:0200db0002b071
:0200dc0002b36d
:0200dd0002b669
:0200de0002b965
:0200df0002bc61
:0200e00002bf5d
:0200e10002c358
:0200e20002c654
:0200e30002c950
:0200e40002cc4c
:0200e50002cf48
:0200e60002d244
:0200e70002d540
:0200e80002d93b
:0200e90002dc37
:0200ea0002df33
:0200eb0002e22f
:0200ec0002e52b
:0200ed0002e827
:0200ee0002eb23
:0200ef0002ef1e
:0200f00002f21a
:0200f10002f516
:0200f20002f812
:0200f30002fb0e
:0200f40002fe0a
:0200f500030105
:0200f600030401
:0200f7000308fc
:0200f800030bf8
:0200f900030ef4
:0200fa000311f0
:0200fb000314ec
:0200fc000317e8
:0200fd00031ae4
:0200fe00031edf
:0200ff000321db
:020100000324d6
:020101000327d2
:02010200032ace
:02010300032dca
:020104000330c6
:020105000334c1
:020106000337bd
:02010700033ab9
:02010800033db5
:020109000340b1
:02010a000343ad
:02010b000346a9
:02010c00034aa4
:02010d00034da0
:02010e0003509c
:02010f00035398
:02011000035694
:02011100035990
:02011200035c8c
:02011300035f88
:02011400036383
:0201150003667f
:0201160003697b
:02011700036c77
:02011800036f73
:0201190003726f
:02011a0003756b
:02011b00037966
:02011c00037c62
:02011d00037f5e
:02011e0003825a
:02011f00038556
:02012000038852
:02012100038b4e
:02012200038f49
:02012300039245
:02012400039541
:0201250003983d
:02012600039b39
:02012700039e35
:0201280003a131
:0201290003a42d
:02012a0003a828
:02012b0003ab24
:02012c0003ae20
:02012d0003b11c
:02012e0003b418
:02012f0003b714
:0201300003ba10
:0201310003be0b
:0201320003c107
:0201330003c403
:0201340003c7ff
:0201350003cafb
:0201360003cdf7
:0201370003d0f3
:0201380003d4ee
:0201390003d7ea
:02013a0003dae6
:02013b0003dde2
:02013c0003e0de
:02013d0003e3da
:02013e0003e6d6
:02013f0003e9d2
:0201400003edcd
:0201410003f0c9
:0201420003f3c5
:0201430003f6c1
:0201440003f9bd
:0201450003fcb9
:0201460003ffb5
:020147000403af
:020148000406ab
:020149000409a7
:02014a00040ca3
:02014b00040f9f
:02014c0004129b
:02014d00041597
:02014e00041992
:02014f00041c8e
:02015000041f8a
:02015100042286
:02015200042582
:0201530004287e
:02015400042b7a
:02015500042e76
:02015600043271
:0201570004356d
:02015800043869
:02015900043b65
:02015a00043e61
:02015b0004415d
:02015c00044459
:02015d00044854
:02015e00044b50
:02015f00044e4c
:02016000045148
:02016100045444
:02016200045740
:02016300045a3c
:02016400045d38
:02016500046133
:0201660004642f
:0201670004672b
:02016800046a27
:02016900046d23
:02016a0004701f
:02016b0004731b
:02016c00047716
:02016d00047a12
:02016e00047d0e
:02016f0004800a
:02017000048306
:02017100048602
:020172000489fe
:02017300048cfa
:020174000490f5
:020175000493f1
:020176000496ed
:020177000499e9
:02017800049ce5
:02017900049fe1
:02017a0004a2dd
:02017b0004a6d8
:02017c0004a9d4
:02017d0004acd0
:02017e0004afcc
:02017f0004b2c8
:0201800004b5c4
:0201810004b8c0
:0201820004bbbc
:0201830004bfb7
:0201840004c2b3
:0201850004c5af
:0201860004c8ab
:0201870004cba7
:0201880004cea3
:0201890004d19f
:02018a0004d59a
:02018b0004d896
:02018c0004db92
:02018d0004de8e
:02018e0004e18a
:02018f0004e486
:0201900004e782
:0201910004ea7e
:0201920004ee79
:0201930004f175
:0201940004f471
:0201950004f76d
:0201960004fa69
:0201970004fd65
:02019800050060
:0201990005045b
:02019a00050757
:02019b00050a53
:02019c00050d4f
:02019d0005104b
:02019e00051347
:02019f00051643
:0201a00005193f
:0201a100051d3a
:0201a200052036
:0201a300052332
:0201a40005262e
:0201a50005292a
:0201a600052c26
:0201a700052f22
:0201a80005321e
:0201a900053619
:0201aa00053915
:0201ab00053c11
:0201ac00053f0d
:0201ad00054209
:0201ae00054505
:0201af00054801
:0201b000054cfc
:0201b100054ff8
:0201b2000552f4
:0201b3000555f0
:0201b4000558ec
:0201b500055be8
:0201b600055ee4
:0201b7000561e0
:0201b8000565db
:0201b9000568d7
:0201ba00056bd3
:0201bb00056ecf
:0201bc000571cb
:0201bd000574c7
:0201be000577c3
:0201bf00057abf
:0201c000057eba
:0201c1000581b6
:0201c2000584b2
:0201c3000587ae
:0201c400058aaa
:0201c500058da6
:0201c6000590a2
:0201c70005949d
:0201c800059799
:0201c900059a95
:0201ca00059d91
:0201cb0005a08d
:0201cc0005a389
:0201cd0005a685
:0201ce0005a981
:0201cf0005ad7c
:0201d00005b078
:0201d10005b374
:0201d20005b670
:0201d30005b96c
:0201d40005bc68
:0201d50005bf64
:0201d60005c260
:0201d70005c65b
:0201d80005c957
:0201d90005cc53
:0201da0005cf4f
:0201db0005d24b
:0201dc0005d547
:0201dd0005d843
:0201de0005db3f
:0201df0005df3a
:0201e00005e236
:0201e10005e532
:0201e20005e82e
:0201e30005eb2a
:0201e40005ee26
:0201e50005f122
:0201e60005f51d
:0201e70005f819
:0201e80005fb15
:0201e90005fe11
:0201ea0006010c
:0201eb00060408
:0201ec00060704
:0201ed00060a00
:0201ee00060efb
:0201ef000611f7
:0201f0000614f3
:0201f1000617ef
:0201f200061aeb
:0201f300061de7
:0201f4000620e3
:0201f5000623df
:0201f6000627da
:0201f700062ad6
:0201f800062dd2
:0201f9000630ce
:0201fa000633ca
:0201fb000636c6
:0201fc000639c2
:0201fd00063cbe
:0201fe000640b9
:0201ff000643b5
:020200000646b0
:020201000649ac
:02020200064ca8
:02020300064fa4
:020204000652a0
:0202050006559c
:02020600065997
:02020700065c93
:02020800065f8f
:0202090006628b
:02020a00066587
:02020b00066883
:02020c00066b7f
:02020d00066e7b
:02020e00067276
:02020f00067572
:0202100006786e
:02021100067b6a
:02021200067e66
:02021300068162
:0202140006845e
:0202150006875a
:02021600068b55
:02021700068e51
:0202180006914d
:02021900069449
:02021a00069745
:02021b00069a41
:02021c00069d3d
:02021d0006a039
:02021e0006a434
:02021f0006a730
:0202200006aa2c
:0202210006ad28
:0202220006b024
:0202230006b320
:0202240006b61c
:0202250006b918
:0202260006bd13
:0202270006c00f
:0202280006c30b
:0202290006c607
:02022a0006c903
:02022b0006ccff
:02022c0006cffb
:02022d0006d2f7
:02022e0006d6f2
:02022f0006d9ee
:0202300006dcea
:0202310006dfe6
:0202320006e2e2
:0202330006e5de
:0202340006e8da
:0202350006ebd6
:0202360006efd1
:0202370006f2cd
:0202380006f5c9
:0202390006f8c5
:02023a0006fbc1
:02023b0006febd
:02023c000701b8
:02023d000704b4
:02023e000708af
:02023f00070bab
:02024000070ea7
:020241000711a3
:0202420007149f
:0202430007179b
:02024400071a97
:02024500071d93
:0202460007218e
:0202470007248a
:02024800072786
:02024900072a82
:02024a00072d7e
:02024b0007307a
:02024c00073376
:02024d00073672
:02024e0007396e
:02024f00073d69
:02025000074065
:02025100074361
:0202520007465d
:02025300074959
:02025400074c55
:02025500074f51
:0202560007524d
:02025700075648
:02025800075944
:02025900075c40
:02025a00075f3c
:02025b00076238
:02025c00076534
:02025d00076830
:02025e00076b2c
:02025f00076f27
:02026000077223
:0202610007751f
:0202620007781b
:02026300077b17
:02026400077e13
:0202650007810f
:0202660007840b
:02026700078707
:02026800078b02
:02026900078efe
:02026a000791fa
:02026b000794f6
:02026c000797f2
:02026d00079aee
:02026e00079dea
:02026f0007a0e6
:0202700007a4e1
:0202710007a7dd
:0202720007aad9
:0202730007add5
:0202740007b0d1
:0202750007b3cd
:0202760007b6c9
:0202770007b9c5
:0202780007bdc0
:0202790007c0bc
:02027a0007c3b8
:02027b0007c6b4
:02027c0007c9b0
:02027d0007ccac
:02027e0007cfa8
:02027f0007d2a4
:0202800007d5a0
:0202810007d99b
:0202820007dc97
:0202830007df93
:0202840007e28f
:0202850007e58b
:0202860007e887
:0202870007eb83
:0202880007ee7f
:0202890007f27a
:02028a0007f576
:02028b0007f872
:02028c0007fb6e
:02028d0007fe6a
:02028e00080165
:02028f00080461
:0202900008075d
:02029100080a59
:02029200080e54
:02029300081150
:0202940008144c
:02029500081748
:02029600081a44
:02029700081d40
:0202980008203c
:02029900082338
:02029a00082634
:02029b00082a2f
:02029c00082d2b
:02029d00083027
:02029e00083323
:02029f0008361f
:0202a00008391b
:0202a100083c17
:0202a200083f13
:0202a30008430e
:0202a40008460a
:0202a500084906
:0202a600084c02
:0202a700084ffe
:0202a8000852fa
:0202a9000855f6
:0202aa000858f2
:0202ab00085bee
:0202ac00085fe9
:0202ad000862e5
:0202ae000865e1
:0202af000868dd
:0202b000086bd9
:0202b100086ed5
:0202b2000871d1
:0202b3000874cd
:0202b4000877c9
:0202b500087bc4
:0202b600087ec0
:0202b7000881bc
:0202b8000884b8
:0202b9000887b4
:0202ba00088ab0
:0202bb00088dac
:0202bc000890a8
:0202bd000893a4
:0202be0008979f
:0202bf00089a9b
:0202c000089d97
:0202c10008a093
:0202c20008a38f
:0202c30008a68b
:0202c40008a987
:0202c50008ac83
:0202c60008b07e
:0202c70008b37a
:0202c80008b676
:0202c90008b972
:0202ca0008bc6e
:0202cb0008bf6a
:0202cc0008c266
:0202cd0008c562
:0202ce0008c85e
:0202cf0008cc59
:0202d00008cf55
:0202d10008d251
:0202d20008d54d
:0202d30008d849
:0202d40008db45
:0202d50008de41
:0202d60008e13d
:0202d70008e439
:0202d80008e834
:0202d90008eb30
:0202da0008ee2c
:0202db0008f128
:0202dc0008f424
:0202dd0008f720
:0202de0008fa1c
:0202df0008fd18
:0202e000090013
:0202e10009040e
:0202e20009070a
:0202e300090a06
:0202e400090d02
:0202e5000910fe
:0202e6000913fa
:0202e7000916f6
:0202e8000919f2
:0202e900091cee
:0202ea000920e9
:0202eb000923e5
:0202ec000926e1
:0202ed000929dd
:0202ee00092cd9
:0202ef00092fd5
:0202f0000932d1
:0202f1000935cd
:0202f2000938c9
:0202f300093bc5
:0202f400093fc0
:0202f5000942bc
:0202f6000945b8
:0202f7000948b4
:0202f800094bb0
:0202f900094eac
:0202fa000951a8
:0202fb000954a4
:0202fc000957a0
:0202fd00095b9b
:0202fe00095e97
:0202ff00096193
:0203000009648e
:0203010009678a
:02030200096a86
:02030300096d82
:0203040009707e
:0203050009737a
:02030600097775
:02030700097a71
:02030800097d6d
:02030900098069
:02030a00098365
:02030b00098661
:02030c0009895d
:02030d00098c59
:02030e00098f55
:02030f00099251
:0203100009964c
:02031100099948
:02031200099c44
:02031300099f40
:0203140009a23c
:0203150009a538
:0203160009a834
:0203170009ab30
:0203180009ae2c
:0203190009b227
:02031a0009b523
:02031b0009b81f
:02031c0009bb1b
:02031d0009be17
:02031e0009c113
:02031f0009c40f
:0203200009c70b
:0203210009ca07
:0203220009cd03
:0203230009d1fe
:0203240009d4fa
:0203250009d7f6
:0203260009daf2
:0203270009ddee
:0203280009e0ea
:0203290009e3e6
:02032a0009e6e2
:02032b0009e9de
:02032c0009edd9
:02032d0009f0d5
:02032e0009f3d1
:02032f0009f6cd
:0203300009f9c9
:0203310009fcc5
:0203320009ffc1
:020333000a02bc
:020334000a05b8
:020335000a08b4
:020336000a0caf
:020337000a0fab
:020338000a12a7
:020339000a15a3
:02033a000a189f
:02033b000a1b9b
:02033c000a1e97
:02033d000a2193
:02033e000a248f
:02033f000a278b
:020340000a2b86
:020341000a2e82
:020342000a317e
:020343000a347a
:020344000a3776
:020345000a3a72
:020346000a3d6e
:020347000a406a
:020348000a4366
:020349000a4662
:02034a000a4a5d
:02034b000a4d59
:02034c000a5055
:02034d000a5351
:02034e000a564d
:02034f000a5949
:020350000a5c45
:020351000a5f41
:020352000a623d
:020353000a6539
:020354000a6934
:020355000a6c30
:020356000a6f2c
:020357000a7228
:020358000a7524
:020359000a7820
:02035a000a7b1c
:02035b000a7e18
:02035c000a8114
:02035d000a8410
:02035e000a880b
:02035f000a8b07
:020360000a8e03
:020361000a91ff
:020362000a94fb
:020363000a97f7
:020364000a9af3
:020365000a9def
:020366000aa0eb
:020367000aa3e7
:020368000aa7e2
:020369000aaade
:02036a000aadda
:02036b000ab0d6
:02036c000ab3d2
:02036d000ab6ce
:02036e000ab9ca
:02036f000abcc6
:020370000abfc2
:020371000ac2be
:020372000ac6b9
:020373000ac9b5
:020374000accb1
:020375000acfad
:020376000ad2a9
:020377000ad5a5
:020378000ad8a1
:020379000adb9d
:02037a000ade99
:02037b000ae195
:02037c000ae491
:02037d000ae88c
:02037e000aeb88
:02037f000aee84
:020380000af180
:020381000af47c
:020382000af778
:020383000afa74
:020384000afd70
:020385000b006b
:020386000b0367
:020387000b0762
:020388000b0a5e
:020389000b0d5a
:02038a000b1056
:02038b000b1352
:02038c000b164e
:02038d000b194a
:02038e000b1c46
:02038f000b1f42
:020390000b223e
:020391000b253a
:020392000b2935
:020393000b2c31
:020394000b2f2d
:020395000b3229
:020396000b3525
:020397000b3821
:020398000b3b1d
:020399000b3e19
:02039a000b4115
:02039b000b4411
:02039c000b470d
:02039d000b4b08
:02039e000b4e04
:02039f000b5100
:0203a0000b54fc
:0203a1000b57f8
:0203a2000b5af4
:0203a3000b5df0
:0203a4000b60ec
:0203a5000b63e8
:0203a6000b66e4
:0203a7000b6adf
:0203a8000b6ddb
:0203a9000b70d7
:0203aa000b73d3
:0203ab000b76cf
:0203ac000b79cb
:0203ad000b7cc7
:0203ae000b7fc3
:0203af000b82bf
:0203b0000b85bb
:0203b1000b88b7
:0203b2000b8bb3
:0203b3000b8fae
:0203b4000b92aa
:0203b5000b95a6
:0203b6000b98a2
:0203b7000b9b9e
:0203b8000b9e9a
:0203b9000ba196
:0203ba000ba492
:0203bb000ba78e
:0203bc000baa8a
:0203bd000bad86
:0203be000bb181
:0203bf000bb47d
:0203c0000bb779
:0203c1000bba75
:0203c2000bbd71
:0203c3000bc06d
:0203c4000bc369
:0203c5000bc665
:0203c6000bc961
:0203c7000bcc5d
:0203c8000bcf59
:0203c9000bd354
:0203ca000bd650
:0203cb000bd94c
:0203cc000bdc48
:0203cd000bdf44
:0203ce000be240
:0203cf000be53c
:0203d0000be838
:0203d1000beb34
:0203d2000bee30
:0203d3000bf12c
:0203d4000bf428
:0203d5000bf823
:0203d6000bfb1f
:0203d7000bfe1b
:0203d8000c0116
:0203d9000c0412
:0203da000c070e
:0203db000c0a0a
:0203dc000c0d06
:0203dd000c1002
:0203de000c13fe
:0203df000c16fa
:0203e0000c1af5
:0203e1000c1df1
:0203e2000c20ed
:0203e3000c23e9
:0203e4000c26e5
:0203e5000c29e1
:0203e6000c2cdd
:0203e7000c2fd9
:0203e8000c32d5
:0203e9000c35d1
:0203ea000c38cd
:0203eb000c3bc9
:0203ec000c3fc4
:0203ed000c42c0
:0203ee000c45bc
:0203ef000c48b8
:0203f0000c4bb4
:0203f1000c4eb0
:0203f2000c51ac
:0203f3000c54a8
:0203f4000c57a4
:0203f5000c5aa0
:0203f6000c5d9c
:0203f7000c6098
:0203f8000c6493
:0203f9000c678f
:0203fa000c6a8b
:0203fb000c6d87
:0203fc000c7083
:0203fd000c737f
:0203fe000c767b
:0203ff000c7977
:020400000c7c72
:020401000c7f6e
:020402000c826a
:020403000c8566
:020404000c8862
:020405000c8c5d
:020406000c8f59
:020407000c9255
:020408000c9551
:020409000c984d
:02040a000c9b49
:02040b000c9e45
:02040c000ca141
:02040d000ca43d
:02040e000ca739
:02040f000caa35
:020410000cad31
:020411000cb12c
:020412000cb428
:020413000cb724
:020414000cba20
:020415000cbd1c
:020416000cc018
:020417000cc314
:020418000cc610
:020419000cc90c
:02041a000ccc08
:02041b000ccf04
:02041c000cd200
:02041d000cd5fc
:02041e000cd9f7
:02041f000cdcf3
:020420000cdfef
:020421000ce2eb
:020422000ce5e7
:020423000ce8e3
:020424000cebdf
:020425000ceedb
:020426000cf1d7
:020427000cf4d3
:020428000cf7cf
:020429000cfacb
:02042a000cfdc7
:02042b000d01c1
:02042c000d04bd
:02042d000d07b9
:02042e000d0ab5
:02042f000d0db1
:020430000d10ad
:020431000d13a9
:020432000d16a5
:020433000d19a1
:020434000d1c9d
:020435000d1f99
:020436000d2295
:020437000d2591
:020438000d298c
:020439000d2c88
:02043a000d2f84
:02043b000d3280
:02043c000d357c
:02043d000d3878
:02043e000d3b74
:02043f000d3e70
:020440000d416c
:020441000d4468
:020442000d4764
:020443000d4a60
:020444000d4d5c
:020445000d5058
:020446000d5453
:020447000d574f
:020448000d5a4b
:020449000d5d47
:02044a000d6043
:02044b000d633f
:02044c000d663b
:02044d000d6937
:02044e000d6c33
:02044f000d6f2f
:020450000d722b
:020451000d7527
:020452000d7823
:020453000d7b1f
:020454000d7f1a
:020455000d8216
:020456000d8512
:020457000d880e
:020458000d8b0a
:020459000d8e06
:02045a000d9102
:02045b000d94fe
:02045c000d97fa
:02045d000d9af6
:02045e000d9df2
:02045f000da0ee
:020460000da3ea
:020461000da6e6
:020462000daae1
:020463000daddd
:020464000db0d9
:020465000db3d5
:020466000db6d1
:020467000db9cd
:020468000dbcc9
:020469000dbfc5
:02046a000dc2c1
:02046b000dc5bd
:02046c000dc8b9
:02046d000dcbb5
:02046e000dceb1
:02046f000dd1ad
:020470000dd4a9
:020471000dd8a4
:020472000ddba0
:020473000dde9c
:020474000de198
:020475000de494
:020476000de790
:020477000dea8c
:020478000ded88
:020479000df084
:02047a000df380
:02047b000df67c
:02047c000df978
:02047d000dfc74
:02047e000dff70
:02047f000e026b
:020480000e0666
:020481000e0962
:020482000e0c5e
:020483000e0f5a
:020484000e1256
:020485000e1552
:020486000e184e
:020487000e1b4a
:020488000e1e46
:020489000e2142
:02048a000e243e
:02048b000e273a
:02048c000e2a36
:02048d000e2d32
:02048e000e302e
:02048f000e332a
:020490000e3725
:020491000e3a21
:020492000e3d1d
:020493000e4019
:020494000e4315
:020495000e4611
:020496000e490d
:020497000e4c09
:020498000e4f05
:020499000e5201
:02049a000e55fd
:02049b000e58f9
:02049c000e5bf5
:02049d000e5ef1
:02049e000e61ed
:02049f000e64e9
:0204a0000e68e4
:0204a1000e6be0
:0204a2000e6edc
:0204a3000e71d8
:0204a4000e74d4
:0204a5000e77d0
:0204a6000e7acc
:0204a7000e7dc8
:0204a8000e80c4
:0204a9000e83c0
:0204aa000e86bc
:0204ab000e89b8
:0204ac000e8cb4
:0204ad000e8fb0
:0204ae000e92ac
:0204af000e95a8
:0204b0000e99a3
:0204b1000e9c9f
:0204b2000e9f9b
:0204b3000ea297
:0204b4000ea593
:0204b5000ea88f
:0204b6000eab8b
:0204b7000eae87
:0204b8000eb183
:0204b9000eb47f
:0204ba000eb77b
:0204bb000eba77
:0204bc000ebd73
:0204bd000ec06f
:0204be000ec36b
:0204bf000ec667
:0204c0000ec963
:0204c1000ecc5f
:0204c2000ed05a
:0204c3000ed356
:0204c4000ed652
:0204c5000ed94e
:0204c6000edc4a
:0204c7000edf46
:0204c8000ee242
:0204c9000ee53e
:0204ca000ee83a
:0204cb000eeb36
:0204cc000eee32
:0204cd000ef12e
:0204ce000ef42a
:0204cf000ef726
:0204d0000efa22
:0204d1000efd1e
:0204d2000f0019
:0204d3000f0315
:0204d4000f0710
:0204d5000f0a0c
:0204d6000f0d08
:0204d7000f1004
:0204d8000f1300
:0204d9000f16fc
:0204da000f19f8
:0204db000f1cf4
:0204dc000f1ff0
:0204dd000f22ec
:0204de000f25e8
:0204df000f28e4
:0204e0000f2be0
:0204e1000f2edc
:0204e2000f31d8
:0204e3000f34d4
:0204e4000f37d0
:0204e5000f3acc
:0204e6000f3dc8
:0204e7000f41c3
:0204e8000f44bf
:0204e9000f47bb
:0204ea000f4ab7
:0204eb000f4db3
:0204ec000f50af
:0204ed000f53ab
:0204ee000f56a7
:0204ef000f59a3
:0204f0000f5c9f
:0204f1000f5f9b
:0204f2000f6297
:0204f3000f6593
:0204f4000f688f
:0204f5000f6b8b
:0204f6000f6e87
:0204f7000f7183
:0204f8000f747f
:0204f9000f777b
:0204fa000f7a77
:0204fb000f7e72
:0204fc000f816e
:0204fd000f846a
:0204fe000f8766
:0204ff000f8a62
:020500000f8d5d
:020501000f9059
:020502000f9355
:020503000f9651
:020504000f994d
:020505000f9c49
:020506000f9f45
:020507000fa241
:020508000fa53d
:020509000fa839
:02050a000fab35
:02050b000fae31
:02050c000fb12d
:02050d000fb429
:02050e000fb725
:02050f000fba21
:020510000fbd1d
:020511000fc118
:020512000fc414
:020513000fc710
:020514000fca0c
:020515000fcd08
:020516000fd004
:020517000fd300
:020518000fd6fc
:020519000fd9f8
:02051a000fdcf4
:02051b000fdff0
:02051c000fe2ec
:02051d000fe5e8
:02051e000fe8e4
:02051f000febe0
:020520000feedc
:020521000ff1d8
:020522000ff4d4
:020523000ff7d0
:020524000ffacc
:020525000ffdc8
:020526001000c3
:020527001003bf
:020528001007ba
:02052900100ab6
:02052a00100db2
:02052b001010ae
:02052c001013aa
:02052d001016a6
:02052e001019a2
:02052f00101c9e
:02053000101f9a
:02053100102296
:02053200102592
:0205330010288e
:02053400102b8a
:02053500102e86
:02053600103182
:0205370010347e
:0205380010377a
:02053900103a76
:02053a00103d72
:02053b0010406e
:02053c0010436a
:02053d00104666
:02053e00104962
:02053f00104c5e
:02054000104f5a
:02054100105355
:02054200105651
:0205430010594d
:02054400105c49
:02054500105f45
:02054600106241
:0205470010653d
:02054800106839
:02054900106b35
:02054a00106e31
:02054b0010712d
:02054c00107429
:02054d00107725
:02054e00107a21
:02054f00107d1d
:02055000108019
:02055100108315
:02055200108611
:0205530010890d
:02055400108c09
:02055500108f05
:02055600109201
:020557001095fd
:020558001098f9
:02055900109bf5
:02055a00109ef1
:02055b0010a1ed
:02055c0010a4e9
:02055d0010a7e5
:02055e0010abe0
:02055f0010aedc
:0205600010b1d8
:0205610010b4d4
:0205620010b7d0
:0205630010bacc
:0205640010bdc8
:0205650010c0c4
:0205660010c3c0
:0205670010c6bc
:0205680010c9b8
:0205690010ccb4
:02056a0010cfb0
:02056b0010d2ac
:02056c0010d5a8
:02056d0010d8a4
:02056e0010dba0
:02056f0010de9c
:0205700010e198
:0205710010e494
:0205720010e790
:0205730010ea8c
:0205740010ed88
:0205750010f084
:0205760010f380
:0205770010f67c
:0205780010f978
:0205790010fc74
:02057a0010ff70
:02057b0011026b
:02057c00110567
:02057d00110863
:02057e00110b5f
:02057f00110f5a
:02058000111256
:02058100111552
:0205820011184e
:02058300111b4a
:02058400111e46
:02058500112142
:0205860011243e
:0205870011273a
:02058800112a36
:02058900112d32
:02058a0011302e
:02058b0011332a
:02058c00113626
:02058d00113922
:02058e00113c1e
:02058f00113f1a
:02059000114216
:02059100114512
:0205920011480e
:02059300114b0a
:02059400114e06
:02059500115102
:020596001154fe
:020597001157fa
:02059800115af6
:02059900115df2
:02059a001160ee
:02059b001163ea
:02059c001166e6
:02059d001169e2
:02059e00116cde
:02059f00116fda
:0205a0001172d6
:0205a1001175d2
:0205a2001178ce
:0205a300117bca
:0205a400117ec6
:0205a5001181c2
:0205a6001184be
:0205a7001188b9
:0205a800118bb5
:0205a900118eb1
:0205aa001191ad
:0205ab001194a9
:0205ac001197a5
:0205ad00119aa1
:0205ae00119d9d
:0205af0011a099
:0205b00011a395
:0205b10011a691
:0205b20011a98d
:0205b30011ac89
:0205b40011af85
:0205b50011b281
:0205b60011b57d
:0205b70011b879
:0205b80011bb75
:0205b90011be71
:0205ba0011c16d
:0205bb0011c469
:0205bc0011c765
:0205bd0011ca61
:0205be0011cd5d
:0205bf0011d059
:0205c00011d355
:0205c10011d651
:0205c20011d94d
:0205c30011dc49
:0205c40011df45
:0205c50011e241
:0205c60011e53d
:0205c70011e839
:0205c80011eb35
:0205c90011ee31
:0205ca0011f12d
:0205cb0011f429
:0205cc0011f725
:0205cd0011fa21
:0205ce0011fd1d
:0205cf00120018
:0205d000120314
:0205d100120610
:0205d20012090c
:0205d300120c08
:0205d400120f04
:0205d500121200
:0205d6001215fc
:0205d7001218f8
:0205d800121bf4
:0205d900121ef0
:0205da001221ec
:0205db001224e8
:0205dc001227e4
:0205dd00122ae0
:0205de00122ddc
:0205df001230d8
:0205e0001233d4
:0205e1001236d0
:0205e2001239cc
:0205e300123cc8
:0205e400123fc4
:0205e5001243bf
:0205e6001246bb
:0205e7001249b7
:0205e800124cb3
:0205e900124faf
:0205ea001252ab
:0205eb001255a7
:0205ec001258a3
:0205ed00125b9f
:0205ee00125e9b
:0205ef00126197
:0205f000126493
:0205f10012678f
:0205f200126a8b
:0205f300126d87
:0205f400127083
:0205f50012737f
:0205f60012767b
:0205f700127977
:0205f800127c73
:0205f900127f6f
:0205fa0012826b
:0205fb00128567
:0205fc00128863
:0205fd00128b5f
:0205fe00128e5b
:0205ff00129157
:02060000129452
:0206010012974e
:02060200129a4a
:02060300129d46
:0206040012a042
:0206050012a33e
:0206060012a63a
:0206070012a936
:0206080012ac32
:0206090012af2e
:02060a0012b22a
:02060b0012b526
:02060c0012b822
:02060d0012bb1e
:02060e0012be1a
:02060f0012c116
:0206100012c412
:0206110012c70e
:0206120012ca0a
:0206130012cd06
:0206140012d002
:0206150012d3fe
:0206160012d6fa
:0206170012d9f6
:0206180012dcf2
:0206190012dfee
:02061a0012e2ea
:02061b0012e5e6
:02061c0012e8e2
:02061d0012ebde
:02061e0012eeda
:02061f0012f1d6
:0206200012f4d2
:0206210012f7ce
:0206220012faca
:0206230012fdc6
:020624001300c1
:020625001303bd
:020626001306b9
:020627001309b5
:02062800130cb1
:02062900130fad
:02062a001312a9
:02062b001315a5
:02062c001318a1
:02062d00131b9d
:02062e00131e99
:02062f00132195
:02063000132491
:0206310013278d
:02063200132a89
:02063300132d85
:02063400133081
:0206350013337d
:02063600133679
:02063700133975
:02063800133c71
:02063900133f6d
:02063a00134269
:02063b00134565
:02063c00134861
:02063d00134b5d
:02063e00134e59
:02063f00135155
:02064000135451
:0206410013574d
:02064200135a49
:02064300135d45
:02064400136041
:0206450013633d
:02064600136639
:02064700136935
:02064800136c31
:02064900136f2d
:02064a00137229
:02064b00137525
:02064c00137821
:02064d00137b1d
:02064e00137e19
:02064f00138115
:02065000138411
:0206510013870d
:02065200138a09
:02065300138d05
:02065400139001
:020655001393fd
:020656001396f9
:020657001399f5
:02065800139cf1
:02065900139fed
:02065a0013a2e9
:02065b0013a5e5
:02065c0013a8e1
:02065d0013abdd
:02065e0013aed9
:02065f0013b1d5
:0206600013b4d1
:0206610013b6ce
:0206620013b9ca
:0206630013bcc6
:0206640013bfc2
:0206650013c2be
:0206660013c5ba
:0206670013c8b6
:0206680013cbb2
:0206690013ceae
:02066a0013d1aa
:02066b0013d4a6
:02066c0013d7a2
:02066d0013da9e
:02066e0013dd9a
:02066f0013e096
:0206700013e392
:0206710013e68e
:0206720013e98a
:0206730013ec86
:0206740013ef82
:0206750013f27e
:0206760013f57a
:0206770013f876
:0206780013fb72
:0206790013fe6e
:02067a00140169
:02067b00140465
:02067c00140761
:02067d00140a5d
:02067e00140d59
:02067f00141055
:02068000141351
:0206810014164d
:02068200141949
:02068300141c45
:02068400141f41
:0206850014223d
:02068600142539
:02068700142835
:02068800142b31
:02068900142e2d
:02068a00143129
:02068b00143425
:02068c00143721
:02068d00143a1d
:02068e00143d19
:02068f00144015
:02069000144311
:0206910014460d
:02069200144909
:02069300144c05
:02069400144f01
:020695001452fd
:020696001455f9
:020697001458f5
:02069800145bf1
:02069900145eed
:02069a001461e9
:02069b001464e5
:02069c001466e2
:02069d001469de
:02069e00146cda
:02069f00146fd6
:0206a0001472d2
:0206a1001475ce
:0206a2001478ca
:0206a300147bc6
:0206a400147ec2
:0206a5001481be
:0206a6001484ba
:0206a7001487b6
:0206a800148ab2
:0206a900148dae
:0206aa001490aa
:0206ab001493a6
:0206ac001496a2
:0206ad0014999e
:0206ae00149c9a
:0206af00149f96
:0206b00014a292
:0206b10014a58e
:0206b20014a88a
:0206b30014ab86
:0206b40014ae82
:0206b50014b17e
:0206b60014b47a
:0206b70014b776
:0206b80014ba72
:0206b90014bd6e
:0206ba0014c06a
:0206bb0014c366
:0206bc0014c662
:0206bd0014c95e
:0206be0014cc5a
:0206bf0014cf56
:0206c00014d252
:0206c10014d54e
:0206c20014d74b
:0206c30014da47
:0206c40014dd43
:0206c50014e03f
:0206c60014e33b
:0206c70014e637
:0206c80014e933
:0206c90014ec2f
:0206ca0014ef2b
:0206cb0014f227
:0206cc0014f523
:0206cd0014f81f
:0206ce0014fb1b
:0206cf0014fe17
:0206d000150112
:0206d10015040e
:0206d20015070a
:0206d300150a06
:0206d400150d02
:0206d5001510fe
:0206d6001513fa
:0206d7001516f6
:0206d8001519f2
:0206d900151cee
:0206da00151fea
:0206db001522e6
:0206dc001525e2
:0206dd001528de
:0206de00152bda
:0206df00152ed6
:0206e0001531d2
:0206e1001533cf
:0206e2001536cb
:0206e3001539c7
:0206e400153cc3
:0206e500153fbf
:0206e6001542bb
:0206e7001545b7
:0206e8001548b3
:0206e900154baf
:0206ea00154eab
:0206eb001551a7
:0206ec001554a3
:0206ed0015579f
:0206ee00155a9b
:0206ef00155d97
:0206f000156093
:0206f10015638f
:0206f20015668b
:0206f300156987
:0206f400156c83
:0206f500156f7f
:0206f60015727b
:0206f700157577
:0206f800157873
:0206f900157b6f
:0206fa00157e6b
:0206fb00158068
:0206fc00158364
:0206fd00158660
:0206fe0015895c
:0206ff00158c58
:02070000158f53
:0207010015924f
:0207020015954b
:02070300159847
:02070400159b43
:02070500159e3f
:0207060015a13b
:0207070015a437
:0207080015a733
:0207090015aa2f
:02070a0015ad2b
:02070b0015b027
:02070c0015b323
:02070d0015b61f
:02070e0015b91b
:02070f0015bc17
:0207100015bf13
:0207110015c20f
:0207120015c40c
:0207130015c708
:0207140015ca04
:0207150015cd00
:0207160015d0fc
:0207170015d3f8
:0207180015d6f4
:0207190015d9f0
:02071a0015dcec
:02071b0015dfe8
:02071c0015e2e4
:02071d0015e5e0
:02071e0015e8dc
:02071f0015ebd8
:0207200015eed4
:0207210015f1d0
:0207220015f4cc
:0207230015f7c8
:0207240015fac4
:0207250015fdc0
:020726001600bb
:020727001602b8
:020728001605b4
:020729001608b0
:02072a00160bac
:02072b00160ea8
:02072c001611a4
:02072d001614a0
:02072e0016179c
:02072f00161a98
:02073000161d94
:02073100162090
:0207320016238c
:02073300162688
:02073400162984
:02073500162c80
:02073600162f7c
:02073700163278
:02073800163574
:02073900163870
:02073a00163a6d
:02073b00163d69
:02073c00164065
:02073d00164361
:02073e0016465d
:02073f00164959
:02074000164c55
:02074100164f51
:0207420016524d
:02074300165549
:02074400165845
:02074500165b41
:02074600165e3d
:02074700166139
:02074800166435
:02074900166731
:02074a00166a2d
:02074b00166d29
:02074c00166f26
:02074d00167222
:02074e0016751e
:02074f0016781a
:02075000167b16
:02075100167e12
:0207520016810e
:0207530016840a
:02075400168706
:02075500168a02
:02075600168dfe
:020757001690fa
:020758001693f6
:020759001696f2
:02075a001699ee
:02075b00169cea
:02075c00169fe6
:02075d0016a1e3
:02075e0016a4df
:02075f0016a7db
:0207600016aad7
:0207610016add3
:0207620016b0cf
:0207630016b3cb
:0207640016b6c7
:0207650016b9c3
:0207660016bcbf
:0207670016bfbb
:0207680016c2b7
:0207690016c5b3
:02076a0016c8af
:02076b0016cbab
:02076c0016cda8
:02076d0016d0a4
:02076e0016d3a0
:02076f0016d69c
:0207700016d998
:0207710016dc94
:0207720016df90
:0207730016e28c
:0207740016e588
:0207750016e884
:0207760016eb80
:0207770016ee7c
:0207780016f178
:0207790016f474
:02077a0016f770
:02077b0016fa6c
:02077c0016fc69
:02077d0016ff65
:02077e00170260
:02077f0017055c
:02078000170858
:02078100170b54
:02078200170e50
:0207830017114c
:02078400171448
:02078500171744
:02078600171a40
:02078700171d3c
:02078800172038
:02078900172334
:02078a00172531
:02078b0017282d
:02078c00172b29
:02078d00172e25
:02078e00173121
:02078f0017341d
:02079000173719
:02079100173a15
:02079200173d11
:0207930017400d
:02079400174309
:02079500174605
:02079600174901
:02079700174cfd
:02079800174efa
:020799001751f6
:02079a001754f2
:02079b001757ee
:02079c00175aea
:02079d00175de6
:02079e001760e2
:02079f001763de
:0207a0001766da
:0207a1001769d6
:0207a200176cd2
:0207a300176fce
:0207a4001772ca
:0207a5001774c7
:0207a6001777c3
:0207a700177abf
:0207a800177dbb
:0207a9001780b7
:0207aa001783b3
:0207ab001786af
:0207ac001789ab
:0207ad00178ca7
:0207ae00178fa3
:0207af0017929f
:0207b00017959b
:0207b100179897
:0207b200179a94
:0207b300179d90
:0207b40017a08c
:0207b50017a388
:0207b60017a684
:0207b70017a980
:0207b80017ac7c
:0207b90017af78
:0207ba0017b274
:0207bb0017b570
:0207bc0017b86c
:0207bd0017bb68
:0207be0017bd65
:0207bf0017c061
:0207c00017c35d
:0207c10017c659
:0207c20017c955
:0207c30017cc51
:0207c40017cf4d
:0207c50017d249
:0207c60017d545
:0207c70017d841
:0207c80017db3d
:0207c90017de39
:0207ca0017e036
:0207cb0017e332
:0207cc0017e62e
:0207cd0017e92a
:0207ce0017ec26
:0207cf0017ef22
:0207d00017f21e
:0207d10017f51a
:0207d20017f816
:0207d30017fb12
:0207d40017fe0e
:0207d50018000a
:0207d600180306
:0207d700180602
:0207d8001809fe
:0207d900180cfa
:0207da00180ff6
:0207db001812f2
:0207dc001815ee
:0207dd001818ea
:0207de00181be6
:0207df00181ee2
:0207e0001821de
:0207e1001823db
:0207e2001826d7
:0207e3001829d3
:0207e400182ccf
:0207e500182fcb
:0207e6001832c7
:0207e7001835c3
:0207e8001838bf
:0207e900183bbb
:0207ea00183eb7
:0207eb001841b3
:0207ec001843b0
:0207ed001846ac
:0207ee001849a8
:0207ef00184ca4
:0207f000184fa0
:0207f10018529c
:0207f200185598
:0207f300185894
:0207f400185b90
:0207f500185e8c
:0207f600186089
:0207f700186385
:0207f800186681
:0207f90018697d
:0207fa00186c79
:0207fb00186f75
:0207fc00187271
:0207fd0018756d
:0207fe00187869
:0207ff00187b65
:02080000187e60
:0208010018805d
:02080200188359
:02080300188655
:02080400188951
:02080500188c4d
:02080600188f49
:02080700189245
:02080800189541
:0208090018983d
:02080a00189b39
:02080b00189d36
:02080c0018a032
:02080d0018a32e
:02080e0018a62a
:02080f0018a926
:0208100018ac22
:0208110018af1e
:0208120018b21a
:0208130018b516
:0208140018b812
:0208150018ba0f
:0208160018bd0b
:0208170018c007
:0208180018c303
:0208190018c6ff
:02081a0018c9fb
:02081b0018ccf7
:02081c0018cff3
:02081d0018d2ef
:02081e0018d4ec
:02081f0018d7e8
:0208200018dae4
:0208210018dde0
:0208220018e0dc
:0208230018e3d8
:0208240018e6d4
:0208250018e9d0
:0208260018eccc
:0208270018efc8
:0208280018f1c5
:0208290018f4c1
:02082a0018f7bd
:02082b0018fab9
:02082c0018fdb5
:02082d001900b0
:02082e001903ac
:02082f001906a8
:020830001909a4
:02083100190ba1
:02083200190e9d
:02083300191199
:02083400191495
:02083500191791
:02083600191a8d
:02083700191d89
:02083800192085
:02083900192381
:02083a0019257e
:02083b0019287a
:02083c00192b76
:02083d00192e72
:02083e0019316e
:02083f0019346a
:02084000193766
:02084100193a62
:02084200193d5e
:02084300193f5b
:02084400194257
:02084500194553
:0208460019484f
:02084700194b4b
:02084800194e47
:02084900195143
:02084a0019543f
:02084b0019573b
:02084c00195938
:02084d00195c34
:02084e00195f30
:02084f0019622c
:02085000196528
:02085100196824
:02085200196b20
:02085300196e1c
:02085400197019
:02085500197315
:02085600197611
:0208570019790d
:02085800197c09
:02085900197f05
:02085a00198201
:02085b001985fd
:02085c001988f9
:02085d00198af6
:02085e00198df2
:02085f001990ee
:020860001993ea
:020861001996e6
:020862001999e2
:02086300199cde
:02086400199fda
:0208650019a1d7
:0208660019a4d3
:0208670019a7cf
:0208680019aacb
:0208690019adc7
:02086a0019b0c3
:02086b0019b3bf
:02086c0019b6bb
:02086d0019b8b8
:02086e0019bbb4
:02086f0019beb0
:0208700019c1ac
:0208710019c4a8
:0208720019c7a4
:0208730019caa0
:0208740019cd9c
:0208750019cf99
:0208760019d295
:0208770019d591
:0208780019d88d
:0208790019db89
:02087a0019de85
:02087b0019e181
:02087c0019e47d
:02087d0019e67a
:02087e0019e976
:02087f0019ec72
:0208800019ef6e
:0208810019f26a
:0208820019f566
:0208830019f862
:0208840019fb5e
:0208850019fd5b
:020886001a0056
:020887001a0352
:020888001a064e
:020889001a094a
:02088a001a0c46
:02088b001a0f42
:02088c001a123e
:02088d001a143b
:02088e001a1737
:02088f001a1a33
:020890001a1d2f
:020891001a202b
:020892001a2327
:020893001a2623
:020894001a2820
:020895001a2b1c
:020896001a2e18
:020897001a3114
:020898001a3410
:020899001a370c
:02089a001a3a08
:02089b001a3d04
:02089c001a3f01
:02089d001a42fd
:02089e001a45f9
:02089f001a48f5
:0208a0001a4bf1
:0208a1001a4eed
:0208a2001a51e9
:0208a3001a53e6
:0208a4001a56e2
:0208a5001a59de
:0208a6001a5cda
:0208a7001a5fd6
:0208a8001a62d2
:0208a9001a65ce
:0208aa001a67cb
:0208ab001a6ac7
:0208ac001a6dc3
:0208ad001a70bf
:0208ae001a73bb
:0208af001a76b7
:0208b0001a79b3
:0208b1001a7bb0
:0208b2001a7eac
:0208b3001a81a8
:0208b4001a84a4
:0208b5001a87a0
:0208b6001a8a9c
:0208b7001a8d98
:0208b8001a9094
:0208b9001a9291
:0208ba001a958d
:0208bb001a9889
:0208bc001a9b85
:0208bd001a9e81
:0208be001aa17d
:0208bf001aa479
:0208c0001aa676
:0208c1001aa972
:0208c2001aac6e
:0208c3001aaf6a
:0208c4001ab266
:0208c5001ab562
:0208c6001ab75f
:0208c7001aba5b
:0208c8001abd57
:0208c9001ac053
:0208ca001ac34f
:0208cb001ac64b
:0208cc001ac947
:0208cd001acb44
:0208ce001ace40
:0208cf001ad13c
:0208d0001ad438
:0208d1001ad734
:0208d2001ada30
:0208d3001add2c
:0208d4001adf29
:0208d5001ae225
:0208d6001ae521
:0208d7001ae81d
:0208d8001aeb19
:0208d9001aee15
:0208da001af111
:0208db001af30e
:0208dc001af60a
:0208dd001af906
:0208de001afc02
:0208df001afffe
:0208e0001b02f9
:0208e1001b04f6
:0208e2001b07f2
:0208e3001b0aee
:0208e4001b0dea
:0208e5001b10e6
:0208e6001b13e2
:0208e7001b16de
:0208e8001b18db
:0208e9001b1bd7
:0208ea001b1ed3
:0208eb001b21cf
:0208ec001b24cb
:0208ed001b27c7
:0208ee001b29c4
:0208ef001b2cc0
:0208f0001b2fbc
:0208f1001b32b8
:0208f2001b35b4
:0208f3001b38b0
:0208f4001b3bac
:0208f5001b3da9
:0208f6001b40a5
:0208f7001b43a1
:0208f8001b469d
:0208f9001b4999
:0208fa001b4c95
:0208fb001b4e92
:0208fc001b518e
:0208fd001b548a
:0208fe001b5786
:0208ff001b5a82
:020900001b5d7d
:020901001b5f7a
:020902001b6276
:020903001b6572
:020904001b686e
:020905001b6b6a
:020906001b6e66
:020907001b7162
:020908001b735f
:020909001b765b
:02090a001b7957
:02090b001b7c53
:02090c001b7f4f
:02090d001b824b
:02090e001b8448
:02090f001b8744
:020910001b8a40
:020911001b8d3c
:020912001b9038
:020913001b9334
:020914001b9531
:020915001b982d
:020916001b9b29
:020917001b9e25
:020918001ba121
:020919001ba41d
:02091a001ba61a
:02091b001ba916
:02091c001bac12
:02091d001baf0e
:02091e001bb20a
:02091f001bb506
:020920001bb703
:020921001bbaff
:020922001bbdfb
:020923001bc0f7
:020924001bc3f3
:020925001bc6ef
:020926001bc8ec
:020927001bcbe8
:020928001bcee4
:020929001bd1e0
:02092a001bd4dc
:02092b001bd7d8
:02092c001bd9d5
:02092d001bdcd1
:02092e001bdfcd
:02092f001be2c9
:020930001be5c5
:020931001be7c2
:020932001beabe
:020933001bedba
:020934001bf0b6
:020935001bf3b2
:020936001bf6ae
:020937001bf8ab
:020938001bfba7
:020939001bfea3
:02093a001c019e
:02093b001c049a
:02093c001c0796
:02093d001c0993
:02093e001c0c8f
:02093f001c0f8b
:020940001c1287
:020941001c1583
:020942001c1780
:020943001c1a7c
:020944001c1d78
:020945001c2074
:020946001c2370
:020947001c266c
:020948001c2869
:020949001c2b65
:02094a001c2e61
:02094b001c315d
:02094c001c3459
:02094d001c3755
:02094e001c3952
:02094f001c3c4e
:020950001c3f4a
:020951001c4246
:020952001c4542
:020953001c473f
:020954001c4a3b
:020955001c4d37
:020956001c5033
:020957001c532f
:020958001c562b
:020959001c5828
:02095a001c5b24
:02095b001c5e20
:02095c001c611c
:02095d001c6418
:02095e001c6615
:02095f001c6911
:020960001c6c0d
:020961001c6f09
:020962001c7205
:020963001c7402
:020964001c77fe
:020965001c7afa
:020966001c7df6
:020967001c80f2
:020968001c83ee
:020969001c85eb
:02096a001c88e7
:02096b001c8be3
:02096c001c8edf
:02096d001c91db
:02096e001c93d8
:02096f001c96d4
:020970001c99d0
:020971001c9ccc
:020972001c9fc8
:020973001ca1c5
:020974001ca4c1
:020975001ca7bd
:020976001caab9
:020977001cadb5
:020978001cb0b1
:020979001cb2ae
:02097a001cb5aa
:02097b001cb8a6
:02097c001cbba2
:02097d001cbe9e
:02097e001cc09b
:02097f001cc397
:020980001cc693
:020981001cc98f
:020982001ccc8b
:020983001cce88
:020984001cd184
:020985001cd480
:020986001cd77c
:020987001cda78
:020988001cdc75
:020989001cdf71
:02098a001ce26d
:02098b001ce569
:02098c001ce865
:02098d001cea62
:02098e001ced5e
:02098f001cf05a
:020990001cf356
:020991001cf652
:020992001cf84f
:020993001cfb4b
:020994001cfe47
:020995001d0142
:020996001d043e
:020997001d063b
:020998001d0937
:020999001d0c33
:02099a001d0f2f
:02099b001d122b
:02099c001d1428
:02099d001d1724
:02099e001d1a20
:02099f001d1d1c
:0209a0001d2018
:0209a1001d2215
:0209a2001d2511
:0209a3001d280d
:0209a4001d2b09
:0209a5001d2e05
:0209a6001d3002
:0209a7001d33fe
:0209a8001d36fa
:0209a9001d39f6
:0209aa001d3cf2
:0209ab001d3eef
:0209ac001d41eb
:0209ad001d44e7
:0209ae001d47e3
:0209af001d4adf
:0209b0001d4cdc
:0209b1001d4fd8
:0209b2001d52d4
:0209b3001d55d0
:0209b4001d58cc
:0209b5001d5ac9
:0209b6001d5dc5
:0209b7001d60c1
:0209b8001d63bd
:0209b9001d65ba
:0209ba001d68b6
:0209bb001d6bb2
:0209bc001d6eae
:0209bd001d71aa
:0209be001d73a7
:0209bf001d76a3
:0209c0001d799f
:0209c1001d7c9b
:0209c2001d7f97
:0209c3001d8194
:0209c4001d8490
:0209c5001d878c
:0209c6001d8a88
:0209c7001d8d84
:0209c8001d8f81
:0209c9001d927d
:0209ca001d9579
:0209cb001d9875
:0209cc001d9a72
:0209cd001d9d6e
:0209ce001da06a
:0209cf001da366
:0209d0001da662
:0209d1001da85f
:0209d2001dab5b
:0209d3001dae57
:0209d4001db153
:0209d5001db44f
:0209d6001db64c
:0209d7001db948
:0209d8001dbc44
:0209d9001dbf40
:0209da001dc13d
:0209db001dc439
:0209dc001dc735
:0209dd001dca31
:0209de001dcd2d
:0209df001dcf2a
:0209e0001dd226
:0209e1001dd522
:0209e2001dd81e
:0209e3001dda1b
:0209e4001ddd17
:0209e5001de013
:0209e6001de30f
:0209e7001de60b
:0209e8001de808
:0209e9001deb04
:0209ea001dee00
:0209eb001df1fc
:0209ec001df3f9
:0209ed001df6f5
:0209ee001df9f1
:0209ef001dfced
:0209f0001dffe9
:0209f1001e01e5
:0209f2001e04e1
:0209f3001e07dd
:0209f4001e0ad9
:0209f5001e0cd6
:0209f6001e0fd2
:0209f7001e12ce
:0209f8001e15ca
:0209f9001e17c7
:0209fa001e1ac3
:0209fb001e1dbf
:0209fc001e20bb
:0209fd001e23b7
:0209fe001e25b4
:0209ff001e28b0
:020a00001e2bab
:020a01001e2ea7
:020a02001e30a4
:020a03001e33a0
:020a04001e369c
:020a05001e3998
:020a06001e3c94
:020a07001e3e91
:020a08001e418d
:020a09001e4489
:020a0a001e4785
:020a0b001e4982
:020a0c001e4c7e
:020a0d001e4f7a
:020a0e001e5276
:020a0f001e5473
:020a10001e576f
:020a11001e5a6b
:020a12001e5d67
:020a13001e5f64
:020a14001e6260
:020a15001e655c
:020a16001e6858
:020a17001e6b54
:020a18001e6d51
:020a19001e704d
:020a1a001e7349
:020a1b001e7645
:020a1c001e7842
:020a1d001e7b3e
:020a1e001e7e3a
:020a1f001e8136
:020a20001e8333
:020a21001e862f
:020a22001e892b
:020a23001e8c27
:020a24001e8e24
:020a25001e9120
:020a26001e941c
:020a27001e9718
:020a28001e9915
:020a29001e9c11
:020a2a001e9f0d
:020a2b001ea209
:020a2c001ea505
:020a2d001ea702
:020a2e001eaafe
:020a2f001eadfa
:020a30001eb0f6
:020a31001eb2f3
:020a32001eb5ef
:020a33001eb8eb
:020a34001ebbe7
:020a35001ebde4
:020a36001ec0e0
:020a37001ec3dc
:020a38001ec6d8
:020a39001ec8d5
:020a3a001ecbd1
:020a3b001ececd
:020a3c001ed1c9
:020a3d001ed3c6
:020a3e001ed6c2
:020a3f001ed9be
:020a40001edcba
:020a41001edeb7
:020a42001ee1b3
:020a43001ee4af
:020a44001ee7ab
:020a45001ee9a8
:020a46001eeca4
:020a47001eefa0
:020a48001ef29c
:020a49001ef499
:020a4a001ef795
:020a4b001efa91
:020a4c001efd8d
:020a4d001eff8a
:020a4e001f0285
:020a4f001f0581
:020a50001f087d
:020a51001f0a7a
:020a52001f0d76
:020a53001f1072
:020a54001f136e
:020a55001f156b
:020a56001f1867
:020a57001f1b63
:020a58001f1e5f
:020a59001f205c
:020a5a001f2358
:020a5b001f2654
:020a5c001f2950
:020a5d001f2b4d
:020a5e001f2e49
:020a5f001f3145
:020a60001f3441
:020a61001f363e
:020a62001f393a
:020a63001f3c36
:020a64001f3f32
:020a65001f412f
:020a66001f442b
:020a67001f4727
:020a68001f4924
:020a69001f4c20
:020a6a001f4f1c
:020a6b001f5218
:020a6c001f5415
:020a6d001f5711
:020a6e001f5a0d
:020a6f001f5d09
:020a70001f5f06
:020a71001f6202
:020a72001f65fe
:020a73001f68fa
:020a74001f6af7
:020a75001f6df3
:020a76001f70ef
:020a77001f73eb
:020a78001f75e8
:020a79001f78e4
:020a7a001f7be0
:020a7b001f7ddd
:020a7c001f80d9
:020a7d001f83d5
:020a7e001f86d1
:020a7f001f88ce
:020a80001f8bca
:020a81001f8ec6
:020a82001f91c2
:020a83001f93bf
:020a84001f96bb
:020a85001f99b7
:020a86001f9cb3
:020a87001f9eb0
:020a88001fa1ac
:020a89001fa4a8
:020a8a001fa6a5
:020a8b001fa9a1
:020a8c001fac9d
:020a8d001faf99
:020a8e001fb196
:020a8f001fb492
:020a90001fb78e
:020a91001fba8a
:020a92001fbc87
:020a93001fbf83
:020a94001fc27f
:020a95001fc47c
:020a96001fc778
:020a97001fca74
:020a98001fcd70
:020a99001fcf6d
:020a9a001fd269
:020a9b001fd565
:020a9c001fd861
:020a9d001fda5e
:020a9e001fdd5a
:020a9f001fe056
:020aa0001fe253
:020aa1001fe54f
:020aa2001fe84b
:020aa3001feb47
:020aa4001fed44
:020aa5001ff040
:020aa6001ff33c
:020aa7001ff638
:020aa8001ff835
:020aa9001ffb31
:020aaa001ffe2d
:020aab00200029
:020aac00200325
:020aad00200621
:020aae0020091d
:020aaf00200b1a
:020ab000200e16
:020ab100201112
:020ab20020130f
:020ab30020160b
:020ab400201907
:020ab500201c03
:020ab600201e00
:020ab7002021fc
:020ab8002024f8
:020ab9002026f5
:020aba002029f1
:020abb00202ced
:020abc00202fe9
:020abd002031e6
:020abe002034e2
:020abf002037de
:020ac0002039db
:020ac100203cd7
:020ac200203fd3
:020ac3002042cf
:020ac4002044cc
:020ac5002047c8
:020ac600204ac4
:020ac700204cc1
:020ac800204fbd
:020ac9002052b9
:020aca002055b5
:020acb002057b2
:020acc00205aae
:020acd00205daa
:020ace00205fa7
:020acf002062a3
:020ad00020659f
:020ad10020689b
:020ad200206a98
:020ad300206d94
:020ad400207090
:020ad50020728d
:020ad600207589
:020ad700207885
:020ad800207b81
:020ad900207d7e
:020ada0020807a
:020adb00208376
:020adc00208573
:020add0020886f
:020ade00208b6b
:020adf00208d68
:020ae000209064
:020ae100209360
:020ae20020965c
:020ae300209859
:020ae400209b55
:020ae500209e51
:020ae60020a04e
:020ae70020a34a
:020ae80020a646
:020ae90020a843
:020aea0020ab3f
:020aeb0020ae3b
:020aec0020b137
:020aed0020b334
:020aee0020b630
:020aef0020b92c
:020af00020bb29
:020af10020be25
:020af20020c121
:020af30020c31e
:020af40020c61a
:020af50020c916
:020af60020cc12
:020af70020ce0f
:020af80020d10b
:020af90020d407
:020afa0020d604
:020afb0020d900
:020afc0020dcfc
:020afd0020def9
:020afe0020e1f5
:020aff0020e4f1
:020b000020e7ec
:020b010020e9e9
:020b020020ece5
:020b030020efe1
:020b040020f1de
:020b050020f4da
:020b060020f7d6
:020b070020f9d3
:020b080020fccf
:020b090020ffcb
:020b0a002101c7
:020b0b002104c3
:020b0c002107bf
:020b0d00210abb
:020b0e00210cb8
:020b0f00210fb4
:020b10002112b0
:020b11002114ad
:020b12002117a9
:020b1300211aa5
:020b1400211ca2
:020b1500211f9e
:020b160021229a
:020b1700212497
:020b1800212793
:020b1900212a8f
:020b1a00212c8c
:020b1b00212f88
:020b1c00213284
:020b1d00213580
:020b1e0021377d
:020b1f00213a79
:020b2000213d75
:020b2100213f72
:020b220021426e
:020b230021456a
:020b2400214767
:020b2500214a63
:020b2600214d5f
:020b2700214f5c
:020b2800215258
:020b2900215554
:020b2a00215751
:020b2b00215a4d
:020b2c00215d49
:020b2d00215f46
:020b2e00216242
:020b2f0021653e
:020b300021683a
:020b3100216a37
:020b3200216d33
:020b330021702f
:020b340021722c
:020b3500217528
:020b3600217824
:020b3700217a21
:020b3800217d1d
:020b3900218019
:020b3a00218216
:020b3b00218512
:020b3c0021880e
:020b3d00218a0b
:020b3e00218d07
:020b3f00219003
:020b4000219200
:020b41002195fc
:020b42002198f8
:020b4300219af5
:020b4400219df1
:020b450021a0ed
:020b460021a2ea
:020b470021a5e6
:020b480021a8e2
:020b490021aadf
:020b4a0021addb
:020b4b0021b0d7
:020b4c0021b2d4
:020b4d0021b5d0
:020b4e0021b8cc
:020b4f0021bac9
:020b500021bdc5
:020b510021c0c1
:020b520021c2be
:020b530021c5ba
:020b540021c8b6
:020b550021cab3
:020b560021cdaf
:020b570021d0ab
:020b580021d2a8
:020b590021d5a4
:020b5a0021d8a0
:020b5b0021da9d
:020b5c0021dd99
:020b5d0021e095
:020b5e0021e292
:020b5f0021e58e
:020b600021e88a
:020b610021ea87
:020b620021ed83
:020b630021f07f
:020b640021f27c
:020b650021f578
:020b660021f874
:020b670021fa71
:020b680021fd6d
:020b6900220068
:020b6a00220265
:020b6b00220561
:020b6c0022085d
:020b6d00220a5a
:020b6e00220d56
:020b6f00221052
:020b700022124f
:020b710022154b
:020b7200221847
:020b7300221a44
:020b7400221d40
:020b750022203c
:020b7600222239
:020b7700222535
:020b7800222831
:020b7900222a2e
:020b7a00222d2a
:020b7b00223026
:020b7c00223223
:020b7d0022351f
:020b7e0022381b
:020b7f00223a18
:020b8000223d14
:020b8100224010
:020b820022420d
:020b8300224509
:020b8400224706
:020b8500224a02
:020b8600224dfe
:020b8700224ffb
:020b88002252f7
:020b89002255f3
:020b8a002257f0
:020b8b00225aec
:020b8c00225de8
:020b8d00225fe5
:020b8e002262e1
:020b8f002265dd
:020b90002267da
:020b9100226ad6
:020b9200226dd2
:020b9300226fcf
:020b94002272cb
:020b95002275c7
:020b96002277c4
:020b9700227ac0
:020b9800227cbd
:020b9900227fb9
:020b9a002282b5
:020b9b002284b2
:020b9c002287ae
:020b9d00228aaa
:020b9e00228ca7
:020b9f00228fa3
:020ba00022929f
:020ba10022949c
:020ba200229798
:020ba300229a94
:020ba400229c91
:020ba500229f8d
:020ba60022a18a
:020ba70022a486
:020ba80022a782
:020ba90022a97f
:020baa0022ac7b
:020bab0022af77
:020bac0022b174
:020bad0022b470
:020bae0022b76c
:020baf0022b969
:020bb00022bc65
:020bb10022bf61
:020bb20022c15e
:020bb30022c45a
:020bb40022c657
:020bb50022c953
:020bb60022cc4f
:020bb70022ce4c
:020bb80022d148
:020bb90022d444
:020bba0022d641
:020bbb0022d93d
:020bbc0022dc39
:020bbd0022de36
:020bbe0022e132
:020bbf0022e32f
:020bc00022e62b
:020bc10022e927
:020bc20022eb24
:020bc30022ee20
:020bc40022f11c
:020bc50022f319
:020bc60022f615
:020bc70022f812
:020bc80022fb0e
:020bc90022fe0a
:020bca00230006
:020bcb00230302
:020bcc002306fe
:020bcd002308fb
:020bce00230bf7
:020bcf00230ef3
:020bd0002310f0
:020bd1002313ec
:020bd2002315e9
:020bd3002318e5
:020bd400231be1
:020bd500231dde
:020bd6002320da
:020bd7002323d6
:020bd8002325d3
:020bd9002328cf
:020bda00232acc
:020bdb00232dc8
:020bdc002330c4
:020bdd002332c1
:020bde002335bd
:020bdf002338b9
:020be000233ab6
:020be100233db2
:020be200233faf
:020be3002342ab
:020be4002345a7
:020be5002347a4
:020be600234aa0
:020be700234d9c
:020be800234f99
:020be900235295
:020bea00235492
:020beb0023578e
:020bec00235a8a
:020bed00235c87
:020bee00235f83
:020bef00236180
:020bf00023647c
:020bf100236778
:020bf200236975
:020bf300236c71
:020bf400236f6d
:020bf50023716a
:020bf600237466
:020bf700237663
:020bf80023795f
:020bf900237c5b
:020bfa00237e58
:020bfb00238154
:020bfc00238351
:020bfd0023864d
:020bfe00238949
:020bff00238b46
:020c0000238e41
:020c010023913d
:020c020023933a
:020c0300239636
:020c0400239833
:020c0500239b2f
:020c0600239e2b
:020c070023a028
:020c080023a324
:020c090023a521
:020c0a0023a81d
:020c0b0023ab19
:020c0c0023ad16
:020c0d0023b012
:020c0e0023b20f
:020c0f0023b50b
:020c100023b807
:020c110023ba04
:020c120023bd00
:020c130023bffd
:020c140023c2f9
:020c150023c5f5
:020c160023c7f2
:020c170023caee
:020c180023cceb
:020c190023cfe7
:020c1a0023d2e3
:020c1b0023d4e0
:020c1c0023d7dc
:020c1d0023dad8
:020c1e0023dcd5
:020c1f0023dfd1
:020c200023e1ce
:020c210023e4ca
:020c220023e7c6
:020c230023e9c3
:020c240023ecbf
:020c250023eebc
:020c260023f1b8
:020c270023f4b4
:020c280023f6b1
:020c290023f9ad
:020c2a0023fbaa
:020c2b0023fea6
:020c2c002401a1
:020c2d0024039e
:020c2e0024069a
:020c2f00240897
:020c3000240b93
:020c3100240d90
:020c320024108c
:020c3300241388
:020c3400241585
:020c3500241881
:020c3600241a7e
:020c3700241d7a
:020c3800242076
:020c3900242273
:020c3a0024256f
:020c3b0024276c
:020c3c00242a68
:020c3d00242d64
:020c3e00242f61
:020c3f0024325d
:020c400024345a
:020c4100243756
:020c4200243a52
:020c4300243c4f
:020c4400243f4b
:020c4500244148
:020c4600244444
:020c4700244740
:020c480024493d
:020c4900244c39
:020c4a00244e36
:020c4b00245132
:020c4c0024532f
:020c4d0024562b
:020c4e00245927
:020c4f00245b24
:020c5000245e20
:020c510024601d
:020c5200246319
:020c5300246615
:020c5400246812
:020c5500246b0e
:020c5600246d0b
:020c5700247007
:020c5800247204
:020c5900247500
:020c5a002478fc
:020c5b00247af9
:020c5c00247df5
:020c5d00247ff2
:020c5e002482ee
:020c5f002485ea
:020c60002487e7
:020c6100248ae3
:020c6200248ce0
:020c6300248fdc
:020c64002491d9
:020c65002494d5
:020c66002497d1
:020c67002499ce
:020c6800249cca
:020c6900249ec7
:020c6a0024a1c3
:020c6b0024a3c0
:020c6c0024a6bc
:020c6d0024a9b8
:020c6e0024abb5
:020c6f0024aeb1
:020c700024b0ae
:020c710024b3aa
:020c720024b5a7
:020c730024b8a3
:020c740024bb9f
:020c750024bd9c
:020c760024c098
:020c770024c295
:020c780024c591
:020c790024c78e
:020c7a0024ca8a
:020c7b0024cd86
:020c7c0024cf83
:020c7d0024d27f
:020c7e0024d47c
:020c7f0024d778
:020c800024d975
:020c810024dc71
:020c820024df6d
:020c830024e16a
:020c840024e466
:020c850024e663
:020c860024e95f
:020c870024eb5c
:020c880024ee58
:020c890024f154
:020c8a0024f351
:020c8b0024f64d
:020c8c0024f84a
:020c8d0024fb46
:020c8e0024fd43
:020c8f0025003e
:020c900025033a
:020c9100250537
:020c9200250833
:020c9300250a30
:020c9400250d2c
:020c9500250f29
:020c9600251225
:020c9700251422
:020c980025171e
:020c9900251a1a
:020c9a00251c17
:020c9b00251f13
:020c9c00252110
:020c9d0025240c
:020c9e00252609
:020c9f00252905
:020ca000252b02
:020ca100252efe
:020ca2002531fa
:020ca3002533f7
:020ca4002536f3
:020ca5002538f0
:020ca600253bec
:020ca700253de9
:020ca8002540e5
:020ca9002542e2
:020caa002545de
:020cab002548da
:020cac00254ad7
:020cad00254dd3
:020cae00254fd0
:020caf002552cc
:020cb0002554c9
:020cb1002557c5
:020cb2002559c2
:020cb300255cbe
:020cb400255fba
:020cb5002561b7
:020cb6002564b3
:020cb7002566b0
:020cb8002569ac
:020cb900256ba9
:020cba00256ea5
:020cbb002570a2
:020cbc0025739e
:020cbd0025759b
:020cbe00257897
:020cbf00257b93
:020cc000257d90
:020cc10025808c
:020cc200258289
:020cc300258585
:020cc400258782
:020cc500258a7e
:020cc600258c7b
:020cc700258f77
:020cc800259174
:020cc900259470
:020cca0025976c
:020ccb00259969
:020ccc00259c65
:020ccd00259e62
:020cce0025a15e
:020ccf0025a35b
:020cd00025a657
:020cd10025a854
:020cd20025ab50
:020cd30025ad4d
:020cd40025b049
:020cd50025b345
:020cd60025b542
:020cd70025b83e
:020cd80025ba3b
:020cd90025bd37
:020cda0025bf34
:020cdb0025c230
:020cdc0025c42d
:020cdd0025c729
:020cde0025c926
:020cdf0025cc22
:020ce00025ce1f
:020ce10025d11b
:020ce20025d318
:020ce30025d614
:020ce40025d910
:020ce50025db0d
:020ce60025de09
:020ce70025e006
:020ce80025e302
:020ce90025e5ff
:020cea0025e8fb
:020ceb0025eaf8
:020cec0025edf4
:020ced0025eff1
:020cee0025f2ed
:020cef0025f4ea
:020cf00025f7e6
:020cf10025f9e3
:020cf20025fcdf
:020cf30025ffdb
:020cf4002601d7
:020cf5002604d3
:020cf6002606d0
:020cf7002609cc
:020cf800260bc9
:020cf900260ec5
:020cfa002610c2
:020cfb002613be
:020cfc002615bb
:020cfd002618b7
:020cfe00261ab4
:020cff00261db0
:020d0000261fac
:020d01002622a8
:020d02002624a5
:020d03002627a1
:020d040026299e
:020d0500262c9a
:020d0600262e97
:020d0700263193
:020d080026348f
:020d090026368c
:020d0a00263988
:020d0b00263b85
:020d0c00263e81
:020d0d0026407e
:020d0e0026437a
:020d0f00264577
:020d1000264873
:020d1100264a70
:020d1200264d6c
:020d1300264f69
:020d1400265265
:020d1500265462
:020d160026575e
:020d170026595b
:020d1800265c57
:020d1900265e54
:020d1a00266150
:020d1b0026634d
:020d1c00266649
:020d1d00266846
:020d1e00266b42
:020d1f00266d3f
:020d200026703b
:020d2100267238
:020d2200267534
:020d2300267731
:020d2400267a2d
:020d2500267c2a
:020d2600267f26
:020d2700268123
:020d280026841f
:020d290026861c
:020d2a00268918
:020d2b00268c14
:020d2c00268e11
:020d2d0026910d
:020d2e0026930a
:020d2f00269606
:020d3000269803
:020d3100269bff
:020d3200269dfc
:020d330026a0f8
:020d340026a2f5
:020d350026a5f1
:020d360026a7ee
:020d370026aaea
:020d380026ace7
:020d390026afe3
:020d3a0026b1e0
:020d3b0026b4dc
:020d3c0026b6d9
:020d3d0026b9d5
:020d3e0026bbd2
:020d3f0026bece
:020d400026c0cb
:020d410026c3c7
:020d420026c5c4
:020d430026c8c0
:020d440026cabd
:020d450026cdb9
:020d460026cfb6
:020d470026d2b2
:020d480026d4af
:020d490026d7ab
:020d4a0026d9a8
:020d4b0026dca4
:020d4c0026dea1
:020d4d0026e19d
:020d4e0026e39a
:020d4f0026e696
:020d500026e893
:020d510026eb8f
:020d520026ed8c
:020d530026f088
:020d540026f285
:020d550026f581
:020d560026f77e
:020d570026f97b
:020d580026fc77
:020d590026fe74
:020d5a0027016f
:020d5b0027036c
:020d5c00270668
:020d5d00270865
:020d5e00270b61
:020d5f00270d5e
:020d600027105a
:020d6100271257
:020d6200271553
:020d6300271750
:020d6400271a4c
:020d6500271c49
:020d6600271f45
:020d6700272142
:020d680027243e
:020d690027263b
:020d6a00272937
:020d6b00272b34
:020d6c00272e30
:020d6d0027302d
:020d6e00273329
:020d6f00273526
:020d7000273822
:020d7100273a1f
:020d7200273d1b
:020d7300273f18
:020d7400274214
:020d7500274411
:020d760027470d
:020d770027490a
:020d7800274c06
:020d7900274e03
:020d7a00275000
:020d7b002753fc
:020d7c002755f9
:020d7d002758f5
:020d7e00275af2
:020d7f00275dee
:020d8000275feb
:020d81002762e7
:020d82002764e4
:020d83002767e0
:020d84002769dd
:020d8500276cd9
:020d8600276ed6
:020d87002771d2
:020d88002773cf
:020d89002776cb
:020d8a002778c8
:020d8b00277bc4
:020d8c00277dc1
:020d8d002780bd
:020d8e002782ba
:020d8f002784b7
:020d90002787b3
:020d91002789b0
:020d9200278cac
:020d9300278ea9
:020d94002791a5
:020d95002793a2
:020d960027969e
:020d970027989b
:020d9800279b97
:020d9900279d94
:020d9a0027a090
:020d9b0027a28d
:020d9c0027a589
:020d9d0027a786
:020d9e0027a983
:020d9f0027ac7f
:020da00027ae7c
:020da10027b178
:020da20027b375
:020da30027b671
:020da40027b86e
:020da50027bb6a
:020da60027bd67
:020da70027c063
:020da80027c260
:020da90027c55c
:020daa0027c759
:020dab0027c956
:020dac0027cc52
:020dad0027ce4f
:020dae0027d14b
:020daf0027d348
:020db00027d644
:020db10027d841
:020db20027db3d
:020db30027dd3a
:020db40027e036
:020db50027e233
:020db60027e52f
:020db70027e72c
:020db80027e929
:020db90027ec25
:020dba0027ee22
:020dbb0027f11e
:020dbc0027f31b
:020dbd0027f617
:020dbe0027f814
:020dbf0027fb10
:020dc00027fd0d
:020dc100280008
:020dc200280205
:020dc300280402
:020dc4002807fe
:020dc5002809fb
:020dc600280cf7
:020dc700280ef4
:020dc8002811f0
:020dc9002813ed
:020dca002816e9
:020dcb002818e6
:020dcc00281ae3
:020dcd00281ddf
:020dce00281fdc
:020dcf002822d8
:020dd0002824d5
:020dd1002827d1
:020dd2002829ce
:020dd300282cca
:020dd400282ec7
:020dd5002830c4
:020dd6002833c0
:020dd7002835bd
:020dd8002838b9
:020dd900283ab6
:020dda00283db2
:020ddb00283faf
:020ddc002842ab
:020ddd002844a8
:020dde002846a5
:020ddf002849a1
:020de000284b9e
:020de100284e9a
:020de200285097
:020de300285393
:020de400285590
:020de50028588c
:020de600285a89
:020de700285c86
:020de800285f82
:020de90028617f
:020dea0028647b
:020deb00286678
:020dec00286974
:020ded00286b71
:020dee00286d6e
:020def0028706a
:020df000287267
:020df100287563
:020df200287760
:020df300287a5c
:020df400287c59
:020df500287f55
:020df600288152
:020df70028834f
:020df80028864b
:020df900288848
:020dfa00288b44
:020dfb00288d41
:020dfc0028903d
:020dfd0028923a
:020dfe00289437
:020dff00289733
:020e000028992f
:020e0100289c2b
:020e0200289e28
:020e030028a124
:020e040028a321
:020e050028a51e
:020e060028a81a
:020e070028aa17
:020e080028ad13
:020e090028af10
:020e0a0028b20c
:020e0b0028b409
:020e0c0028b606
:020e0d0028b902
:020e0e0028bbff
:020e0f0028befb
:020e100028c0f8
:020e110028c2f5
:020e120028c5f1
:020e130028c7ee
:020e140028caea
:020e150028cce7
:020e160028cfe3
:020e170028d1e0
:020e180028d3dd
:020e190028d6d9
:020e1a0028d8d6
:020e1b0028dbd2
:020e1c0028ddcf
:020e1d0028e0cb
:020e1e0028e2c8
:020e1f0028e4c5
:020e200028e7c1
:020e210028e9be
:020e220028ecba
:020e230028eeb7
:020e240028f0b4
:020e250028f3b0
:020e260028f5ad
:020e270028f8a9
:020e280028faa6
:020e290028fda2
:020e2a0028ff9f
:020e2b0029019b
:020e2c00290497
:020e2d00290694
:020e2e00290990
:020e2f00290b8d
:020e3000290d8a
:020e3100291086
:020e3200291283
:020e330029157f
:020e340029177c
:020e3500291979
:020e3600291c75
:020e3700291e72
:020e380029216e
:020e390029236b
:020e3a00292568
:020e3b00292864
:020e3c00292a61
:020e3d00292d5d
:020e3e00292f5a
:020e3f00293157
:020e4000293453
:020e4100293650
:020e420029394c
:020e4300293b49
:020e4400293e45
:020e4500294042
:020e460029423f
:020e470029453b
:020e4800294738
:020e4900294a34
:020e4a00294c31
:020e4b00294e2e
:020e4c0029512a
:020e4d00295327
:020e4e00295623
:020e4f00295820
:020e5000295a1d
:020e5100295d19
:020e5200295f16
:020e5300296113
:020e540029640f
:020e550029660c
:020e5600296908
:020e5700296b05
:020e5800296d02
:020e59002970fe
:020e5a002972fb
:020e5b002975f7
:020e5c002977f4
:020e5d002979f1
:020e5e00297ced
:020e5f00297eea
:020e60002981e6
:020e61002983e3
:020e62002985e0
:020e63002988dc
:020e6400298ad9
:020e6500298dd5
:020e6600298fd2
:020e67002991cf
:020e68002994cb
:020e69002996c8
:020e6a002999c4
:020e6b00299bc1
:020e6c00299dbe
:020e6d0029a0ba
:020e6e0029a2b7
:020e6f0029a4b4
:020e700029a7b0
:020e710029a9ad
:020e720029aca9
:020e730029aea6
:020e740029b0a3
:020e750029b39f
:020e760029b59c
:020e770029b898
:020e780029ba95
:020e790029bc92
:020e7a0029bf8e
:020e7b0029c18b
:020e7c0029c388
:020e7d0029c684
:020e7e0029c881
:020e7f0029cb7d
:020e800029cd7a
:020e810029cf77
:020e820029d273
:020e830029d470
:020e840029d66d
:020e850029d969
:020e860029db66
:020e870029de62
:020e880029e05f
:020e890029e25c
:020e8a0029e558
:020e8b0029e755
:020e8c0029e952
:020e8d0029ec4e
:020e8e0029ee4b
:020e8f0029f147
:020e900029f344
:020e910029f541
:020e920029f83d
:020e930029fa3a
:020e940029fc37
:020e950029ff33
:020e96002a012f
:020e97002a042b
:020e98002a0628
:020e99002a0825
:020e9a002a0b21
:020e9b002a0d1e
:020e9c002a0f1b
:020e9d002a1217
:020e9e002a1414
:020e9f002a1611
:020ea0002a190d
:020ea1002a1b0a
:020ea2002a1e06
:020ea3002a2003
:020ea4002a2200
:020ea5002a25fc
:020ea6002a27f9
:020ea7002a29f6
:020ea8002a2cf2
:020ea9002a2eef
:020eaa002a30ec
:020eab002a33e8
:020eac002a35e5
:020ead002a38e1
:020eae002a3ade
:020eaf002a3cdb
:020eb0002a3fd7
:020eb1002a41d4
:020eb2002a43d1
:020eb3002a46cd
:020eb4002a48ca
:020eb5002a4ac7
:020eb6002a4dc3
:020eb7002a4fc0
:020eb8002a52bc
:020eb9002a54b9
:020eba002a56b6
:020ebb002a59b2
:020ebc002a5baf
:020ebd002a5dac
:020ebe002a60a8
:020ebf002a62a5
:020ec0002a64a2
:020ec1002a679e
:020ec2002a699b
:020ec3002a6b98
:020ec4002a6e94
:020ec5002a7091
:020ec6002a728e
:020ec7002a758a
:020ec8002a7787
:020ec9002a7a83
:020eca002a7c80
:020ecb002a7e7d
:020ecc002a8179
:020ecd002a8376
:020ece002a8573
:020ecf002a886f
:020ed0002a8a6c
:020ed1002a8c69
:020ed2002a8f65
:020ed3002a9162
:020ed4002a935f
:020ed5002a965b
:020ed6002a9858
:020ed7002a9a55
:020ed8002a9d51
:020ed9002a9f4e
:020eda002aa14b
:020edb002aa447
:020edc002aa644
:020edd002aa841
:020ede002aab3d
:020edf002aad3a
:020ee0002aaf37
:020ee1002ab233
:020ee2002ab430
:020ee3002ab62d
:020ee4002ab929
:020ee5002abb26
:020ee6002abd23
:020ee7002ac01f
:020ee8002ac21c
:020ee9002ac518
:020eea002ac715
:020eeb002ac912
:020eec002acc0e
:020eed002ace0b
:020eee002ad008
:020eef002ad304
:020ef0002ad501
:020ef1002ad7fe
:020ef2002adafa
:020ef3002adcf7
:020ef4002adef4
:020ef5002ae1f0
:020ef6002ae3ed
:020ef7002ae5ea
:020ef8002ae8e6
:020ef9002aeae3
:020efa002aece0
:020efb002aefdc
:020efc002af1d9
:020efd002af3d6
:020efe002af5d3
:020eff002af8cf
:020f00002afacb
:020f01002afcc8
:020f02002affc4
:020f03002b01c0
:020f04002b03bd
:020f05002b06b9
:020f06002b08b6
:020f07002b0ab3
:020f08002b0daf
:020f09002b0fac
:020f0a002b11a9
:020f0b002b14a5
:020f0c002b16a2
:020f0d002b189f
:020f0e002b1b9b
:020f0f002b1d98
:020f10002b1f95
:020f11002b2291
:020f12002b248e
:020f13002b268b
:020f14002b2987
:020f15002b2b84
:020f16002b2d81
:020f17002b307d
:020f18002b327a
:020f19002b3477
:020f1a002b3773
:020f1b002b3970
:020f1c002b3b6d
:020f1d002b3d6a
:020f1e002b4066
:020f1f002b4263
:020f20002b4460
:020f21002b475c
:020f22002b4959
:020f23002b4b56
:020f24002b4e52
:020f25002b504f
:020f26002b524c
:020f27002b5548
:020f28002b5745
:020f29002b5942
:020f2a002b5c3e
:020f2b002b5e3b
:020f2c002b6038
:020f2d002b6235
:020f2e002b6531
:020f2f002b672e
:020f30002b692b
:020f31002b6c27
:020f32002b6e24
:020f33002b7021
:020f34002b731d
:020f35002b751a
:020f36002b7717
:020f37002b7a13
:020f38002b7c10
:020f39002b7e0d
:020f3a002b800a
:020f3b002b8306
:020f3c002b8503
:020f3d002b8700
:020f3e002b8afc
:020f3f002b8cf9
:020f40002b8ef6
:020f41002b91f2
:020f42002b93ef
:020f43002b95ec
:020f44002b97e9
:020f45002b9ae5
:020f46002b9ce2
:020f47002b9edf
:020f48002ba1db
:020f49002ba3d8
:020f4a002ba5d5
:020f4b002ba8d1
:020f4c002baace
:020f4d002baccb
:020f4e002baec8
:020f4f002bb1c4
:020f50002bb3c1
:020f51002bb5be
:020f52002bb8ba
:020f53002bbab7
:020f54002bbcb4
:020f55002bbfb0
:020f56002bc1ad
:020f57002bc3aa
:020f58002bc5a7
:020f59002bc8a3
:020f5a002bcaa0
:020f5b002bcc9d
:020f5c002bcf99
:020f5d002bd196
:020f5e002bd393
:020f5f002bd590
:020f60002bd88c
:020f61002bda89
:020f62002bdc86
:020f63002bdf82
:020f64002be17f
:020f65002be37c
:020f66002be579
:020f67002be875
:020f68002bea72
:020f69002bec6f
:020f6a002bef6b
:020f6b002bf168
:020f6c002bf365
:020f6d002bf562
:020f6e002bf85e
:020f6f002bfa5b
:020f70002bfc58
:020f71002bff54
:020f72002c0150
:020f73002c034d
:020f74002c054a
:020f75002c0846
:020f76002c0a43
:020f77002c0c40
:020f78002c0f3c
:020f79002c1139
:020f7a002c1336
:020f7b002c1533
:020f7c002c182f
:020f7d002c1a2c
:020f7e002c1c29
:020f7f002c1e26
:020f80002c2122
:020f81002c231f
:020f82002c251c
:020f83002c2818
:020f84002c2a15
:020f85002c2c12
:020f86002c2e0f
:020f87002c310b
:020f88002c3308
:020f89002c3505
:020f8a002c3702
:020f8b002c3afe
:020f8c002c3cfb
:020f8d002c3ef8
:020f8e002c41f4
:020f8f002c43f1
:020f90002c45ee
:020f91002c47eb
:020f92002c4ae7
:020f93002c4ce4
:020f94002c4ee1
:020f95002c50de
:020f96002c53da
:020f97002c55d7
:020f98002c57d4
:020f99002c59d1
:020f9a002c5ccd
:020f9b002c5eca
:020f9c002c60c7
:020f9d002c63c3
:020f9e002c65c0
:020f9f002c67bd
